{
  "contractName": "BEP20",
  "abi": [
    {
      "inputs": [
        {
          "internalType": "uint256",
          "name": "_salesStart",
          "type": "uint256"
        },
        {
          "internalType": "uint256",
          "name": "_salesEndDate",
          "type": "uint256"
        },
        {
          "internalType": "uint256",
          "name": "_airdropDate",
          "type": "uint256"
        },
        {
          "internalType": "uint256",
          "name": "_lrwdTBTDate",
          "type": "uint256"
        }
      ],
      "stateMutability": "nonpayable",
      "type": "constructor"
    },
    {
      "inputs": [],
      "name": "Unauthorized",
      "type": "error"
    },
    {
      "anonymous": false,
      "inputs": [
        {
          "indexed": true,
          "internalType": "address",
          "name": "_user",
          "type": "address"
        },
        {
          "indexed": false,
          "internalType": "uint256",
          "name": "_value",
          "type": "uint256"
        }
      ],
      "name": "Airdrop",
      "type": "event"
    },
    {
      "anonymous": false,
      "inputs": [
        {
          "indexed": true,
          "internalType": "address",
          "name": "owner",
          "type": "address"
        },
        {
          "indexed": true,
          "internalType": "address",
          "name": "spender",
          "type": "address"
        },
        {
          "indexed": false,
          "internalType": "uint256",
          "name": "value",
          "type": "uint256"
        }
      ],
      "name": "Approval",
      "type": "event"
    },
    {
      "anonymous": false,
      "inputs": [
        {
          "indexed": true,
          "internalType": "address",
          "name": "previousTrans",
          "type": "address"
        },
        {
          "indexed": true,
          "internalType": "address",
          "name": "newTrans",
          "type": "address"
        }
      ],
      "name": "OwnershipTransferred",
      "type": "event"
    },
    {
      "anonymous": false,
      "inputs": [
        {
          "indexed": true,
          "internalType": "address",
          "name": "reporter",
          "type": "address"
        },
        {
          "indexed": true,
          "internalType": "address",
          "name": "_target",
          "type": "address"
        }
      ],
      "name": "Reported",
      "type": "event"
    },
    {
      "anonymous": false,
      "inputs": [
        {
          "indexed": true,
          "internalType": "address",
          "name": "from",
          "type": "address"
        },
        {
          "indexed": true,
          "internalType": "address",
          "name": "to",
          "type": "address"
        },
        {
          "indexed": false,
          "internalType": "uint256",
          "name": "value",
          "type": "uint256"
        }
      ],
      "name": "Transfer",
      "type": "event"
    },
    {
      "inputs": [],
      "name": "_current_miner",
      "outputs": [
        {
          "internalType": "address",
          "name": "",
          "type": "address"
        }
      ],
      "stateMutability": "view",
      "type": "function"
    },
    {
      "inputs": [],
      "name": "airDropBalance",
      "outputs": [
        {
          "internalType": "uint256",
          "name": "",
          "type": "uint256"
        }
      ],
      "stateMutability": "view",
      "type": "function"
    },
    {
      "inputs": [
        {
          "internalType": "uint256",
          "name": "",
          "type": "uint256"
        }
      ],
      "name": "airdropList",
      "outputs": [
        {
          "internalType": "address",
          "name": "",
          "type": "address"
        }
      ],
      "stateMutability": "view",
      "type": "function"
    },
    {
      "inputs": [
        {
          "internalType": "address",
          "name": "",
          "type": "address"
        }
      ],
      "name": "airdropProfile",
      "outputs": [
        {
          "internalType": "uint256",
          "name": "id",
          "type": "uint256"
        },
        {
          "internalType": "uint8",
          "name": "exist",
          "type": "uint8"
        },
        {
          "internalType": "bool",
          "name": "isConfirmed",
          "type": "bool"
        }
      ],
      "stateMutability": "view",
      "type": "function"
    },
    {
      "inputs": [],
      "name": "airdroppersCounter",
      "outputs": [
        {
          "internalType": "uint256",
          "name": "",
          "type": "uint256"
        }
      ],
      "stateMutability": "view",
      "type": "function"
    },
    {
      "inputs": [
        {
          "internalType": "uint256",
          "name": "",
          "type": "uint256"
        }
      ],
      "name": "blackList",
      "outputs": [
        {
          "internalType": "address",
          "name": "",
          "type": "address"
        }
      ],
      "stateMutability": "view",
      "type": "function"
    },
    {
      "inputs": [],
      "name": "blackListCounter",
      "outputs": [
        {
          "internalType": "uint256",
          "name": "",
          "type": "uint256"
        }
      ],
      "stateMutability": "view",
      "type": "function"
    },
    {
      "inputs": [],
      "name": "bnbRaised",
      "outputs": [
        {
          "internalType": "uint256",
          "name": "",
          "type": "uint256"
        }
      ],
      "stateMutability": "view",
      "type": "function"
    },
    {
      "inputs": [
        {
          "internalType": "address",
          "name": "",
          "type": "address"
        }
      ],
      "name": "canClaimMinerReward",
      "outputs": [
        {
          "internalType": "bool",
          "name": "",
          "type": "bool"
        }
      ],
      "stateMutability": "view",
      "type": "function"
    },
    {
      "inputs": [
        {
          "internalType": "uint256",
          "name": "",
          "type": "uint256"
        }
      ],
      "name": "cell",
      "outputs": [
        {
          "internalType": "uint256",
          "name": "reporters",
          "type": "uint256"
        },
        {
          "internalType": "uint256",
          "name": "supporters",
          "type": "uint256"
        }
      ],
      "stateMutability": "view",
      "type": "function"
    },
    {
      "inputs": [],
      "name": "claimIfZeroOwnerhip",
      "outputs": [
        {
          "internalType": "bool",
          "name": "",
          "type": "bool"
        }
      ],
      "stateMutability": "nonpayable",
      "type": "function"
    },
    {
      "inputs": [
        {
          "internalType": "address",
          "name": "",
          "type": "address"
        }
      ],
      "name": "cops",
      "outputs": [
        {
          "internalType": "bool",
          "name": "isCop",
          "type": "bool"
        },
        {
          "internalType": "uint256",
          "name": "lockTimestamp",
          "type": "uint256"
        }
      ],
      "stateMutability": "view",
      "type": "function"
    },
    {
      "inputs": [],
      "name": "currentminer",
      "outputs": [
        {
          "internalType": "address",
          "name": "",
          "type": "address"
        }
      ],
      "stateMutability": "view",
      "type": "function"
    },
    {
      "inputs": [
        {
          "internalType": "address",
          "name": "",
          "type": "address"
        }
      ],
      "name": "custody",
      "outputs": [
        {
          "internalType": "uint256",
          "name": "reporters",
          "type": "uint256"
        },
        {
          "internalType": "uint256",
          "name": "supporters",
          "type": "uint256"
        }
      ],
      "stateMutability": "view",
      "type": "function"
    },
    {
      "inputs": [],
      "name": "discountRate",
      "outputs": [
        {
          "internalType": "uint32",
          "name": "",
          "type": "uint32"
        }
      ],
      "stateMutability": "view",
      "type": "function"
    },
    {
      "inputs": [],
      "name": "fundingTarget",
      "outputs": [
        {
          "internalType": "uint256",
          "name": "",
          "type": "uint256"
        }
      ],
      "stateMutability": "view",
      "type": "function"
    },
    {
      "inputs": [
        {
          "internalType": "address",
          "name": "",
          "type": "address"
        }
      ],
      "name": "granted",
      "outputs": [
        {
          "internalType": "bool",
          "name": "",
          "type": "bool"
        }
      ],
      "stateMutability": "view",
      "type": "function"
    },
    {
      "inputs": [
        {
          "internalType": "address",
          "name": "",
          "type": "address"
        }
      ],
      "name": "isMiner",
      "outputs": [
        {
          "internalType": "bool",
          "name": "",
          "type": "bool"
        }
      ],
      "stateMutability": "view",
      "type": "function"
    },
    {
      "inputs": [
        {
          "internalType": "address",
          "name": "",
          "type": "address"
        }
      ],
      "name": "isRegistered",
      "outputs": [
        {
          "internalType": "bool",
          "name": "",
          "type": "bool"
        }
      ],
      "stateMutability": "view",
      "type": "function"
    },
    {
      "inputs": [],
      "name": "lastAirddropDate",
      "outputs": [
        {
          "internalType": "uint256",
          "name": "",
          "type": "uint256"
        }
      ],
      "stateMutability": "view",
      "type": "function"
    },
    {
      "inputs": [],
      "name": "lastRewardTBTDate",
      "outputs": [
        {
          "internalType": "uint256",
          "name": "",
          "type": "uint256"
        }
      ],
      "stateMutability": "view",
      "type": "function"
    },
    {
      "inputs": [],
      "name": "lastRound",
      "outputs": [
        {
          "internalType": "uint256",
          "name": "",
          "type": "uint256"
        }
      ],
      "stateMutability": "view",
      "type": "function"
    },
    {
      "inputs": [],
      "name": "minerCount",
      "outputs": [
        {
          "internalType": "uint256",
          "name": "",
          "type": "uint256"
        }
      ],
      "stateMutability": "view",
      "type": "function"
    },
    {
      "inputs": [
        {
          "internalType": "uint256",
          "name": "",
          "type": "uint256"
        }
      ],
      "name": "minerList",
      "outputs": [
        {
          "internalType": "address",
          "name": "",
          "type": "address"
        }
      ],
      "stateMutability": "view",
      "type": "function"
    },
    {
      "inputs": [
        {
          "internalType": "address",
          "name": "",
          "type": "address"
        }
      ],
      "name": "minerMap",
      "outputs": [
        {
          "internalType": "uint256",
          "name": "lastRewardClaimDate",
          "type": "uint256"
        },
        {
          "internalType": "uint8",
          "name": "claimCount",
          "type": "uint8"
        },
        {
          "internalType": "uint256",
          "name": "_reward",
          "type": "uint256"
        },
        {
          "internalType": "uint256",
          "name": "totalClaimed",
          "type": "uint256"
        },
        {
          "internalType": "uint256",
          "name": "onePortionReward",
          "type": "uint256"
        }
      ],
      "stateMutability": "view",
      "type": "function"
    },
    {
      "inputs": [],
      "name": "minerSwitchRound",
      "outputs": [
        {
          "internalType": "uint256",
          "name": "",
          "type": "uint256"
        }
      ],
      "stateMutability": "view",
      "type": "function"
    },
    {
      "inputs": [],
      "name": "pioneer",
      "outputs": [
        {
          "internalType": "address",
          "name": "",
          "type": "address"
        }
      ],
      "stateMutability": "view",
      "type": "function"
    },
    {
      "inputs": [],
      "name": "renounceOwnership",
      "outputs": [],
      "stateMutability": "nonpayable",
      "type": "function"
    },
    {
      "inputs": [],
      "name": "rewardIter",
      "outputs": [
        {
          "internalType": "uint256",
          "name": "",
          "type": "uint256"
        }
      ],
      "stateMutability": "view",
      "type": "function"
    },
    {
      "inputs": [],
      "name": "salesEnd",
      "outputs": [
        {
          "internalType": "uint256",
          "name": "",
          "type": "uint256"
        }
      ],
      "stateMutability": "view",
      "type": "function"
    },
    {
      "inputs": [],
      "name": "salesStart",
      "outputs": [
        {
          "internalType": "uint256",
          "name": "",
          "type": "uint256"
        }
      ],
      "stateMutability": "view",
      "type": "function"
    },
    {
      "inputs": [
        {
          "internalType": "address",
          "name": "",
          "type": "address"
        }
      ],
      "name": "stakePool",
      "outputs": [
        {
          "internalType": "uint256",
          "name": "",
          "type": "uint256"
        }
      ],
      "stateMutability": "view",
      "type": "function"
    },
    {
      "inputs": [
        {
          "internalType": "uint256",
          "name": "",
          "type": "uint256"
        }
      ],
      "name": "station",
      "outputs": [
        {
          "internalType": "bool",
          "name": "isCop",
          "type": "bool"
        },
        {
          "internalType": "uint256",
          "name": "lockTimestamp",
          "type": "uint256"
        }
      ],
      "stateMutability": "view",
      "type": "function"
    },
    {
      "inputs": [
        {
          "internalType": "uint256",
          "name": "",
          "type": "uint256"
        }
      ],
      "name": "tbtList",
      "outputs": [
        {
          "internalType": "address",
          "name": "",
          "type": "address"
        }
      ],
      "stateMutability": "view",
      "type": "function"
    },
    {
      "inputs": [],
      "name": "timeMark",
      "outputs": [
        {
          "internalType": "uint256",
          "name": "",
          "type": "uint256"
        }
      ],
      "stateMutability": "view",
      "type": "function"
    },
    {
      "inputs": [],
      "name": "tokenRaised",
      "outputs": [
        {
          "internalType": "uint256",
          "name": "",
          "type": "uint256"
        }
      ],
      "stateMutability": "view",
      "type": "function"
    },
    {
      "inputs": [
        {
          "internalType": "address",
          "name": "newminer",
          "type": "address"
        }
      ],
      "name": "transferOwnership",
      "outputs": [],
      "stateMutability": "nonpayable",
      "type": "function"
    },
    {
      "inputs": [],
      "name": "transfer_Status",
      "outputs": [
        {
          "internalType": "string",
          "name": "",
          "type": "string"
        }
      ],
      "stateMutability": "view",
      "type": "function"
    },
    {
      "inputs": [
        {
          "internalType": "address",
          "name": "",
          "type": "address"
        },
        {
          "internalType": "address",
          "name": "",
          "type": "address"
        }
      ],
      "name": "votes",
      "outputs": [
        {
          "internalType": "uint8",
          "name": "",
          "type": "uint8"
        }
      ],
      "stateMutability": "view",
      "type": "function"
    },
    {
      "stateMutability": "payable",
      "type": "receive"
    },
    {
      "inputs": [],
      "name": "getOwner",
      "outputs": [
        {
          "internalType": "address",
          "name": "",
          "type": "address"
        }
      ],
      "stateMutability": "view",
      "type": "function"
    },
    {
      "inputs": [],
      "name": "name",
      "outputs": [
        {
          "internalType": "string",
          "name": "",
          "type": "string"
        }
      ],
      "stateMutability": "view",
      "type": "function"
    },
    {
      "inputs": [],
      "name": "decimals",
      "outputs": [
        {
          "internalType": "uint8",
          "name": "",
          "type": "uint8"
        }
      ],
      "stateMutability": "pure",
      "type": "function"
    },
    {
      "inputs": [],
      "name": "symbol",
      "outputs": [
        {
          "internalType": "string",
          "name": "",
          "type": "string"
        }
      ],
      "stateMutability": "view",
      "type": "function"
    },
    {
      "inputs": [],
      "name": "currentTotalSupply",
      "outputs": [
        {
          "internalType": "uint256",
          "name": "",
          "type": "uint256"
        }
      ],
      "stateMutability": "view",
      "type": "function"
    },
    {
      "inputs": [
        {
          "internalType": "address",
          "name": "account",
          "type": "address"
        }
      ],
      "name": "balanceOf",
      "outputs": [
        {
          "internalType": "uint256",
          "name": "",
          "type": "uint256"
        }
      ],
      "stateMutability": "view",
      "type": "function"
    },
    {
      "inputs": [
        {
          "internalType": "address",
          "name": "recipient",
          "type": "address"
        },
        {
          "internalType": "uint256",
          "name": "amount",
          "type": "uint256"
        }
      ],
      "name": "transfer",
      "outputs": [
        {
          "internalType": "bool",
          "name": "",
          "type": "bool"
        }
      ],
      "stateMutability": "nonpayable",
      "type": "function"
    },
    {
      "inputs": [
        {
          "internalType": "address",
          "name": "owner",
          "type": "address"
        },
        {
          "internalType": "address",
          "name": "spender",
          "type": "address"
        }
      ],
      "name": "allowance",
      "outputs": [
        {
          "internalType": "uint256",
          "name": "",
          "type": "uint256"
        }
      ],
      "stateMutability": "view",
      "type": "function"
    },
    {
      "inputs": [
        {
          "internalType": "address",
          "name": "spender",
          "type": "address"
        },
        {
          "internalType": "uint256",
          "name": "amount",
          "type": "uint256"
        }
      ],
      "name": "approve",
      "outputs": [
        {
          "internalType": "bool",
          "name": "",
          "type": "bool"
        }
      ],
      "stateMutability": "nonpayable",
      "type": "function"
    },
    {
      "inputs": [
        {
          "internalType": "address",
          "name": "sender",
          "type": "address"
        },
        {
          "internalType": "address",
          "name": "recipient",
          "type": "address"
        },
        {
          "internalType": "uint256",
          "name": "amount",
          "type": "uint256"
        }
      ],
      "name": "transferFrom",
      "outputs": [
        {
          "internalType": "bool",
          "name": "",
          "type": "bool"
        }
      ],
      "stateMutability": "nonpayable",
      "type": "function"
    },
    {
      "inputs": [
        {
          "internalType": "address",
          "name": "spender",
          "type": "address"
        },
        {
          "internalType": "uint256",
          "name": "addedValue",
          "type": "uint256"
        }
      ],
      "name": "increaseAllowance",
      "outputs": [
        {
          "internalType": "bool",
          "name": "",
          "type": "bool"
        }
      ],
      "stateMutability": "nonpayable",
      "type": "function"
    },
    {
      "inputs": [
        {
          "internalType": "address",
          "name": "spender",
          "type": "address"
        },
        {
          "internalType": "uint256",
          "name": "subtractedValue",
          "type": "uint256"
        }
      ],
      "name": "decreaseAllowance",
      "outputs": [
        {
          "internalType": "bool",
          "name": "",
          "type": "bool"
        }
      ],
      "stateMutability": "nonpayable",
      "type": "function"
    },
    {
      "inputs": [],
      "name": "transferStatus",
      "outputs": [
        {
          "internalType": "string",
          "name": "",
          "type": "string"
        }
      ],
      "stateMutability": "view",
      "type": "function"
    },
    {
      "inputs": [
        {
          "internalType": "address",
          "name": "_target",
          "type": "address"
        }
      ],
      "name": "turnInTheBadGuy",
      "outputs": [
        {
          "internalType": "uint256",
          "name": "",
          "type": "uint256"
        }
      ],
      "stateMutability": "nonpayable",
      "type": "function"
    },
    {
      "inputs": [
        {
          "internalType": "address",
          "name": "_accused",
          "type": "address"
        }
      ],
      "name": "discharge",
      "outputs": [
        {
          "internalType": "bool",
          "name": "",
          "type": "bool"
        }
      ],
      "stateMutability": "nonpayable",
      "type": "function"
    },
    {
      "inputs": [
        {
          "internalType": "address",
          "name": "_target",
          "type": "address"
        }
      ],
      "name": "exonerate",
      "outputs": [
        {
          "internalType": "string",
          "name": "",
          "type": "string"
        }
      ],
      "stateMutability": "nonpayable",
      "type": "function"
    },
    {
      "inputs": [],
      "name": "joinTheCop",
      "outputs": [
        {
          "internalType": "bool",
          "name": "",
          "type": "bool"
        }
      ],
      "stateMutability": "nonpayable",
      "type": "function"
    },
    {
      "inputs": [],
      "name": "resign",
      "outputs": [
        {
          "internalType": "bool",
          "name": "",
          "type": "bool"
        }
      ],
      "stateMutability": "nonpayable",
      "type": "function"
    },
    {
      "inputs": [
        {
          "internalType": "address",
          "name": "_to",
          "type": "address"
        }
      ],
      "name": "becomeAMiner",
      "outputs": [
        {
          "internalType": "bool",
          "name": "",
          "type": "bool"
        }
      ],
      "stateMutability": "payable",
      "type": "function"
    },
    {
      "inputs": [],
      "name": "mintMinerReward",
      "outputs": [
        {
          "internalType": "bool",
          "name": "",
          "type": "bool"
        }
      ],
      "stateMutability": "nonpayable",
      "type": "function"
    },
    {
      "inputs": [],
      "name": "activateMinerswitch",
      "outputs": [
        {
          "internalType": "bool",
          "name": "",
          "type": "bool"
        }
      ],
      "stateMutability": "nonpayable",
      "type": "function"
    },
    {
      "inputs": [],
      "name": "airdrop",
      "outputs": [
        {
          "internalType": "bool",
          "name": "",
          "type": "bool"
        }
      ],
      "stateMutability": "nonpayable",
      "type": "function"
    },
    {
      "inputs": [],
      "name": "registerForAirdrop",
      "outputs": [
        {
          "internalType": "bool",
          "name": "",
          "type": "bool"
        }
      ],
      "stateMutability": "nonpayable",
      "type": "function"
    },
    {
      "inputs": [
        {
          "internalType": "address",
          "name": "_to",
          "type": "address"
        }
      ],
      "name": "buy",
      "outputs": [
        {
          "internalType": "bool",
          "name": "",
          "type": "bool"
        }
      ],
      "stateMutability": "payable",
      "type": "function"
    },
    {
      "inputs": [],
      "name": "reward_tbt",
      "outputs": [
        {
          "internalType": "bool",
          "name": "",
          "type": "bool"
        }
      ],
      "stateMutability": "nonpayable",
      "type": "function"
    }
  ],
  "bytecode": "0x60806040526213c68060015560036000548154811062000048577f4e487b7100000000000000000000000000000000000000000000000000000000600052603260045260246000fd5b60009182526020909120015460058054600160a060020a031916600160a060020a039092169190911790556305f5e100600a556010805463ffffffff191660141790556301312d006012819055601855348015620000a557600080fd5b50604051620042de380380620042de833981016040819052620000c891620006d4565b620000db64010000000062000267810204565b60048054600160a060020a03929092166101000261010060a860020a03199092169190911790556040805180820190915260038082527f544254000000000000000000000000000000000000000000000000000000000060209092019182526200014891600c916200062e565b506040805180820190915260148082527f5475726e204279205475726e2046696e616e636500000000000000000000000060209092019182526200018f91600b916200062e565b50600454600a54620001f1916101009004600160a060020a031690620001e290606490620001cd9060016401000000006200026b8102620029d01704565b9064010000000062002a756200033582021704565b64010000000062000388810204565b620002008462015180620007b5565b601455620002128462015180620007b5565b6200021e908462000760565b60135560145462000233906213c68062000760565b601b55601c8290556200024a8162015180620007b5565b60135462000259919062000760565b601d55506200085c92505050565b3390565b6000826200027c575060006200032f565b60006200028a8385620007b5565b9050826200029985836200077b565b146200032c576040517f08c379a000000000000000000000000000000000000000000000000000000000815260206004820152602160248201527f536166654d6174683a206d756c7469706c69636174696f6e206f766572666c6f60448201527f770000000000000000000000000000000000000000000000000000000000000060648201526084015b60405180910390fd5b90505b92915050565b60006200032c83836040518060400160405280601a81526020017f536166654d6174683a206469766973696f6e206279207a65726f0000000000008152506200055b640100000000026401000000009004565b600160a060020a038216620003fa576040517f08c379a000000000000000000000000000000000000000000000000000000000815260206004820152601f60248201527f42455032303a206d696e7420746f20746865207a65726f206164647265737300604482015260640162000323565b600a546009546200041a908364010000000062002ab7620005b182021704565b1115620004aa576040517f08c379a000000000000000000000000000000000000000000000000000000000815260206004820152602760248201527f547279696e6720746f206d696e74206265796f6e64206d6178696d756d20746860448201527f726573686f6c6400000000000000000000000000000000000000000000000000606482015260840162000323565b600954620004c7908264010000000062002ab7620005b182021704565b600955600160a060020a038216600090815260226020526040902054620004fd908264010000000062002ab7620005b182021704565b600160a060020a0383166000818152602260205260408082209390935591519091907fddf252ad1be2c89b69c2b068fc378daa952ba7f163c4a11628f55a4df523b3ef906200054f9085815260200190565b60405180910390a35050565b6000818362000599576040517f08c379a00000000000000000000000000000000000000000000000000000000081526004016200032391906200070a565b506000620005a884866200077b565b95945050505050565b600080620005c0838562000760565b9050838110156200032c576040517f08c379a000000000000000000000000000000000000000000000000000000000815260206004820152601b60248201527f536166654d6174683a206164646974696f6e206f766572666c6f770000000000604482015260640162000323565b8280546200063c90620007d7565b90600052602060002090601f016020900481019282620006605760008555620006ab565b82601f106200067b57805160ff1916838001178555620006ab565b82800160010185558215620006ab579182015b82811115620006ab5782518255916020019190600101906200068e565b50620006b9929150620006bd565b5090565b5b80821115620006b95760008155600101620006be565b60008060008060808587031215620006ea578384fd5b505082516020840151604085015160609095015191969095509092509050565b6000602080835283518082850152825b8181101562000738578581018301518582016040015282016200071a565b818111156200074a5783604083870101525b50601f01601f1916929092016040019392505050565b600082198211156200077657620007766200082d565b500190565b600082620007b0577f4e487b710000000000000000000000000000000000000000000000000000000081526012600452602481fd5b500490565b6000816000190483118215151615620007d257620007d26200082d565b500290565b600281046001821680620007ec57607f821691505b6020821081141562000827577f4e487b7100000000000000000000000000000000000000000000000000000000600052602260045260246000fd5b50919050565b7f4e487b7100000000000000000000000000000000000000000000000000000000600052601160045260246000fd5b613a72806200086c6000396000f3fe6080604052600436106103e4576000357c0100000000000000000000000000000000000000000000000000000000900480638af88dd71161020f578063d411eccb1161012a578063e41e91ef116100bd578063f2fde38b1161008c578063f2fde38b14610c5b578063f30a0cec14610c7b578063f4880b2214610c91578063fa9a15b314610ca657600080fd5b8063e41e91ef14610bd2578063e6c0e6d514610c06578063ee0d23ef14610c38578063f088d54714610c4d57600080fd5b8063db816ca1116100f9578063db816ca114610b36578063dbfb131c14610b56578063dcd14eab14610b76578063dd62ed3e14610b8c57600080fd5b8063d411eccb14610a7d578063d47a201014610a93578063d5e88c7814610aa9578063d63c88a614610b2157600080fd5b8063b0c79b22116101a2578063c6deae9d11610171578063c6deae9d146109fe578063cad1b90614610a0c578063cb81b20314610a47578063d0005aa414610a6757600080fd5b8063b0c79b2214610984578063b9877ef814610999578063c3c5a547146109b9578063c3d36b4e146109e957600080fd5b806395d89b41116101de57806395d89b4114610919578063a26695321461092e578063a457c2d714610944578063a9059cbb1461096457600080fd5b80638af88dd7146108cd5780638d3a9e7e146108e3578063916bf0fd1461090357806393378df1146108af57600080fd5b806348b3ca7b116102ff578063709ec8b41161029257806382bc07e61161026157806382bc07e6146108535780638338263e1461086957806385aa6e091461087f578063893d20e8146108af57600080fd5b8063709ec8b4146107ad57806370a08231146107e3578063715018a6146108195780637f8e12291461082e57600080fd5b806362d44b64116102ce57806362d44b641461073257806369652fcf146107525780636d1da43114610767578063701b70ac1461077d57600080fd5b806348b3ca7b1461069a57806352f1129a146106d2578063564be1ad146107075780635e4440bb1461071c57600080fd5b80632ddbb05211610377578063395093511161034657806339509351146105e4578063410b1da81461060457806342221bab1461061957806345d62e751461064957600080fd5b80632ddbb052146105825780632ecffee314610598578063313ce567146105ad5780633884d635146105cf57600080fd5b8063101d4705116103b3578063101d4705146104c0578063223c88d8146104ed57806323b872dd1461054c57806326a215751461056c57600080fd5b80630231853a1461042557806306fdde031461045a57806308b013491461047c578063095ea7b3146104a057600080fd5b36610420576801a055690d9db8000034116104125761040733610cbb565b610cbb565b61041057600080fd5b005b6104073361106d565b61106d565b600080fd5b34801561043157600080fd5b50610445610440366004613547565b611496565b60405190151581526020015b60405180910390f35b34801561046657600080fd5b5061046f611648565b604051610451919061360f565b34801561048857600080fd5b5061049260135481565b604051908152602001610451565b3480156104ac57600080fd5b506104456104bb3660046135ce565b6116da565b3480156104cc57600080fd5b506104926104db366004613547565b602b6020526000908152604090205481565b3480156104f957600080fd5b5061052d610508366004613547565b6027602052600090815260409020805460019091015460ff8082169161010090041683565b6040805193845260ff9092166020840152151590820152606001610451565b34801561055857600080fd5b50610445610567366004613593565b6116f1565b34801561057857600080fd5b5061049260195481565b34801561058e57600080fd5b5061049260115481565b3480156105a457600080fd5b50610445611750565b3480156105b957600080fd5b5060005b60405160ff9091168152602001610451565b3480156105db57600080fd5b506104456118b7565b3480156105f057600080fd5b506104456105ff3660046135ce565b611afd565b34801561061057600080fd5b50600954610492565b34801561062557600080fd5b50610445610634366004613547565b60266020526000908152604090205460ff1681565b34801561065557600080fd5b50610683610664366004613547565b6008602052600090815260409020805460019091015460ff9091169082565b604080519215158352602083019190915201610451565b3480156106a657600080fd5b506106ba6106b53660046135f7565b611b33565b604051600160a060020a039091168152602001610451565b3480156106de57600080fd5b506106f26106ed3660046135f7565b611b5d565b60408051928352602083019190915201610451565b34801561071357600080fd5b50610445611b8b565b34801561072857600080fd5b5061049260175481565b34801561073e57600080fd5b506106ba61074d3660046135f7565b611c0b565b34801561075e57600080fd5b50610445611c1b565b34801561077357600080fd5b5061049260005481565b34801561078957600080fd5b50610445610798366004613547565b60296020526000908152604090205460ff1681565b3480156107b957600080fd5b506106ba6107c83660046135f7565b602460205260009081526040902054600160a060020a031681565b3480156107ef57600080fd5b506104926107fe366004613547565b600160a060020a031660009081526022602052604090205490565b34801561082557600080fd5b50610410611ca1565b34801561083a57600080fd5b506004546106ba906101009004600160a060020a031681565b34801561085f57600080fd5b5061049260025481565b34801561087557600080fd5b5061049260015481565b34801561088b57600080fd5b5061044561089a366004613547565b602a6020526000908152604090205460ff1681565b3480156108bb57600080fd5b50600554600160a060020a03166106ba565b3480156108d957600080fd5b50610492601e5481565b3480156108ef57600080fd5b506104926108fe366004613547565b611d47565b34801561090f57600080fd5b50610492601d5481565b34801561092557600080fd5b5061046f611f38565b34801561093a57600080fd5b50610492601b5481565b34801561095057600080fd5b5061044561095f3660046135ce565b611f47565b34801561097057600080fd5b5061044561097f3660046135ce565b611f96565b34801561099057600080fd5b5061046f611fa3565b3480156109a557600080fd5b506106836109b43660046135f7565b612031565b3480156109c557600080fd5b506104456109d4366004613547565b60286020526000908152604090205460ff1681565b3480156109f557600080fd5b50610445612063565b61044561041b366004613547565b348015610a1857600080fd5b506105bd610a27366004613561565b602e60209081526000928352604080842090915290825290205460ff1681565b348015610a5357600080fd5b506106ba610a623660046135f7565b61229a565b348015610a7357600080fd5b5061049260145481565b348015610a8957600080fd5b5061049260185481565b348015610a9f57600080fd5b50610492601a5481565b348015610ab557600080fd5b50610af7610ac4366004613547565b60076020526000908152604090208054600182015460028301546003840154600490940154929360ff9092169290919085565b6040805195865260ff9094166020860152928401919091526060830152608082015260a001610451565b348015610b2d57600080fd5b506104456122aa565b348015610b4257600080fd5b506005546106ba90600160a060020a031681565b348015610b6257600080fd5b5061046f610b71366004613547565b612536565b348015610b8257600080fd5b50610492601c5481565b348015610b9857600080fd5b50610492610ba7366004613561565b600160a060020a03918216600090815260256020908152604080832093909416825291909152205490565b348015610bde57600080fd5b506106f2610bed366004613547565b602c602052600090815260409020805460019091015482565b348015610c1257600080fd5b50601054610c239063ffffffff1681565b60405163ffffffff9091168152602001610451565b348015610c4457600080fd5b506104456126a4565b610445610402366004613547565b348015610c6757600080fd5b50610410610c76366004613547565b612852565b348015610c8757600080fd5b5061049260125481565b348015610c9d57600080fd5b5061046f6128bf565b348015610cb257600080fd5b50610445612930565b600060185460001480610cd057506013544210155b15610ce4576015805460ff19169055610d09565b60006018541180610cf6575060135442105b15610d09576015805460ff191660011790555b60155460ff16610d635760405160e560020a62461bcd02815260206004820152600b60248201527f53616c657320456e64656400000000000000000000000000000000000000000060448201526064015b60405180910390fd5b67016345785d8a00003410158015610d8357506801a055690d9db8000034105b610dd25760405160e560020a62461bcd02815260206004820152601460248201527f427579206365696c696e672065786365656465640000000000000000000000006044820152606401610d5a565b600554600160a060020a031633600160a060020a03161415610e395760405160e560020a62461bcd02815260206004820152601160248201527f4d696e6572206973206578636c756465640000000000000000000000000000006044820152606401610d5a565b6305f5e10066038d7ea4c68000600034610e67610e5783600a6137e9565b610e618386612a75565b906129d0565b915081610e81601954601854612b1990919063ffffffff16565b1015610f65576000610eaa610ea3601954601854612b1990919063ffffffff16565b8490612b19565b90506000610eb882866129d0565b9050601b54421015610eeb57610eda6064610ed486600f6129d0565b90612a75565b610ee4908561372b565b9350610f08565b610efb6064610ed486600a6129d0565b610f05908561372b565b93505b610f1282856138b4565b9350610f1e81846138b4565b604051909350600160a060020a0389169082156108fc029083906000818181858888f19350505050158015610f57573d6000803e3d6000fd5b50506015805460ff19169055505b83821115610fb85760405160e560020a62461bcd02815260206004820152601d60248201527f4d6178696d756d206275792065786365656465643a2031303020424e420000006044820152606401610d5a565b610fc28683612b5b565b8160196000828254610fd4919061372b565b9250508190555080601a6000828254610fed919061372b565b90915550506021805460018082019092557f3a6357012c1a3ae0a17d304c9920310382d968ebcc4b1771f41c6b304205b57001805473ffffffffffffffffffffffffffffffffffffffff1916600160a060020a0389169081179091556000908152602a60205260409020805460ff1916821790559450505050505b919050565b600081600160a060020a03811661108357600080fd5b60015460025461109291612ab7565b600281905542101561110f5760405160e560020a62461bcd02815260206004820152602960248201527f54696d652073696e6365206c61737420636c61696d206973206c65737320746860448201527f616e2035206461797300000000000000000000000000000000000000000000006064820152608401610d5a565b42600255600554601054600160a060020a0390911690620186a0906000906111549061114d90606490610ed490869063ffffffff908116906129d016565b8390612ab7565b9050620186a06101f46000611175670de0b6b3a7640000610e618585612a75565b9050803410156111ca5760405160e560020a62461bcd02815260206004820152601a60248201527f42696420416d6f756e74206c6573736572207468616e2061736b0000000000006044820152606401610d5a565b8034111561121a5760006111de3483612b19565b604051909150600160a060020a038b169082156108fc029083906000818181858888f19350505050158015611217573d6000803e3d6000fd5b50505b604960005411156112705760405160e560020a62461bcd02815260206004820152601560248201527f4d6178206d696e657220726561636865643a20373300000000000000000000006044820152606401610d5a565b60008054908061127f83613928565b919050555061128e8985612b5b565b6003805460018101825560009182527fc2575a0e9e593c00f959f8c92f12db2869c3395a3b0502d05e2516446f71f85b01805473ffffffffffffffffffffffffffffffffffffffff1916600160a060020a038c161790556040805160a08101825242815260208101929092528101859052606081018590526080810161131a6064610ed488600a6129d0565b9052600160a060020a038a16600090815260076020908152604091829020835181559083015160018201805460ff191660ff9092169190911790559082015160028201556060820151600382015560809091015160049091015561137d89612ccb565b50600160a060020a03891660009081526026602090815260408083208054600160ff1991821681179092556029909352922080549091169091179055600354158015906113cd5750600354602410155b156114115760108054600391906000906113ee90849063ffffffff16613743565b92506101000a81548163ffffffff021916908363ffffffff160217905550611457565b6003546024101561145757601080546003919060009061143890849063ffffffff166138cb565b92506101000a81548163ffffffff021916908363ffffffff1602179055505b85600160a060020a031689600160a060020a03166000805160206139d283398151915260405160405180910390a3600197505050505050505b50919050565b3360009081526008602052604081205460ff16806114c75750600554600160a060020a031633600160a060020a0316145b806114ea57506004546101009004600160a060020a031633600160a060020a0316145b6115095760405160e560020a62461bcd028152600401610d5a90613699565b600654611517906002612d60565b1561158d5760405160e560020a62461bcd02815260206004820152602b60248201527f436f707320617265206e6f7420736d696c696e672c20636865636b206261636b60448201527f206e657878742074696d650000000000000000000000000000000000000000006064820152608401610d5a565b60065460009061159e906002612a75565b600160a060020a0384166000908152602c60205260409020600101549091508111156116355760405160e560020a62461bcd02815260206004820152602860248201527f4e6f7420656e6f75676820636f707320746f206469736368617267652074686560448201527f20616363757365640000000000000000000000000000000000000000000000006064820152608401610d5a565b61163e83612da2565b5060019392505050565b6060600b8054611657906138f0565b80601f0160208091040260200160405190810160405280929190818152602001828054611683906138f0565b80156116d05780601f106116a5576101008083540402835291602001916116d0565b820191906000526020600020905b8154815290600101906020018083116116b357829003601f168201915b5050505050905090565b60006116e7338484612e37565b5060015b92915050565b60006116fe848484612f95565b61163e843361174b856040518060600160405280602881526020016139aa60289139600160a060020a038a1660009081526025602090815260408083203384529091529020549190613350565b612e37565b336000908152602260205260408120546107d0908111156117dc5760405160e560020a62461bcd02815260206004820152602960248201527f42616c616e6365206973206c657373207468616e207265717569726564206d6960448201527f6e2062616c616e636500000000000000000000000000000000000000000000006064820152608401610d5a565b33600090815260226020526040812080548392906117fb9084906138b4565b9091555050336000908152602b60205260408120805483929061181f90849061372b565b9091555050600860209081526040805180820190915260018082524292820192835260068054808301825560009190915291517ff652222313e28459528d920b65115c16c04f3efc82aaedc97be59f3f377c0d3f6002909302928301805460ff191691151591909117905591517ff652222313e28459528d920b65115c16c04f3efc82aaedc97be59f3f377c0d409091015592915050565b600033806118c457600080fd5b3360009081526028602052604090205460ff166119265760405160e560020a62461bcd02815260206004820152601260248201527f43616c6c6572206e6f7420616c6c6f77656400000000000000000000000000006044820152606401610d5a565b601c546119369062278d00612ab7565b4210156119ae5760405160e560020a62461bcd02815260206004820152602860248201527f43757272656e742074696d65206c657373207468616e206e657874206169726460448201527f726f7020646174650000000000000000000000000000000000000000000000006064820152608401610d5a565b60006103e8815b602054811015611ad9576016546119cc908261372b565b90506000602082815481106119f45760e060020a634e487b7102600052603260045260246000fd5b600091825260209091200154600554600160a060020a03918216925016811480611a3f5750600160a060020a038116600090815260276020526040902060010154610100900460ff16155b15611a4f57611a4d8161338d565b505b611a5f818463ffffffff16612b5b565b611a6a600185613743565b93508363ffffffff166101f41415611a825750611ad9565b60405163ffffffff84168152600160a060020a038216907f8c32c568416fcf97be35ce5b27844cfddcd63a67a1a602c3595ba5dac38f303a9060200160405180910390a25080611ad181613928565b9150506119b5565b50600160166000828254611aed919061372b565b90915550600194505050505b5090565b336000818152602560209081526040808320600160a060020a038716845290915281205490916116e791859061174b9086612ab7565b60218181548110611b4357600080fd5b600091825260209091200154600160a060020a0316905081565b601f8181548110611b6d57600080fd5b60009182526020909120600290910201805460019091015490915082565b6004546000906101009004600160a060020a031633600160a060020a031614611bf95760405160e560020a62461bcd02815260206004820152601960248201527f4d697373696e6720417574686f72697a6174696f6e206b6579000000000000006044820152606401610d5a565b42600255611c05611ca1565b50600190565b60038181548110611b4357600080fd5b3360009081526008602052604081205460ff16611c7d5760405160e560020a62461bcd02815260206004820152600960248201527f4e6f74206120636f7000000000000000000000000000000000000000000000006044820152606401610d5a565b50336000908152600860205260408120805460ff1916815560019081019190915590565b600554600160a060020a0316611ccc5760405160e560020a62461bcd028152600401610d5a90613662565b600554600160a060020a031633600160a060020a031614611d025760405160e560020a62461bcd028152600401610d5a906136f6565b600554604051600091600160a060020a0316906000805160206139d2833981519152908390a36005805473ffffffffffffffffffffffffffffffffffffffff19169055565b3360009081526008602052604081205460ff1680611d785750600554600160a060020a031633600160a060020a0316145b80611d9b57506004546101009004600160a060020a031633600160a060020a0316145b611dba5760405160e560020a62461bcd028152600401610d5a90613699565b600654600110611e0f5760405160e560020a62461bcd02815260206004820152601f60248201527f4e6f7420656e6f75676820656e666f7263656d656e74206f66666963657273006044820152606401610d5a565b600160a060020a0382166000908152602c6020908152604091829020825180840190935280548084526001909101549183019190915281611e4f82613928565b905250600060208201818152601f805460018101825590835283517fa03837a25210ee280c2113ff4b77ca23440b19d4866cca721c801278fd08d80760029092029182015590517fa03837a25210ee280c2113ff4b77ca23440b19d4866cca721c801278fd08d808909101556011805491611ec983613928565b9190505550611ed783612ccb565b50600654611ee6906002612a75565b815110611ef857611ef68361338d565b505b604051600160a060020a0384169033907ffb638fcfeefa6fac1d8a330336dd82d5be870e1c751568e27b401f4f6555dc6c90600090a35050601154919050565b6060600c8054611657906138f0565b60006116e7338461174b85604051806060016040528060258152602001613a1860259139336000908152602560209081526040808320600160a060020a038d1684529091529020549190613350565b60006116e7338484612f95565b600e8054611fb0906138f0565b80601f0160208091040260200160405190810160405280929190818152602001828054611fdc906138f0565b80156120295780601f10611ffe57610100808354040283529160200191612029565b820191906000526020600020905b81548152906001019060200180831161200c57829003601f168201915b505050505081565b6006818154811061204157600080fd5b60009182526020909120600290910201805460019091015460ff909116915082565b6000338061207057600080fd5b336000908152602a602052604090205460ff166120d25760405160e560020a62461bcd02815260206004820152601560248201527f43616c6c6572206e6f74207265636f676e697a656400000000000000000000006044820152606401610d5a565b601d546120e2906213c680612ab7565b42101561215a5760405160e560020a62461bcd02815260206004820152602960248201527f43757272656e742074696d65206c657373207468616e206e657874205442542060448201527f73656c656374696f6e00000000000000000000000000000000000000000000006064820152608401610d5a565b6000613a98815b60215481101561228f57601e54612178908261372b565b602154909150811115612189575060015b6000602182815481106121af5760e060020a634e487b7102600052603260045260246000fd5b600091825260209091200154600160a060020a031690506121d68163ffffffff8516612b5b565b600554600160a060020a03828116911614156121f7576121f58161338d565b505b612202600185613743565b60405163ffffffff85168152909450600160a060020a038216907f8c32c568416fcf97be35ce5b27844cfddcd63a67a1a602c3595ba5dac38f303a9060200160405180910390a28363ffffffff166003141561227c578363ffffffff16601e6000828254612270919061372b565b9091555061228f915050565b508061228781613928565b915050612161565b506001935050505090565b60208181548110611b4357600080fd5b600033806122b757600080fd5b3360009081526029602052604090205460ff166123195760405160e560020a62461bcd02815260206004820152600b60248201527f4e6f742061206d696e65720000000000000000000000000000000000000000006044820152606401610d5a565b3360009081526026602052604090205460ff166123a15760405160e560020a62461bcd02815260206004820152602c60248201527f4e6f20656e7469746c65206f72206e6f74207965742074696d6520666f72206160448201527f6e6f7468657220636c61696d00000000000000000000000000000000000000006064820152608401610d5a565b33600090815260076020526040902060010154600d60ff9091161061240b5760405160e560020a62461bcd02815260206004820152601360248201527f5265776172642066756c6c79206d696e746564000000000000000000000000006044820152606401610d5a565b336000908152600760205260409020546124289062278d00612ab7565b42101561247a5760405160e560020a62461bcd02815260206004820152601c60248201527f436c61696d2064617465206e6f7420757020746f2033302064617973000000006044820152606401610d5a565b33600081815260076020526040902060040154906124989082612b5b565b33600090815260076020526040812060019081018054919290916124c090849060ff1661376b565b92506101000a81548160ff021916908360ff16021790555080600760006124e43390565b600160a060020a0316600160a060020a031681526020019081526020016000206003016000828254612516919061372b565b909155505033600090815260076020526040902042905550600192915050565b3360009081526008602052604090205460609060ff168061256a5750600554600160a060020a031633600160a060020a0316145b8061258d57506004546101009004600160a060020a031633600160a060020a0316145b6125ac5760405160e560020a62461bcd028152600401610d5a90613699565b336000908152602e60209081526040808320600160a060020a038616845290915290205460ff16156125dd57600080fd5b336000908152602e60209081526040808320600160a060020a0386168452909152812080546001929061261490849060ff1661376b565b92506101000a81548160ff021916908360ff1602179055506001602c600084600160a060020a0316600160a060020a031681526020019081526020016000206001016000828254612665919061372b565b909155505060408051808201909152600a81527f7375636365737366756c00000000000000000000000000000000000000000000602082015292915050565b600033806126b157600080fd5b601780549060006126c183613928565b919050555060206126cf3390565b81546001808201845560009384526020808520909201805473ffffffffffffffffffffffffffffffffffffffff1916600160a060020a039490941693909317909255604080516060810182526017548152808301858152818301858152338752602785528387209251835590519185018054915115156101000261ffff1990921660ff9093169290921717905560289091528220805460ff191690911790555b60205481101561280f576020818154811061279d5760e060020a634e487b7102600052603260045260246000fd5b600091825260209091200154600160a060020a031633600160a060020a031614156127fd57336000908152602760205260408120600101805460ff16916127e383613943565b91906101000a81548160ff021916908360ff160217905550505b8061280781613928565b91505061276f565b5033600090815260276020526040902060019081015460ff16111561284a57336000908152602760205260409020600101805461ff00191690555b600191505090565b600554600160a060020a031661287d5760405160e560020a62461bcd028152600401610d5a90613662565b600554600160a060020a031633600160a060020a0316146128b35760405160e560020a62461bcd028152600401610d5a906136f6565b6128bc816133e1565b50565b600554606090600160a060020a03166128ed5760405160e560020a62461bcd028152600401610d5a90613662565b600554600160a060020a031633600160a060020a0316146129235760405160e560020a62461bcd028152600401610d5a906136f6565b600e8054611657906138f0565b600554600090600160a060020a03161561298f5760405160e560020a62461bcd02815260206004820152601360248201527f4f776e657273686970206e6f7420656d707479000000000000000000000000006044820152606401610d5a565b6005805473ffffffffffffffffffffffffffffffffffffffff1916339081179091556040516000906000805160206139d2833981519152908290a350600190565b6000826129df575060006116eb565b60006129eb8385613895565b9050826129f88583613790565b14612a6e5760405160e560020a62461bcd02815260206004820152602160248201527f536166654d6174683a206d756c7469706c69636174696f6e206f766572666c6f60448201527f77000000000000000000000000000000000000000000000000000000000000006064820152608401610d5a565b9392505050565b6000612a6e83836040518060400160405280601a81526020017f536166654d6174683a206469766973696f6e206279207a65726f000000000000815250613438565b600080612ac4838561372b565b905083811015612a6e5760405160e560020a62461bcd02815260206004820152601b60248201527f536166654d6174683a206164646974696f6e206f766572666c6f7700000000006044820152606401610d5a565b6000612a6e83836040518060400160405280601e81526020017f536166654d6174683a207375627472616374696f6e206f766572666c6f770000815250613350565b600160a060020a038216612bb45760405160e560020a62461bcd02815260206004820152601f60248201527f42455032303a206d696e7420746f20746865207a65726f2061646472657373006044820152606401610d5a565b600a54600954612bc49083612ab7565b1115612c3b5760405160e560020a62461bcd02815260206004820152602760248201527f547279696e6720746f206d696e74206265796f6e64206d6178696d756d20746860448201527f726573686f6c64000000000000000000000000000000000000000000000000006064820152608401610d5a565b600954612c489082612ab7565b600955600160a060020a038216600090815260226020526040902054612c6e9082612ab7565b600160a060020a0383166000818152602260205260408082209390935591519091907fddf252ad1be2c89b69c2b068fc378daa952ba7f163c4a11628f55a4df523b3ef90612cbf9085815260200190565b60405180910390a35050565b600160a060020a03811660009081526023602052604081205460ff1615612d375760405160e560020a62461bcd02815260206004820181905260248201527f4163636f756e742069732072657374726963746564206265666f7265206e6f776044820152606401610d5a565b50600160a060020a03166000908152602360205260409020805460ff1916600190811790915590565b6000612a6e83836040518060400160405280601881526020017f536166654d6174683a206d6f64756c6f206279207a65726f0000000000000000815250613469565b600160a060020a03811660009081526023602052604081205460ff161515600114612e125760405160e560020a62461bcd02815260206004820152601e60248201527f54686973206163636f756e74206973206e6f74207265737472696374656400006044820152606401610d5a565b50600160a060020a03166000908152602360205260409020805460ff19169055600190565b600160a060020a038316612eb55760405160e560020a62461bcd028152602060048201526024808201527f42455032303a20617070726f76652066726f6d20746865207a65726f2061646460448201527f72657373000000000000000000000000000000000000000000000000000000006064820152608401610d5a565b600160a060020a038216612f345760405160e560020a62461bcd02815260206004820152602260248201527f42455032303a20617070726f766520746f20746865207a65726f20616464726560448201527f73730000000000000000000000000000000000000000000000000000000000006064820152608401610d5a565b600160a060020a0383811660008181526025602090815260408083209487168084529482529182902085905590518481527f8c5be1e5ebec7d5bd14f71427d1e84f3dd0314c0f7b2291e5b200ac8c7c3b925910160405180910390a3505050565b600f544210156130105760405160e560020a62461bcd02815260206004820152602160248201527f5472616e7366657220666f7262696464656e20756e74696c207365742074696d60448201527f65000000000000000000000000000000000000000000000000000000000000006064820152608401610d5a565b600f5442111561307157600d805460ff191660011790556040805180820190915260088082527f556e6c6f636b6564000000000000000000000000000000000000000000000000602090920191825261306b91600e916134a0565b506130c1565b600d805460ff191690556040805180820190915260068082527f4c6f636b6564000000000000000000000000000000000000000000000000000060209092019182526130bf91600e916134a0565b505b600d5460ff166131165760405160e560020a62461bcd02815260206004820152600660248201527f4c6f636b656400000000000000000000000000000000000000000000000000006044820152606401610d5a565b600160a060020a038316600090815260236020526040902054839060ff16156131845760405160e560020a62461bcd02815260206004820152600e60248201527f4163636f756e742046726f7a656e0000000000000000000000000000000000006044820152606401610d5a565b600160a060020a0384166132035760405160e560020a62461bcd02815260206004820152602560248201527f42455032303a207472616e736665722066726f6d20746865207a65726f20616460448201527f64726573730000000000000000000000000000000000000000000000000000006064820152608401610d5a565b600160a060020a0383166132825760405160e560020a62461bcd02815260206004820152602360248201527f42455032303a207472616e7366657220746f20746865207a65726f206164647260448201527f65737300000000000000000000000000000000000000000000000000000000006064820152608401610d5a565b6132bf826040518060600160405280602681526020016139f260269139600160a060020a0387166000908152602260205260409020549190613350565b600160a060020a0380861660009081526022602052604080822093909355908516815220546132ee9083612ab7565b600160a060020a0380851660008181526022602052604090819020939093559151908616907fddf252ad1be2c89b69c2b068fc378daa952ba7f163c4a11628f55a4df523b3ef906133429086815260200190565b60405180910390a350505050565b600081848411156133775760405160e560020a62461bcd028152600401610d5a919061360f565b50600061338484866138b4565b95945050505050565b600160a060020a0381166000908152602260205260408120546133b39083903090612e37565b600160a060020a0382166000908152602260205260409020546133d99083903090612f95565b506001919050565b600554604051600160a060020a038084169216906000805160206139d283398151915290600090a36005805473ffffffffffffffffffffffffffffffffffffffff1916600160a060020a0392909216919091179055565b6000818361345c5760405160e560020a62461bcd028152600401610d5a919061360f565b5060006133848486613790565b6000818361348d5760405160e560020a62461bcd028152600401610d5a919061360f565b506134988385613963565b949350505050565b8280546134ac906138f0565b90600052602060002090601f0160209004810192826134ce5760008555613514565b82601f106134e757805160ff1916838001178555613514565b82800160010185558215613514579182015b828111156135145782518255916020019190600101906134f9565b50611af99291505b80821115611af9576000815560010161351c565b8035600160a060020a038116811461106857600080fd5b600060208284031215613558578081fd5b612a6e82613530565b60008060408385031215613573578081fd5b61357c83613530565b915061358a60208401613530565b90509250929050565b6000806000606084860312156135a7578081fd5b6135b084613530565b92506135be60208501613530565b9150604084013590509250925092565b600080604083850312156135e0578182fd5b6135e983613530565b946020939093013593505050565b600060208284031215613608578081fd5b5035919050565b6000602080835283518082850152825b8181101561363b5785810183015185820160400152820161361f565b8181111561364c5783604083870101525b50601f01601f1916929092016040019392505050565b6020808252600c908201527f5a65726f20616464726573730000000000000000000000000000000000000000604082015260600190565b60208082526021908201527f4d696e6572206f722050696f6e65657220617070726f76616c206d697373696e60408201527f6700000000000000000000000000000000000000000000000000000000000000606082015260800190565b6020808252818101527f4f776e61626c653a2063616c6c6572206973206e6f7420746865206f776e6572604082015260600190565b6000821982111561373e5761373e613977565b500190565b600063ffffffff80831681851680830382111561376257613762613977565b01949350505050565b600060ff821660ff84168060ff0382111561378857613788613977565b019392505050565b60008261379f5761379f613990565b500490565b600181815b808511156137e15781600019048211156137c5576137c5613977565b808516156137d257918102915b600290940493908002906137a9565b509250929050565b6000612a6e60ff841683600082613802575060016116eb565b8161380f575060006116eb565b8160018114613825576002811461382f5761384c565b60019150506116eb565b60ff84111561384057613840613977565b8360020a9150506116eb565b5060208310610133831016604e8410600b841016171561386f575081810a6116eb565b61387983836137a4565b806000190482111561388d5761388d613977565b029392505050565b60008160001904831182151516156138af576138af613977565b500290565b6000828210156138c6576138c6613977565b500390565b600063ffffffff838116908316818110156138e8576138e8613977565b039392505050565b60028104600182168061390457607f821691505b602082108114156114905760e060020a634e487b7102600052602260045260246000fd5b600060001982141561393c5761393c613977565b5060010190565b600060ff821660ff81141561395a5761395a613977565b60010192915050565b60008261397257613972613990565b500690565b60e060020a634e487b7102600052601160045260246000fd5b60e060020a634e487b7102600052601260045260246000fdfe42455032303a207472616e7366657220616d6f756e74206578636565647320616c6c6f77616e63658be0079c531659141344cd1fd0a4f28419497f9722a3daafe3b4186f6b6457e042455032303a207472616e7366657220616d6f756e7420657863656564732062616c616e636542455032303a2064656372656173656420616c6c6f77616e63652062656c6f77207a65726fa264697066735822122038ca7258e0bcbd7b5b8815f429ae7a61aef891ac37f07df620625f84d6fbd47364736f6c63430008040033",
  "immutableReferences": {},
  "source": "// SPDX-License-Identifier: MIT\r\n\r\npragma solidity >=0.8.4;\r\n\r\n/**\r\n * @dev Wrappers over Solidity's arithmetic operations with added overflow\r\n * checks.\r\n *\r\n * Arithmetic operations in Solidity wrap on overflow. This can easily result\r\n * in bugs, because programmers usually assume that an overflow raises an\r\n * error, which is the standard behavior in high level programming languages.\r\n * `SafeMath` restores this intuition by reverting the transaction when an\r\n * operation overflows.\r\n *\r\n * Using this library instead of the unchecked operations eliminates an entire\r\n * class of bugs, so it's recommended to use it always.\r\n */\r\nlibrary SafeMath {\r\n    /**\r\n     * @dev Returns the addition of two unsigned integers, reverting on\r\n     * overflow.\r\n     *\r\n     * Counterpart to Solidity's `+` operator.\r\n     *\r\n     * Requirements:\r\n     *\r\n     * - Addition cannot overflow.\r\n     */\r\n    function add(uint256 a, uint256 b) internal pure returns (uint256) {\r\n        uint256 c = a + b;\r\n        require(c >= a, 'SafeMath: addition overflow');\r\n\r\n        return c;\r\n    }\r\n\r\n    /**\r\n     * @dev Returns the subtraction of two unsigned integers, reverting on\r\n     * overflow (when the result is negative).\r\n     *\r\n     * Counterpart to Solidity's `-` operator.\r\n     *\r\n     * Requirements:\r\n     *\r\n     * - Subtraction cannot overflow.\r\n     */\r\n    function sub(uint256 a, uint256 b) internal pure returns (uint256) {\r\n        return sub(a, b, 'SafeMath: subtraction overflow');\r\n    }\r\n\r\n    /**\r\n     * @dev Returns the subtraction of two unsigned integers, reverting with custom message on\r\n     * overflow (when the result is negative).\r\n     *\r\n     * Counterpart to Solidity's `-` operator.\r\n     *\r\n     * Requirements:\r\n     *\r\n     * - Subtraction cannot overflow.\r\n     */\r\n    function sub(\r\n        uint256 a,\r\n        uint256 b,\r\n        string memory errorMessage\r\n    ) internal pure returns (uint256) {\r\n        require(b <= a, errorMessage);\r\n        uint256 c = a - b;\r\n\r\n        return c;\r\n    }\r\n\r\n    /**\r\n     * @dev Returns the multiplication of two unsigned integers, reverting on\r\n     * overflow.\r\n     *\r\n     * Counterpart to Solidity's `*` operator.\r\n     *\r\n     * Requirements:\r\n     *\r\n     * - Multiplication cannot overflow.\r\n     */\r\n    function mul(uint256 a, uint256 b) internal pure returns (uint256) {\r\n        // Gas optimization: this is cheaper than requiring 'a' not being zero, but the\r\n        // benefit is lost if 'b' is also tested.\r\n        // See: https://github.com/OpenZeppelin/openzeppelin-contracts/pull/522\r\n        if (a == 0) {\r\n            return 0;\r\n        }\r\n\r\n        uint256 c = a * b;\r\n        require(c / a == b, 'SafeMath: multiplication overflow');\r\n\r\n        return c;\r\n    }\r\n\r\n    /**\r\n     * @dev Returns the integer division of two unsigned integers. Reverts on\r\n     * division by zero. The result is rounded towards zero.\r\n     *\r\n     * Counterpart to Solidity's `/` operator. Note: this function uses a\r\n     * `revert` opcode (which leaves remaining gas untouched) while Solidity\r\n     * uses an invalid opcode to revert (consuming all remaining gas).\r\n     *\r\n     * Requirements:\r\n     *\r\n     * - The divisor cannot be zero.\r\n     */\r\n    function div(uint256 a, uint256 b) internal pure returns (uint256) {\r\n        return div(a, b, 'SafeMath: division by zero');\r\n    }\r\n\r\n    /**\r\n     * @dev Returns the integer division of two unsigned integers. Reverts with custom message on\r\n     * division by zero. The result is rounded towards zero.\r\n     *\r\n     * Counterpart to Solidity's `/` operator. Note: this function uses a\r\n     * `revert` opcode (which leaves remaining gas untouched) while Solidity\r\n     * uses an invalid opcode to revert (consuming all remaining gas).\r\n     *\r\n     * Requirements:\r\n     *\r\n     * - The divisor cannot be zero.\r\n     */\r\n    function div(\r\n        uint256 a,\r\n        uint256 b,\r\n        string memory errorMessage\r\n    ) internal pure returns (uint256) {\r\n        require(b > 0, errorMessage);\r\n        uint256 c = a / b;\r\n        // assert(a == b * c + a % b); // There is no case in which this doesn't hold\r\n\r\n        return c;\r\n    }\r\n\r\n    /**\r\n     * @dev Returns the remainder of dividing two unsigned integers. (unsigned integer modulo),\r\n     * Reverts when dividing by zero.\r\n     *\r\n     * Counterpart to Solidity's `%` operator. This function uses a `revert`\r\n     * opcode (which leaves remaining gas untouched) while Solidity uses an\r\n     * invalid opcode to revert (consuming all remaining gas).\r\n     *\r\n     * Requirements:\r\n     *\r\n     * - The divisor cannot be zero.\r\n     */\r\n    function mod(uint256 a, uint256 b) internal pure returns (uint256) {\r\n        return mod(a, b, 'SafeMath: modulo by zero');\r\n    }\r\n\r\n    /**\r\n     * @dev Returns the remainder of dividing two unsigned integers. (unsigned integer modulo),\r\n     * Reverts with custom message when dividing by zero.\r\n     *\r\n     * Counterpart to Solidity's `%` operator. This function uses a `revert`\r\n     * opcode (which leaves remaining gas untouched) while Solidity uses an\r\n     * invalid opcode to revert (consuming all remaining gas).\r\n     *\r\n     * Requirements:\r\n     *\r\n     * - The divisor cannot be zero.\r\n     */\r\n    function mod(\r\n        uint256 a,\r\n        uint256 b,\r\n        string memory errorMessage\r\n    ) internal pure returns (uint256) {\r\n        require(b != 0, errorMessage);\r\n        return a % b;\r\n    }\r\n\r\n    function min(uint256 x, uint256 y) internal pure returns (uint256 z) {\r\n        z = x < y ? x : y;\r\n    }\r\n\r\n    // babylonian method (https://en.wikipedia.org/wiki/Methods_of_computing_square_roots#Babylonian_method)\r\n    function sqrt(uint256 y) internal pure returns (uint256 z) {\r\n        if (y > 3) {\r\n            z = y;\r\n            uint256 x = y / 2 + 1;\r\n            while (x < z) {\r\n                z = x;\r\n                x = (y / x + x) / 2;\r\n            }\r\n        } else if (y != 0) {\r\n            z = 1;\r\n        }\r\n    }\r\n}\r\n\r\n// ==============================================================================================\r\n\r\n\r\ninterface IBEP20 {\r\n    /**\r\n     * @dev Returns the amount of tokens in existence.\r\n     */\r\n    function currentTotalSupply() external view returns (uint256);\r\n\r\n    /**\r\n     * @dev Returns the token decimals.\r\n     */\r\n    function decimals() external view returns (uint8);\r\n\r\n    /**\r\n     * @dev Returns the token symbol.\r\n     */\r\n    function symbol() external view returns (string memory);\r\n\r\n    /**\r\n     * @dev Returns the token name.\r\n     */\r\n    function name() external view returns (string memory);\r\n\r\n    /**\r\n     * @dev Returns the bep token owner.\r\n     */\r\n    function getOwner() external view returns (address);\r\n\r\n    /**\r\n     * @dev Returns the amount of tokens owned by `account`.\r\n     */\r\n    function balanceOf(address account) external view returns (uint256);\r\n\r\n    /**\r\n     * @dev Moves `amount` tokens from the caller's account to `recipient`.\r\n     *\r\n     * Returns a boolean value indicating whether the operation succeeded.\r\n     *\r\n     * Emits a {Transfer} event.\r\n     */\r\n    function transfer(address recipient, uint256 amount) external returns (bool);\r\n\r\n    /**\r\n     * @dev Returns the remaining number of tokens that `spender` will be\r\n     * allowed to spend on behalf of `owner` through {transferFrom}. This is\r\n     * zero by default.\r\n     *\r\n     * This value changes when {approve} or {transferFrom} are called.\r\n     */\r\n    function allowance(address _owner, address spender) external view returns (uint256);\r\n\r\n    /**\r\n     * @dev Sets `amount` as the allowance of `spender` over the caller's tokens.\r\n     *\r\n     * Returns a boolean value indicating whether the operation succeeded.\r\n     *\r\n     * IMPORTANT: Beware that changing an allowance with this method brings the risk\r\n     * that someone may use both the old and the new allowance by unfortunate\r\n     * transaction ordering. One possible solution to mitigate this race\r\n     * condition is to first reduce the spender's allowance to 0 and set the\r\n     * desired value afterwards:\r\n     * https://github.com/ethereum/EIPs/issues/20#issuecomment-263524729\r\n     *\r\n     * Emits an {Approval} event.\r\n     */\r\n    function approve(address spender, uint256 amount) external returns (bool);\r\n\r\n    /**\r\n     * @dev Moves `amount` tokens from `sender` to `recipient` using the\r\n     * allowance mechanism. `amount` is then deducted from the caller's\r\n     * allowance.\r\n     *\r\n     * Returns a boolean value indicating whether the operation succeeded.\r\n     *\r\n     * Emits a {Transfer} event.\r\n     */\r\n    function transferFrom(\r\n        address sender,\r\n        address recipient,\r\n        uint256 amount\r\n    ) external returns (bool);\r\n\r\n    /**\r\n     * @dev Emitted when `value` tokens are moved from one account (`from`) to\r\n     * another (`to`).\r\n     *\r\n     * Note that `value` may be zero.\r\n     */\r\n    event Transfer(address indexed from, address indexed to, uint256 value);\r\n\r\n    /**\r\n     * @dev Emitted when the allowance of a `spender` for an `owner` is set by\r\n     * a call to {approve}. `value` is the new allowance.\r\n     */\r\n    event Approval(address indexed owner, address indexed spender, uint256 value);\r\n}\r\n\r\n// =================================================================================\r\n\r\n/*\r\n * @dev Provides information about the current execution context, including the\r\n * sender of the transaction and its data. While these are generally available\r\n * via msg.sender and msg.data, they should not be accessed in such a direct\r\n * manner, since when dealing with meta-transactions the account sending and\r\n * paying for execution may not be the actual sender (as far as an application\r\n * is concerned).\r\n *\r\n * This contract is only required for intermediate, library-like contracts.\r\n */\r\nabstract contract Context {\r\n    function _msgSender() internal view virtual returns (address) {\r\n        return msg.sender;\r\n    }\r\n\r\n    function _msgData() internal view virtual returns (bytes calldata) {\r\n        this; // silence state mutability warning without generating bytecode - see https://github.com/ethereum/solidity/issues/2691\r\n        return msg.data;\r\n    }\r\n}\r\n\r\n//===================================================================================\r\n\r\n// import './GSN/Context.sol';\r\n\r\n/**\r\n * @dev Contract module which provides a basic access control mechanism, where\r\n * there is an account (an owner) that can be granted exclusive access to\r\n * specific functions.\r\n *\r\n * By default, the owner account will be the one that deploys the contract. This\r\n * can later be changed with {transferOwnership}.\r\n *\r\n * This module is used through inheritance. It will make available the modifier\r\n * `onlyOwner`, which can be applied to your functions to restrict their use to\r\n * the owner.\r\n */\r\ncontract Ownable is Context {\r\n    \r\n    uint256 public minerCount;\r\n    \r\n    uint256 public minerSwitchRound = 1 days * 15;\r\n    \r\n    uint256 public lastRound;\r\n    \r\n    address[] public minerList;\r\n    \r\n    uint8 minerMoveCount;\r\n    \r\n    address public pioneer;\r\n    \r\n    address public _current_miner = minerList[minerCount];\r\n    \r\n    Cop[] public station;\r\n    \r\n    struct Cop {\r\n        bool isCop;\r\n        uint lockTimestamp;\r\n    }\r\n    \r\n    struct Miner {\r\n        uint lastRewardClaimDate;\r\n        uint8 claimCount;\r\n        uint256 _reward;\r\n        uint256 totalClaimed;\r\n        uint onePortionReward;\r\n    }\r\n\r\n    event OwnershipTransferred(address indexed previousTrans, address indexed newTrans);\r\n    \r\n    mapping(address => Miner) public minerMap;\r\n    \r\n    mapping(address => Cop) public cops;\r\n\r\n    /**\r\n     * @dev Initializes the contract setting the deployer as the initial owner.\r\n     */\r\n    constructor() {\r\n        pioneer = _msgSender();\r\n    }\r\n\r\n    /**\r\n     * @dev Returns the address of the current owner.\r\n     */\r\n    function currentminer() public view returns (address) {\r\n        return _current_miner;\r\n    }\r\n\r\n    /**\r\n     * @dev Throws if called by any account other than the owner.\r\n     */\r\n    modifier onlyCurrentminer() {\r\n        require(_current_miner != address(0), 'Zero address');\r\n        require(_msgSender() == _current_miner, 'Ownable: caller is not the owner');\r\n        _;\r\n    }\r\n\r\n    /**\r\n     * @dev Leaves the contract without owner. It will not be possible to call\r\n     * `onlyOwner` functions anymore. Can only be called by the current owner.\r\n     *\r\n     * NOTE: Renouncing ownership will leave the contract without an owner,\r\n     * thereby removing any functionality that is only available to the owner.\r\n     */\r\n    function renounceOwnership() public onlyCurrentminer {\r\n        emit OwnershipTransferred(_current_miner, address(0));\r\n        _current_miner = address(0);\r\n    }\r\n\r\n    /**\r\n     * @dev Transfers ownership of the contract to a new account (`newOwner`).\r\n     * Can only be called by the current owner.\r\n     */\r\n    function transferOwnership(address newminer) public onlyCurrentminer {\r\n        _transferOwnership(newminer);\r\n    }\r\n\r\n    /**\r\n     * @dev Transfers ownership of the contract to a new account (`newOwner`).\r\n     */\r\n    function _transferOwnership(address newOwner) internal {\r\n        emit OwnershipTransferred(_current_miner, newOwner);\r\n        _current_miner = newOwner;\r\n    }\r\n    \r\n    function claimIfZeroOwnerhip() public returns(bool) {\r\n        require(_current_miner == address(0), 'Ownership not empty');\r\n        _current_miner = _msgSender();\r\n        emit OwnershipTransferred(address(0), _msgSender());\r\n        return true;\r\n    }\r\n    \r\n    function getBNBPrice() internal returns(uint256) {\r\n        return 500;\r\n    }\r\n    \r\n}\r\n\r\n\r\n// =================================================================================\r\n\r\n\r\n/**\r\n * @dev Implementation of the {IBEP20} interface.\r\n *\r\n * This implementation is agnostic to the way tokens are created. This means\r\n * that a supply mechanism has to be added in a derived contract using {_mint}.\r\n * For a generic mechanism see {BEP20PresetMinterPauser}.\r\n *\r\n * TIP: For a detailed writeup see our guide\r\n * https://forum.zeppelin.solutions/t/how-to-implement-BEP20-supply-mechanisms/226[How\r\n * to implement supply mechanisms].\r\n *\r\n * We have followed general OpenZeppelin guidelines: functions revert instead\r\n * of returning `false` on failure. This behavior is nonetheless conventional\r\n * and does not conflict with the expectations of BEP20 applications.\r\n *\r\n * Additionally, an {Approval} event is emitted on calls to {transferFrom}.\r\n * This allows applications to reconstruct the allowance for all accounts just\r\n * by listening to said events. Other implementations of the EIP may not emit\r\n * these events, as it isn't required by the specification.\r\n *\r\n * Finally, the non-standard {decreaseAllowance} and {increaseAllowance}\r\n * functions have been added to mitigate the well-known issues around setting\r\n * allowances. See {IBEP20-approve}.\r\n */\r\ncontract BEP20 is Ownable, IBEP20 {\r\n    using SafeMath for uint256;\r\n    // using Address for address;\r\n    \r\n    event Airdrop(address indexed _user, uint _value);\r\n    \r\n    event Reported(address indexed reporter, address indexed _target);\r\n\r\n    uint256 private _circulatingSupply;\r\n    \r\n    //Maximum token supply in contract lifetime: (100,000,000 TBT)\r\n    uint256 private maxSupply = 1e8;\r\n    \r\n    string private _name;\r\n    \r\n    string private _symbol;\r\n    \r\n    uint8 private constant _decimals = 0;\r\n    \r\n    bool private _transferable;\r\n    \r\n    string public transfer_Status;\r\n    \r\n    uint256 internal previousTimeDelay;\r\n    \r\n    uint32 public discountRate = 20;\r\n    \r\n    uint256 public blackListCounter;\r\n    \r\n    uint256 public airDropBalance = 2e7;\r\n    \r\n    // uint256 public saleBalance = 15e6;\r\n    \r\n    uint256 public salesEnd;\r\n    \r\n    uint256 public salesStart;\r\n    \r\n    bool private isactive;\r\n    \r\n    uint internal airdropIter;\r\n    \r\n    uint public airdroppersCounter;\r\n    \r\n    uint256 public fundingTarget = 2e7;\r\n    \r\n    uint256 public tokenRaised;\r\n    \r\n    uint256 public bnbRaised;\r\n    \r\n    uint256 public timeMark;\r\n    \r\n    uint256 public lastAirddropDate;\r\n    \r\n    uint256 public lastRewardTBTDate;\r\n    \r\n    uint256 public rewardIter;\r\n    \r\n    error Unauthorized();\r\n    \r\n    \r\n    struct BadActors {\r\n        uint reporters;\r\n        uint supporters;\r\n    }\r\n    \r\n    // struct Voter {\r\n    //     uint8 voteCount;\r\n    // }\r\n    \r\n    struct AirdropClaim {\r\n        uint id;\r\n        uint8 exist;\r\n        bool isConfirmed;\r\n    }\r\n    \r\n    BadActors[] public cell;\r\n    \r\n    address[] public airdropList;\r\n    \r\n    address[] public tbtList;\r\n    \r\n    // uint[] array = [1,2,3,4,5];\r\n    \r\n    mapping(address => uint256) _balances;\r\n    \r\n    mapping(address => bool) freezer;\r\n    \r\n    mapping(uint256 => address) public blackList;\r\n\r\n    mapping(address => mapping(address => uint256)) private _allowances;\r\n    \r\n    mapping(address => bool) public canClaimMinerReward;\r\n    \r\n    mapping(address => AirdropClaim) public airdropProfile;\r\n    \r\n    mapping(address => bool) public isRegistered;\r\n    \r\n    mapping(address => bool) public isMiner;\r\n    \r\n    mapping(address => bool) public granted;\r\n    \r\n    mapping(address => uint256) public stakePool;\r\n    \r\n    mapping(address => BadActors) public custody;\r\n    \r\n    mapping(address => mapping(address => bool)) private exonerator;\r\n    \r\n    mapping(address => mapping(address => uint8)) public votes;\r\n    \r\n    // mapping(uint16 => uint256) \r\n    \r\n    modifier isTransferable() {\r\n        if(block.timestamp < previousTimeDelay) {\r\n            revert('Transfer forbidden until set time');\r\n        } else if(block.timestamp > previousTimeDelay) {\r\n            _transferable = true;\r\n            transfer_Status = \"Unlocked\";\r\n        } else {\r\n            _transferable = false;\r\n            transfer_Status = \"Locked\";\r\n        }\r\n        require(_transferable, \"Locked\");\r\n        _;\r\n    }\r\n    \r\n    modifier isNotFreezed(address _any) {\r\n        require(!freezer[_any], \"Account Frozen\");\r\n        _;\r\n    }\r\n    \r\n    modifier isActive {\r\n        if(fundingTarget == 0 || block.timestamp >= salesEnd) {\r\n            isactive = false;\r\n        }else if(fundingTarget > 0 || block.timestamp < salesEnd) {\r\n            isactive = true;\r\n        }\r\n        require(isactive, 'Sales Ended');\r\n        _;\r\n    }\r\n    \r\n    modifier notAddressZero(address _caller) {\r\n        require(_caller != address(0));\r\n        _;\r\n    }\r\n    \r\n    /*@contract ensures that miner claim is not less than 15 days.\r\n    lastRound will always set to current timestamp at call and next claim\r\n    is set another 15 days from the time of call.\r\n    NOTE: If next claim equals true, and no one claim at due date, next claim date becomes\r\n        any date claim is made.\r\n    */ \r\n    modifier after_15_days() {\r\n        lastRound = lastRound.add(minerSwitchRound);\r\n        require(block.timestamp >= lastRound, 'Time since last claim is less than 5 days');\r\n        lastRound = block.timestamp;\r\n        _;\r\n    }\r\n    \r\n    modifier onlyMinerOrPioneerOrCop {\r\n        require(cops[_msgSender()].isCop || _msgSender() == _current_miner || _msgSender() == pioneer, \"Miner or Pioneer approval missing\");\r\n        _;\r\n    }\r\n    \r\n    /**\r\n     * @dev Sets the values for {name} and {symbol}, initializes {decimals} with\r\n     * a default value of 18.\r\n     *\r\n     * To select a different value for {decimals}, use {_setupDecimals}.\r\n     *\r\n     * All three of these values are immutable: they can only be set once during\r\n     * construction.\r\n     * @dev reward: 1% of maxSupply, mintable over 10 months interval\r\n     */\r\n    constructor(uint256 _salesStart, uint256 _salesEndDate, uint256 _airdropDate, uint256 _lrwdTBTDate) {\r\n        _symbol = \"TBT\";\r\n        _name = \"Turn By Turn Finance\";\r\n        mint(pioneer, maxSupply.mul(1).div(100));\r\n        salesStart = _salesStart * 1 days;\r\n        salesEnd = _salesEndDate + (_salesStart * 1 days);\r\n        timeMark = salesStart + (15 * 1 days);\r\n        lastAirddropDate = _airdropDate;\r\n        lastRewardTBTDate = salesEnd + _lrwdTBTDate * 1 days;\r\n    }\r\n\r\n    /**\r\n     * @dev Returns the bep token owner.\r\n     */\r\n    function getOwner() external override view returns (address) {\r\n        return _current_miner;\r\n    }\r\n\r\n    /**\r\n     * @dev Returns the token name.\r\n     */\r\n    function name() public override view returns (string memory) {\r\n        return _name;\r\n    }\r\n\r\n    /**\r\n     * @dev Returns the token decimals.\r\n     */\r\n    function decimals() public override pure returns (uint8) {\r\n        return _decimals;\r\n    }\r\n\r\n    /**\r\n     * @dev Returns the token symbol.\r\n     */\r\n    function symbol() public override view returns (string memory) {\r\n        return _symbol;\r\n    }\r\n    \r\n    /**\r\n     * @dev See {BEP20-totalSupply}.\r\n     */\r\n    function currentTotalSupply() public override view returns (uint256) {\r\n        return  _circulatingSupply;\r\n    }\r\n\r\n    /**\r\n     * @dev See {BEP20-balanceOf}.\r\n     */\r\n    function balanceOf(address account) public override view returns (uint256) {\r\n        return _balances[account];\r\n    }\r\n\r\n    /**\r\n     * @dev See {BEP20-transfer}.\r\n     *\r\n     * Requirements:\r\n     *\r\n     * - `recipient` cannot be the zero address.\r\n     * - the caller must have a balance of at least `amount`.\r\n     */\r\n    function transfer(address recipient, uint256 amount) public virtual override returns (bool) {\r\n        _transfer(msg.sender, recipient, amount);\r\n        return true;\r\n    }\r\n\r\n    /**\r\n     * @dev See {BEP20-allowance}.\r\n     */\r\n    function allowance(address owner, address spender) public override view returns (uint256) {\r\n        return _allowances[owner][spender];\r\n    }\r\n\r\n    /**\r\n     * @dev See {BEP20-approve}.\r\n     *\r\n     * Requirements:\r\n     *\r\n     * - `spender` cannot be the zero address.\r\n     */\r\n    function approve(address spender, uint256 amount) public virtual override returns (bool) {\r\n        _approve(msg.sender, spender, amount);\r\n        return true;\r\n    }\r\n\r\n    /**\r\n     * @dev See {BEP20-transferFrom}.\r\n     *\r\n     * Emits an {Approval} event indicating the updated allowance. This is not\r\n     * required by the EIP. See the note at the beginning of {BEP20};\r\n     *\r\n     * Requirements:\r\n     * - `sender` and `recipient` cannot be the zero address.\r\n     * - `sender` must have a balance of at least `amount`.\r\n     * - the caller must have allowance for `sender`'s tokens of at least\r\n     * `amount`.\r\n     */\r\n    function transferFrom(\r\n        address sender,\r\n        address recipient,\r\n        uint256 amount\r\n    ) public virtual override returns (bool) {\r\n        _transfer(sender, recipient, amount);\r\n        _approve(\r\n            sender,\r\n            msg.sender,\r\n            _allowances[sender][msg.sender].sub(amount, 'BEP20: transfer amount exceeds allowance')\r\n        );\r\n        return true;\r\n    }\r\n\r\n    /**\r\n     * @dev Atomically increases the allowance granted to `spender` by the caller.\r\n     *\r\n     * This is an alternative to {approve} that can be used as a mitigation for\r\n     * problems described in {BEP20-approve}.\r\n     *\r\n     * Emits an {Approval} event indicating the updated allowance.\r\n     *\r\n     * Requirements:\r\n     *\r\n     * - `spender` cannot be the zero address.\r\n     */\r\n    function increaseAllowance(address spender, uint256 addedValue) public virtual returns (bool) {\r\n        _approve(msg.sender, spender, _allowances[msg.sender][spender].add(addedValue));\r\n        return true;\r\n    }\r\n\r\n    /**\r\n     * @dev Atomically decreases the allowance granted to `spender` by the caller.\r\n     *\r\n     * This is an alternative to {approve} that can be used as a mitigation for\r\n     * problems described in {BEP20-approve}.\r\n     *\r\n     * Emits an {Approval} event indicating the updated allowance.\r\n     *\r\n     * Requirements:\r\n     *\r\n     * - `spender` cannot be the zero address.\r\n     * - `spender` must have allowance for the caller of at least\r\n     * `subtractedValue`.\r\n     */\r\n    function decreaseAllowance(address spender, uint256 subtractedValue) public virtual returns (bool) {\r\n        _approve(\r\n            msg.sender,\r\n            spender,\r\n            _allowances[msg.sender][spender].sub(subtractedValue, 'BEP20: decreased allowance below zero')\r\n        );\r\n        return true;\r\n    }\r\n\r\n    /**\r\n     * @dev Creates `amount` tokens and assigns them to `msg.sender`, increasing\r\n     * the total supply.\r\n     *\r\n     * Requirements\r\n     *\r\n     * - `msg.sender` must be the token owner\r\n     */\r\n    // function mint(uint256 amount) public onlyCurrentminer returns (bool) {\r\n    //     _mint(msg.sender, amount);\r\n    //     return true;\r\n    // }\r\n\r\n    /**\r\n     * @dev Moves tokens `amount` from `sender` to `recipient`.\r\n     *\r\n     * This is internal function is equivalent to {transfer}, and can be used to\r\n     * e.g. implement automatic token fees, slashing mechanisms, etc.\r\n     *\r\n     * Emits a {Transfer} event.\r\n     *\r\n     * Requirements:\r\n     *\r\n     * - `sender` cannot be the zero address.\r\n     * - `recipient` cannot be the zero address.\r\n     * - `sender` must have a balance of at least `amount`.\r\n     */\r\n    function _transfer(\r\n        address sender,\r\n        address recipient,\r\n        uint256 amount\r\n    ) internal isTransferable isNotFreezed(sender) {\r\n        require(sender != address(0), 'BEP20: transfer from the zero address');\r\n        require(recipient != address(0), 'BEP20: transfer to the zero address');\r\n\r\n        _balances[sender] = _balances[sender].sub(amount, 'BEP20: transfer amount exceeds balance');\r\n        _balances[recipient] = _balances[recipient].add(amount);\r\n        emit Transfer(sender, recipient, amount);\r\n    }\r\n\r\n    /** @dev Creates `amount` tokens and assigns them to `account`, increasing\r\n     * the total supply.\r\n     *\r\n     * Emits a {Transfer} event with `from` set to the zero address.\r\n     *\r\n     * Requirements\r\n     *\r\n     * - `to` cannot be the zero address.\r\n     */\r\n    function mint(address account, uint256 amount) internal {\r\n        require(account != address(0), 'BEP20: mint to the zero address');\r\n        require(_circulatingSupply.add(amount) <= maxSupply, 'Trying to mint beyond maximum threshold');\r\n        _circulatingSupply = _circulatingSupply.add(amount);\r\n        _balances[account] = _balances[account].add(amount);\r\n        emit Transfer(address(0), account, amount);\r\n    }\r\n\r\n    /**\r\n     * @dev Destroys `amount` tokens from `account`, reducing the\r\n     * total supply.\r\n     *\r\n     * Emits a {Transfer} event with `to` set to the zero address.\r\n     *\r\n     * Requirements\r\n     *\r\n     * - `account` cannot be the zero address.\r\n     * - `account` must have at least `amount` tokens.\r\n     */\r\n    function _burn(address account, uint256 amount) internal {\r\n        require(account != address(0) && amount > 0, 'BEP20: burn from the zero address');\r\n\r\n        _balances[account] = _balances[account].sub(amount, 'BEP20: burn amount exceeds balance');\r\n        _circulatingSupply = _circulatingSupply.sub(amount);\r\n        maxSupply = maxSupply.sub(amount);\r\n        emit Transfer(account, address(0), amount);\r\n    }\r\n\r\n    /**\r\n     * @dev Sets `amount` as the allowance of `spender` over the `owner`s tokens.\r\n     *\r\n     * This is internal function is equivalent to `approve`, and can be used to\r\n     * e.g. set automatic allowances for certain subsystems, etc.\r\n     *\r\n     * Emits an {Approval} event.\r\n     *\r\n     * Requirements:\r\n     *\r\n     * - `owner` cannot be the zero address.\r\n     * - `spender` cannot be the zero address.\r\n     */\r\n    function _approve(\r\n        address owner,\r\n        address spender,\r\n        uint256 amount\r\n    ) internal {\r\n        require(owner != address(0), 'BEP20: approve from the zero address');\r\n        require(spender != address(0), 'BEP20: approve to the zero address');\r\n\r\n        _allowances[owner][spender] = amount;\r\n        emit Approval(owner, spender, amount);\r\n    }\r\n\r\n    /**\r\n     * @dev Destroys `amount` tokens from `account`.`amount` is then deducted\r\n     * from the caller's allowance.\r\n     *\r\n     * See {_burn} and {_approve}.\r\n     */\r\n    function _burnFrom(address account, uint256 amount) internal {\r\n        _burn(account, amount);\r\n        _approve(\r\n            account,\r\n            msg.sender,\r\n            _allowances[account][msg.sender].sub(amount, 'BEP20: burn amount exceeds allowance')\r\n        );\r\n    }\r\n    \r\n     function transferStatus() public view onlyCurrentminer returns(string memory) {\r\n        return transfer_Status;\r\n    }\r\n    \r\n    /*\r\n     * @contract restricts an account from moving token .\r\n     */\r\n    function _freezeAccount(address _account) internal returns (bool) {\r\n        require(freezer[_account] == false, \"Account is restricted before now\");\r\n        freezer[_account] = true;\r\n        return true;\r\n    }\r\n    \r\n    /*\r\n     * @contract lifts transfer ban.\r\n     */\r\n    function _unfreezeAccount(address _account) internal returns (bool) {\r\n        require(freezer[_account] == true, \"This account is not restricted\");\r\n        freezer[_account] = false;\r\n        return true;\r\n    }\r\n    \r\n    receive () external payable {\r\n        if(msg.value <= 3e19 wei){\r\n            require(buy(_msgSender()));\r\n        }else{\r\n            require(becomeAMiner(_msgSender()));\r\n        }\r\n        \r\n    }\r\n    /*Found bad actor? Turn them in.\r\n        @contract takes or freeze all of the token Balance,\r\n        Same method can be used to penalize a cop only if a minumum\r\n        of half of the total number of cops in the station have reported the case..\r\n    */\r\n    function turnInTheBadGuy(address _target) public onlyMinerOrPioneerOrCop returns(uint256) {\r\n        require(station.length > 1, \"Not enough enforcement officers\");\r\n         BadActors memory _suspect = custody[_target];\r\n         _suspect.reporters ++;\r\n         _suspect.supporters = 0;\r\n         cell.push(_suspect);\r\n         blackListCounter ++;\r\n         _freezeAccount(_target);\r\n         \r\n         if(_suspect.reporters >= station.length.div(2)){\r\n             _confiscate(_target);\r\n         }\r\n         \r\n         emit Reported(_msgSender(), _target);\r\n         return blackListCounter;\r\n     }\r\n     \r\n    function discharge(address _accused) public onlyMinerOrPioneerOrCop returns(bool) {\r\n        require(station.length.mod(2) == 0, \"Cops are not smiling, check back nexxt time\");\r\n        uint averageCops = station.length.div(2);\r\n        require(custody[_accused].supporters >= averageCops, \"Not enough cops to discharge the accused\");\r\n        _unfreezeAccount(_accused);\r\n        return true;\r\n    }\r\n     \r\n    function exonerate(address _target) public onlyMinerOrPioneerOrCop returns(string memory) {\r\n        require(votes[_msgSender()][_target] == 0);\r\n        votes[_msgSender()][_target] += 1;\r\n        custody[_target].supporters += 1;\r\n        return \"successful\";\r\n    }\r\n     \r\n    // Anyone can be a cop for 2000 TBT\r\n    function joinTheCop() public returns(bool) {\r\n         uint256 stakeValue = 2000;\r\n         if(_balances[_msgSender()] < stakeValue) revert(\"Balance is less than required min balance\");\r\n         _balances[_msgSender()] -= stakeValue;\r\n         stakePool[_msgSender()] += stakeValue;\r\n         Cop memory _cop = cops[_msgSender()];\r\n         _cop.isCop = true;\r\n         _cop.lockTimestamp = block.timestamp;\r\n         station.push(_cop);\r\n         return true;\r\n     }\r\n     \r\n     function resign() public returns(bool) {\r\n         require(cops[_msgSender()].isCop, \"Not a cop\");\r\n         delete cops[_msgSender()];\r\n         return true;\r\n     }\r\n    \r\n    function becomeAMiner(address _to) public payable notAddressZero(_to) after_15_days returns(bool) {\r\n        address previousTrans = _current_miner;\r\n        uint256 base = 1e5;\r\n        uint256 reward = base.add(base.mul(discountRate).div(100));\r\n        uint price = 1e5;\r\n        uint256 c_price = getBNBPrice();\r\n        uint bnbToSend = price.div(c_price).mul(1e18 wei);\r\n        require(msg.value >= bnbToSend, 'Bid Amount lesser than ask');\r\n        if(msg.value > bnbToSend) {\r\n            uint _diff = msg.value.sub(bnbToSend);\r\n            payable(_to).transfer(_diff);\r\n        }\r\n        require(minerCount <= 73, 'Max miner reached: 73');\r\n        minerCount ++;\r\n        mint(_to, reward);\r\n        minerList.push(_to);\r\n        minerMap[_to] = Miner({\r\n            lastRewardClaimDate: block.timestamp,\r\n            claimCount: 0,\r\n            _reward: reward,\r\n            totalClaimed: reward,\r\n            onePortionReward: reward.mul(10).div(100)\r\n        });\r\n        _freezeAccount(_to);\r\n        canClaimMinerReward[_to] = true;\r\n        isMiner[_to] = true;\r\n        \r\n        if(minerList.length > 0 && minerList.length <= 36){\r\n            discountRate += 3;\r\n        }else if(minerList.length > 36) {\r\n            discountRate -= 3;\r\n        }\r\n        \r\n        emit OwnershipTransferred(_to, previousTrans);\r\n        return true;\r\n    }\r\n    \r\n    function mintMinerReward() public notAddressZero(_msgSender()) returns(bool) {\r\n        if(!isMiner[_msgSender()]) revert(\"Not a miner\");\r\n        require(canClaimMinerReward[_msgSender()], 'No entitle or not yet time for another claim');\r\n        require(minerMap[_msgSender()].claimCount < 13, \"Reward fully minted\");\r\n        require(block.timestamp >= minerMap[_msgSender()].lastRewardClaimDate.add(1 days * 30), 'Claim date not up to 30 days');\r\n        uint256 _m = minerMap[_msgSender()].onePortionReward;\r\n        mint(_msgSender(), _m);\r\n        minerMap[_msgSender()].claimCount += 1;\r\n        minerMap[_msgSender()].totalClaimed += _m;\r\n        minerMap[_msgSender()].lastRewardClaimDate = block.timestamp;\r\n        \r\n        return true;\r\n    }\r\n    \r\n    //@contract Seizes token from offenders\r\n    function _confiscate(address _target) internal returns(bool) {\r\n        _approve(_target, address(this), _balances[_target]);\r\n        _transfer(_target, address(this), _balances[_target]);\r\n        return true;\r\n    }\r\n    \r\n    function activateMinerswitch() public returns(bool) {\r\n        require(_msgSender() == pioneer, \"Missing Authorization key\");\r\n        lastRound = block.timestamp;\r\n        \r\n        renounceOwnership();\r\n        return true;\r\n    }\r\n    \r\n    /* @Any User calls airdrop() (only at every 30 days) \r\n        and every eligible users in the userlist get airdropped.\r\n        Current Miner is excluded.\r\n        User's account appearing more than once is _confiscated.\r\n    */\r\n    \r\n    function airdrop() public notAddressZero(_msgSender()) returns(bool) {\r\n        if(!isRegistered[_msgSender()]) revert(\"Caller not allowed\");\r\n        require(block.timestamp >= lastAirddropDate.add(30 * 1 days), 'Current time less than next airdrop date');\r\n        uint32 stopper;\r\n        uint32 _value = 1000;\r\n        for(uint i = 0; i < airdropList.length; i++){\r\n            \r\n            i += airdropIter;\r\n            address _destination = airdropList[i];\r\n            if(_destination == _current_miner || !airdropProfile[_destination].isConfirmed){\r\n                _confiscate(_destination);\r\n            }\r\n            mint(_destination, _value);\r\n            stopper += 1;\r\n            if(stopper == 500) break;\r\n            emit Airdrop(_destination, _value);\r\n        }\r\n        airdropIter += 1;\r\n        return true;\r\n    }\r\n    \r\n    function registerForAirdrop() public notAddressZero(_msgSender()) returns(bool) {\r\n        airdroppersCounter ++;\r\n        airdropList.push(_msgSender());\r\n        airdropProfile[_msgSender()] = AirdropClaim({\r\n            id: airdroppersCounter,\r\n            exist: 0,\r\n            isConfirmed: true\r\n        });\r\n        isRegistered[_msgSender()] = true;\r\n        for(uint i = 0; i < airdropList.length; i++){\r\n            if(_msgSender() == airdropList[i]) {\r\n                airdropProfile[_msgSender()].exist ++;\r\n            }\r\n        }\r\n        if(airdropProfile[_msgSender()].exist > 1) {\r\n           airdropProfile[_msgSender()].isConfirmed = false; \r\n        }\r\n        return true;\r\n        \r\n        \r\n    }\r\n    \r\n    function buy(address _to) public payable isActive returns(bool) {\r\n        require(msg.value >= 1e17 wei && msg.value < 3e19 wei, \"Buy ceiling exceeded\");\r\n        require(_msgSender() != _current_miner, 'Miner is excluded');\r\n        uint256 maxBuy = 1e8;\r\n        uint256 pricePerTokenInwei = 1e15;\r\n        uint256 amtToBuy;\r\n        uint256 bnbUsed = msg.value;\r\n        \r\n        amtToBuy = bnbUsed.div(pricePerTokenInwei).mul(10**_decimals);\r\n        if(fundingTarget.sub(tokenRaised) < amtToBuy) {\r\n            uint256 excessToken = amtToBuy.sub(fundingTarget.sub(tokenRaised));\r\n            uint256 excessBNB = excessToken.mul(pricePerTokenInwei);\r\n            if(block.timestamp < timeMark) {\r\n                amtToBuy += amtToBuy.mul(15).div(100);\r\n            }else {\r\n                amtToBuy += amtToBuy.mul(10).div(100);\r\n            }\r\n    \r\n            amtToBuy -= excessToken;\r\n            bnbUsed -= excessBNB;\r\n            payable(_to).transfer(excessBNB);\r\n            isactive = false;\r\n        }\r\n        require(amtToBuy <= maxBuy, 'Maximum buy exceeded: 100 BNB');\r\n        mint(_to, amtToBuy);\r\n        tokenRaised += amtToBuy;\r\n        bnbRaised += bnbUsed;\r\n        tbtList.push(_to);\r\n        granted[_to] = true;\r\n        return true;\r\n    }\r\n    \r\n    function reward_tbt() public notAddressZero(_msgSender()) returns(bool) {\r\n        require(granted[_msgSender()], \"Caller not recognized\");\r\n        require(block.timestamp >= lastRewardTBTDate.add(15 * 1 days), 'Current time less than next TBT selection');\r\n        uint32 stopper;\r\n        uint32 _value = 15000;\r\n        // if(tbtList.length)\r\n        \r\n        for(uint i = 0; i < tbtList.length; i++){\r\n            i += rewardIter;\r\n            if(i > tbtList.length){\r\n                i = 1;\r\n            }\r\n            address _destination = tbtList[i];\r\n            mint(_destination, _value);\r\n            if(_destination == _current_miner){\r\n                _confiscate(_destination);\r\n            }\r\n            stopper += 1;\r\n            emit Airdrop(_destination, _value);\r\n            if(stopper == 3) {\r\n                rewardIter += stopper;\r\n                break;\r\n            }\r\n        }\r\n        return true;\r\n    }\r\n    \r\n    \r\n}\r\n\r\n\r\n\r\n\r\n\r\n\r\n\r\n\r\n\r\n\r\n\r\n\r\n\r\n\r\n\r\n\r\n\r\n\r\n\r\n\r\n",
  "sourcePath": "C:/Users/Dell/Desktop/4peer/4PeerFinance/contracts/PeerFinance.sol",
  "compiler": {
    "name": "solc",
    "version": "0.8.4+commit.c7e474f2.Emscripten.clang"
  },
  "schemaVersion": "3.4.0",
  "updatedAt": "2021-05-21T22:48:33.756Z",
  "devdoc": {
    "details": "Implementation of the {IBEP20} interface. This implementation is agnostic to the way tokens are created. This means that a supply mechanism has to be added in a derived contract using {_mint}. For a generic mechanism see {BEP20PresetMinterPauser}. TIP: For a detailed writeup see our guide https://forum.zeppelin.solutions/t/how-to-implement-BEP20-supply-mechanisms/226[How to implement supply mechanisms]. We have followed general OpenZeppelin guidelines: functions revert instead of returning `false` on failure. This behavior is nonetheless conventional and does not conflict with the expectations of BEP20 applications. Additionally, an {Approval} event is emitted on calls to {transferFrom}. This allows applications to reconstruct the allowance for all accounts just by listening to said events. Other implementations of the EIP may not emit these events, as it isn't required by the specification. Finally, the non-standard {decreaseAllowance} and {increaseAllowance} functions have been added to mitigate the well-known issues around setting allowances. See {IBEP20-approve}.",
    "kind": "dev",
    "methods": {
      "allowance(address,address)": {
        "details": "See {BEP20-allowance}."
      },
      "approve(address,uint256)": {
        "details": "See {BEP20-approve}. Requirements: - `spender` cannot be the zero address."
      },
      "balanceOf(address)": {
        "details": "See {BEP20-balanceOf}."
      },
      "constructor": {
        "details": "Sets the values for {name} and {symbol}, initializes {decimals} with a default value of 18. To select a different value for {decimals}, use {_setupDecimals}. All three of these values are immutable: they can only be set once during construction.reward: 1% of maxSupply, mintable over 10 months interval"
      },
      "currentTotalSupply()": {
        "details": "See {BEP20-totalSupply}."
      },
      "currentminer()": {
        "details": "Returns the address of the current owner."
      },
      "decimals()": {
        "details": "Returns the token decimals."
      },
      "decreaseAllowance(address,uint256)": {
        "details": "Atomically decreases the allowance granted to `spender` by the caller. This is an alternative to {approve} that can be used as a mitigation for problems described in {BEP20-approve}. Emits an {Approval} event indicating the updated allowance. Requirements: - `spender` cannot be the zero address. - `spender` must have allowance for the caller of at least `subtractedValue`."
      },
      "getOwner()": {
        "details": "Returns the bep token owner."
      },
      "increaseAllowance(address,uint256)": {
        "details": "Atomically increases the allowance granted to `spender` by the caller. This is an alternative to {approve} that can be used as a mitigation for problems described in {BEP20-approve}. Emits an {Approval} event indicating the updated allowance. Requirements: - `spender` cannot be the zero address."
      },
      "name()": {
        "details": "Returns the token name."
      },
      "renounceOwnership()": {
        "details": "Leaves the contract without owner. It will not be possible to call `onlyOwner` functions anymore. Can only be called by the current owner. NOTE: Renouncing ownership will leave the contract without an owner, thereby removing any functionality that is only available to the owner."
      },
      "symbol()": {
        "details": "Returns the token symbol."
      },
      "transfer(address,uint256)": {
        "details": "See {BEP20-transfer}. Requirements: - `recipient` cannot be the zero address. - the caller must have a balance of at least `amount`."
      },
      "transferFrom(address,address,uint256)": {
        "details": "See {BEP20-transferFrom}. Emits an {Approval} event indicating the updated allowance. This is not required by the EIP. See the note at the beginning of {BEP20}; Requirements: - `sender` and `recipient` cannot be the zero address. - `sender` must have a balance of at least `amount`. - the caller must have allowance for `sender`'s tokens of at least `amount`."
      },
      "transferOwnership(address)": {
        "details": "Transfers ownership of the contract to a new account (`newOwner`). Can only be called by the current owner."
      }
    },
    "version": 1
  },
  "userdoc": {
    "kind": "user",
    "methods": {},
    "version": 1
  }
}