{
  "contractName": "Ownable",
  "abi": [
    {
      "inputs": [
        {
          "internalType": "address",
          "name": "_addr",
          "type": "address"
        }
      ],
      "stateMutability": "nonpayable",
      "type": "constructor"
    },
    {
      "anonymous": false,
      "inputs": [
        {
          "indexed": true,
          "internalType": "address",
          "name": "previousTrans",
          "type": "address"
        },
        {
          "indexed": true,
          "internalType": "address",
          "name": "newTrans",
          "type": "address"
        }
      ],
      "name": "OwnershipTransferred",
      "type": "event"
    },
    {
      "inputs": [
        {
          "internalType": "address",
          "name": "",
          "type": "address"
        }
      ],
      "name": "cops",
      "outputs": [
        {
          "internalType": "bool",
          "name": "isCop",
          "type": "bool"
        },
        {
          "internalType": "uint256",
          "name": "lockTimestamp",
          "type": "uint256"
        }
      ],
      "stateMutability": "view",
      "type": "function"
    },
    {
      "inputs": [],
      "name": "lastRound",
      "outputs": [
        {
          "internalType": "uint256",
          "name": "",
          "type": "uint256"
        }
      ],
      "stateMutability": "view",
      "type": "function"
    },
    {
      "inputs": [],
      "name": "minerCount",
      "outputs": [
        {
          "internalType": "uint256",
          "name": "",
          "type": "uint256"
        }
      ],
      "stateMutability": "view",
      "type": "function"
    },
    {
      "inputs": [
        {
          "internalType": "uint256",
          "name": "",
          "type": "uint256"
        }
      ],
      "name": "minerList",
      "outputs": [
        {
          "internalType": "address",
          "name": "",
          "type": "address"
        }
      ],
      "stateMutability": "view",
      "type": "function"
    },
    {
      "inputs": [
        {
          "internalType": "address",
          "name": "",
          "type": "address"
        }
      ],
      "name": "minerMap",
      "outputs": [
        {
          "internalType": "uint256",
          "name": "lastRewardClaimDate",
          "type": "uint256"
        },
        {
          "internalType": "uint8",
          "name": "claimCount",
          "type": "uint8"
        },
        {
          "internalType": "uint256",
          "name": "_reward",
          "type": "uint256"
        },
        {
          "internalType": "uint256",
          "name": "totalClaimed",
          "type": "uint256"
        },
        {
          "internalType": "uint256",
          "name": "onePortionReward",
          "type": "uint256"
        }
      ],
      "stateMutability": "view",
      "type": "function"
    },
    {
      "inputs": [],
      "name": "minerSwitchRound",
      "outputs": [
        {
          "internalType": "uint256",
          "name": "",
          "type": "uint256"
        }
      ],
      "stateMutability": "view",
      "type": "function"
    },
    {
      "inputs": [],
      "name": "pioneer",
      "outputs": [
        {
          "internalType": "address",
          "name": "",
          "type": "address"
        }
      ],
      "stateMutability": "view",
      "type": "function"
    },
    {
      "inputs": [
        {
          "internalType": "uint256",
          "name": "",
          "type": "uint256"
        }
      ],
      "name": "station",
      "outputs": [
        {
          "internalType": "bool",
          "name": "isCop",
          "type": "bool"
        },
        {
          "internalType": "uint256",
          "name": "lockTimestamp",
          "type": "uint256"
        }
      ],
      "stateMutability": "view",
      "type": "function"
    },
    {
      "inputs": [],
      "name": "currentminer",
      "outputs": [
        {
          "internalType": "address",
          "name": "",
          "type": "address"
        }
      ],
      "stateMutability": "view",
      "type": "function"
    },
    {
      "inputs": [],
      "name": "renounceOwnership",
      "outputs": [],
      "stateMutability": "nonpayable",
      "type": "function"
    },
    {
      "inputs": [
        {
          "internalType": "address",
          "name": "newminer",
          "type": "address"
        }
      ],
      "name": "transferOwnership",
      "outputs": [],
      "stateMutability": "nonpayable",
      "type": "function"
    }
  ],
  "bytecode": "0x608060409081526213c6806001556000805481526009602052205460058054600160a060020a031916600160a060020a0390921691909117905534801561004557600080fd5b506040516106533803806106538339810160408190526100649161008f565b60048054600160a060020a039092166101000261010060a860020a03199092169190911790556100bd565b6000602082840312156100a0578081fd5b8151600160a060020a03811681146100b6578182fd5b9392505050565b610587806100cc6000396000f3fe608060405234801561001057600080fd5b50600436106100c6576000357c01000000000000000000000000000000000000000000000000000000009004806382bc07e61161008e57806382bc07e6146101785780638338263e1461018157806393378df11461018a578063b9877ef81461019b578063d5e88c78146101ae578063f2fde38b1461021957600080fd5b806345d62e75146100cb57806362d44b64146101145780636d1da4311461013f578063715018a6146101565780637f8e122914610160575b600080fd5b6100f86100d936600461050b565b6008602052600090815260409020805460019091015460ff9091169082565b6040805192151583526020830191909152015b60405180910390f35b610127610122366004610539565b61022c565b604051600160a060020a03909116815260200161010b565b61014860005481565b60405190815260200161010b565b61015e610256565b005b600454610127906101009004600160a060020a031681565b61014860025481565b61014860015481565b600554600160a060020a0316610127565b6100f86101a9366004610539565b61038b565b6101ef6101bc36600461050b565b60076020526000908152604090208054600182015460028301546003840154600490940154929360ff9092169290919085565b6040805195865260ff9094166020860152928401919091526060830152608082015260a00161010b565b61015e61022736600461050b565b6103bd565b6003818154811061023c57600080fd5b600091825260209091200154600160a060020a0316905081565b336102ab5760405160e560020a62461bcd02815260206004820152600c60248201527f5a65726f2061646472657373000000000000000000000000000000000000000060448201526064015b60405180910390fd5b600554600160a060020a031633600160a060020a031614806102e557506004546101009004600160a060020a031633600160a060020a0316145b6103345760405160e560020a62461bcd02815260206004820181905260248201527f4f776e61626c653a2063616c6c6572206973206e6f7420746865206f776e657260448201526064016102a2565b600554604051600091600160a060020a0316907f8be0079c531659141344cd1fd0a4f28419497f9722a3daafe3b4186f6b6457e0908390a36005805473ffffffffffffffffffffffffffffffffffffffff19169055565b6006818154811061039b57600080fd5b60009182526020909120600290910201805460019091015460ff909116915082565b3361040d5760405160e560020a62461bcd02815260206004820152600c60248201527f5a65726f2061646472657373000000000000000000000000000000000000000060448201526064016102a2565b600554600160a060020a031633600160a060020a0316148061044757506004546101009004600160a060020a031633600160a060020a0316145b6104965760405160e560020a62461bcd02815260206004820181905260248201527f4f776e61626c653a2063616c6c6572206973206e6f7420746865206f776e657260448201526064016102a2565b61049f816104a2565b50565b600554604051600160a060020a038084169216907f8be0079c531659141344cd1fd0a4f28419497f9722a3daafe3b4186f6b6457e090600090a36005805473ffffffffffffffffffffffffffffffffffffffff1916600160a060020a0392909216919091179055565b60006020828403121561051c578081fd5b8135600160a060020a0381168114610532578182fd5b9392505050565b60006020828403121561054a578081fd5b503591905056fea2646970667358221220232e2413544b48d2d61cb115b404f8b66133d9a37c64da2fa54a6ebfd669761864736f6c63430008040033",
  "immutableReferences": {},
  "source": "// SPDX-License-Identifier: MIT\r\n\r\npragma solidity 0.8.4;\r\n\r\nimport './Context.sol';\r\n\r\n/**\r\n * @dev Contract module which provides a basic access control mechanism, where\r\n * there is an account (an owner) that can be granted exclusive access to\r\n * specific functions.\r\n *\r\n * By default, the owner account will be the one that deploys the contract. This\r\n * can later be changed with {transferOwnership}.\r\n *\r\n * This module is used through inheritance. It will make available the modifier\r\n * `onlyOwner`, which can be applied to your functions to restrict their use to\r\n * the owner.\r\n */\r\ncontract Ownable is Context {\r\n    \r\n    uint256 public minerCount;\r\n    \r\n    uint256 public minerSwitchRound = 1 days * 15;\r\n    \r\n    uint256 public lastRound;\r\n    \r\n    address[] public minerList;\r\n    \r\n    uint8 minerMoveCount;\r\n    \r\n    address public pioneer;\r\n    \r\n    address internal _current_miner = miners[minerCount];\r\n    \r\n    Cop[] public station;\r\n    \r\n    struct Cop {\r\n        bool isCop;\r\n        uint lockTimestamp;\r\n    }\r\n    \r\n    struct Miner {\r\n        uint lastRewardClaimDate;\r\n        uint8 claimCount;\r\n        uint256 _reward;\r\n        uint256 totalClaimed;\r\n        uint onePortionReward;\r\n    }\r\n\r\n    event OwnershipTransferred(address indexed previousTrans, address indexed newTrans);\r\n    \r\n    mapping(address => Miner) public minerMap;\r\n    \r\n    mapping(address => Cop) public cops;\r\n    \r\n    mapping(uint => address) miners;\r\n\r\n    /**\r\n     * @dev Initializes the contract setting the deployer as the initial owner.\r\n     */\r\n    constructor(address _addr) {\r\n        pioneer = _addr;\r\n    }\r\n\r\n    /**\r\n     * @dev Returns the address of the current owner.\r\n     */\r\n    function currentminer() public view returns (address) {\r\n        return _current_miner;\r\n    }\r\n\r\n    /**\r\n     * @dev Throws if called by any account other than the owner.\r\n     */\r\n    modifier onlyCurrentminer() {\r\n        require(_msgSender() != address(0), 'Zero address');\r\n        require(_msgSender() == _current_miner || _msgSender() == pioneer, 'Ownable: caller is not the owner');\r\n        _;\r\n    }\r\n\r\n    /**\r\n     * @dev Leaves the contract without owner. It will not be possible to call\r\n     * `onlyOwner` functions anymore. Can only be called by the current owner.\r\n     *\r\n     * NOTE: Renouncing ownership will leave the contract without an owner,\r\n     * thereby removing any functionality that is only available to the owner.\r\n     */\r\n    function renounceOwnership() public onlyCurrentminer {\r\n        emit OwnershipTransferred(_current_miner, address(0));\r\n        _current_miner = address(0);\r\n    }\r\n\r\n    /**\r\n     * @dev Transfers ownership of the contract to a new account (`newOwner`).\r\n     * Can only be called by the current owner.\r\n     */\r\n    function transferOwnership(address newminer) public onlyCurrentminer {\r\n        _transferOwnership(newminer);\r\n    }\r\n\r\n    /**\r\n     * @dev Transfers ownership of the contract to a new account (`newOwner`).\r\n     */\r\n    function _transferOwnership(address newOwner) internal {\r\n        emit OwnershipTransferred(_current_miner, newOwner);\r\n        _current_miner = newOwner;\r\n    }\r\n}\r\n",
  "sourcePath": "C:/Users/Dell/Desktop/4peer/4PeerFinance/contracts/Ownable.sol",
  "compiler": {
    "name": "solc",
    "version": "0.8.4+commit.c7e474f2.Emscripten.clang"
  },
  "schemaVersion": "3.4.0",
  "updatedAt": "2021-05-21T23:13:18.432Z",
  "devdoc": {
    "details": "Contract module which provides a basic access control mechanism, where there is an account (an owner) that can be granted exclusive access to specific functions. By default, the owner account will be the one that deploys the contract. This can later be changed with {transferOwnership}. This module is used through inheritance. It will make available the modifier `onlyOwner`, which can be applied to your functions to restrict their use to the owner.",
    "kind": "dev",
    "methods": {
      "constructor": {
        "details": "Initializes the contract setting the deployer as the initial owner."
      },
      "currentminer()": {
        "details": "Returns the address of the current owner."
      },
      "renounceOwnership()": {
        "details": "Leaves the contract without owner. It will not be possible to call `onlyOwner` functions anymore. Can only be called by the current owner. NOTE: Renouncing ownership will leave the contract without an owner, thereby removing any functionality that is only available to the owner."
      },
      "transferOwnership(address)": {
        "details": "Transfers ownership of the contract to a new account (`newOwner`). Can only be called by the current owner."
      }
    },
    "version": 1
  },
  "userdoc": {
    "kind": "user",
    "methods": {},
    "version": 1
  }
}