{
  "contractName": "TurnByTurn",
  "abi": [
    {
      "inputs": [
        {
          "internalType": "uint256",
          "name": "_delay",
          "type": "uint256"
        },
        {
          "internalType": "uint256",
          "name": "_salesStart",
          "type": "uint256"
        },
        {
          "internalType": "uint256",
          "name": "_salesEnd",
          "type": "uint256"
        },
        {
          "internalType": "uint256",
          "name": "_airdropDate",
          "type": "uint256"
        },
        {
          "internalType": "uint256",
          "name": "_lrwdTBTDate",
          "type": "uint256"
        }
      ],
      "stateMutability": "nonpayable",
      "type": "constructor"
    },
    {
      "anonymous": false,
      "inputs": [
        {
          "indexed": true,
          "internalType": "address",
          "name": "_user",
          "type": "address"
        },
        {
          "indexed": false,
          "internalType": "uint256",
          "name": "_value",
          "type": "uint256"
        }
      ],
      "name": "Airdrop",
      "type": "event"
    },
    {
      "anonymous": false,
      "inputs": [
        {
          "indexed": true,
          "internalType": "address",
          "name": "owner",
          "type": "address"
        },
        {
          "indexed": true,
          "internalType": "address",
          "name": "spender",
          "type": "address"
        },
        {
          "indexed": false,
          "internalType": "uint256",
          "name": "value",
          "type": "uint256"
        }
      ],
      "name": "Approval",
      "type": "event"
    },
    {
      "anonymous": false,
      "inputs": [
        {
          "indexed": true,
          "internalType": "address",
          "name": "previousTrans",
          "type": "address"
        },
        {
          "indexed": true,
          "internalType": "address",
          "name": "newTrans",
          "type": "address"
        }
      ],
      "name": "OwnershipTransferred",
      "type": "event"
    },
    {
      "anonymous": false,
      "inputs": [
        {
          "indexed": true,
          "internalType": "address",
          "name": "reporter",
          "type": "address"
        },
        {
          "indexed": true,
          "internalType": "address",
          "name": "_target",
          "type": "address"
        }
      ],
      "name": "Reported",
      "type": "event"
    },
    {
      "anonymous": false,
      "inputs": [
        {
          "indexed": true,
          "internalType": "address",
          "name": "from",
          "type": "address"
        },
        {
          "indexed": true,
          "internalType": "address",
          "name": "to",
          "type": "address"
        },
        {
          "indexed": false,
          "internalType": "uint256",
          "name": "value",
          "type": "uint256"
        }
      ],
      "name": "Transfer",
      "type": "event"
    },
    {
      "inputs": [],
      "name": "airDropBalance",
      "outputs": [
        {
          "internalType": "uint256",
          "name": "",
          "type": "uint256"
        }
      ],
      "stateMutability": "view",
      "type": "function"
    },
    {
      "inputs": [
        {
          "internalType": "uint256",
          "name": "",
          "type": "uint256"
        }
      ],
      "name": "airdropList",
      "outputs": [
        {
          "internalType": "address",
          "name": "",
          "type": "address"
        }
      ],
      "stateMutability": "view",
      "type": "function"
    },
    {
      "inputs": [
        {
          "internalType": "address",
          "name": "",
          "type": "address"
        }
      ],
      "name": "airdropProfile",
      "outputs": [
        {
          "internalType": "uint256",
          "name": "id",
          "type": "uint256"
        },
        {
          "internalType": "uint8",
          "name": "exist",
          "type": "uint8"
        },
        {
          "internalType": "bool",
          "name": "isConfirmed",
          "type": "bool"
        }
      ],
      "stateMutability": "view",
      "type": "function"
    },
    {
      "inputs": [],
      "name": "airdroppersCounter",
      "outputs": [
        {
          "internalType": "uint256",
          "name": "",
          "type": "uint256"
        }
      ],
      "stateMutability": "view",
      "type": "function"
    },
    {
      "inputs": [
        {
          "internalType": "uint256",
          "name": "",
          "type": "uint256"
        }
      ],
      "name": "blackList",
      "outputs": [
        {
          "internalType": "address",
          "name": "",
          "type": "address"
        }
      ],
      "stateMutability": "view",
      "type": "function"
    },
    {
      "inputs": [],
      "name": "blackListCounter",
      "outputs": [
        {
          "internalType": "uint256",
          "name": "",
          "type": "uint256"
        }
      ],
      "stateMutability": "view",
      "type": "function"
    },
    {
      "inputs": [],
      "name": "bnbRaised",
      "outputs": [
        {
          "internalType": "uint256",
          "name": "",
          "type": "uint256"
        }
      ],
      "stateMutability": "view",
      "type": "function"
    },
    {
      "inputs": [
        {
          "internalType": "address",
          "name": "",
          "type": "address"
        }
      ],
      "name": "canClaimMinerReward",
      "outputs": [
        {
          "internalType": "bool",
          "name": "",
          "type": "bool"
        }
      ],
      "stateMutability": "view",
      "type": "function"
    },
    {
      "inputs": [
        {
          "internalType": "uint256",
          "name": "",
          "type": "uint256"
        }
      ],
      "name": "cell",
      "outputs": [
        {
          "internalType": "uint256",
          "name": "reporters",
          "type": "uint256"
        },
        {
          "internalType": "uint256",
          "name": "supporters",
          "type": "uint256"
        }
      ],
      "stateMutability": "view",
      "type": "function"
    },
    {
      "inputs": [
        {
          "internalType": "address",
          "name": "",
          "type": "address"
        }
      ],
      "name": "cops",
      "outputs": [
        {
          "internalType": "bool",
          "name": "isCop",
          "type": "bool"
        },
        {
          "internalType": "uint256",
          "name": "lockTimestamp",
          "type": "uint256"
        }
      ],
      "stateMutability": "view",
      "type": "function"
    },
    {
      "inputs": [],
      "name": "currentminer",
      "outputs": [
        {
          "internalType": "address",
          "name": "",
          "type": "address"
        }
      ],
      "stateMutability": "view",
      "type": "function"
    },
    {
      "inputs": [
        {
          "internalType": "address",
          "name": "",
          "type": "address"
        }
      ],
      "name": "custody",
      "outputs": [
        {
          "internalType": "uint256",
          "name": "reporters",
          "type": "uint256"
        },
        {
          "internalType": "uint256",
          "name": "supporters",
          "type": "uint256"
        }
      ],
      "stateMutability": "view",
      "type": "function"
    },
    {
      "inputs": [],
      "name": "discountRate",
      "outputs": [
        {
          "internalType": "uint32",
          "name": "",
          "type": "uint32"
        }
      ],
      "stateMutability": "view",
      "type": "function"
    },
    {
      "inputs": [
        {
          "internalType": "address",
          "name": "",
          "type": "address"
        }
      ],
      "name": "freezer",
      "outputs": [
        {
          "internalType": "bool",
          "name": "",
          "type": "bool"
        }
      ],
      "stateMutability": "view",
      "type": "function"
    },
    {
      "inputs": [],
      "name": "fundingTarget",
      "outputs": [
        {
          "internalType": "uint256",
          "name": "",
          "type": "uint256"
        }
      ],
      "stateMutability": "view",
      "type": "function"
    },
    {
      "inputs": [
        {
          "internalType": "address",
          "name": "",
          "type": "address"
        }
      ],
      "name": "granted",
      "outputs": [
        {
          "internalType": "bool",
          "name": "",
          "type": "bool"
        }
      ],
      "stateMutability": "view",
      "type": "function"
    },
    {
      "inputs": [
        {
          "internalType": "address",
          "name": "",
          "type": "address"
        }
      ],
      "name": "isMiner",
      "outputs": [
        {
          "internalType": "bool",
          "name": "",
          "type": "bool"
        }
      ],
      "stateMutability": "view",
      "type": "function"
    },
    {
      "inputs": [
        {
          "internalType": "address",
          "name": "",
          "type": "address"
        }
      ],
      "name": "isRegistered",
      "outputs": [
        {
          "internalType": "bool",
          "name": "",
          "type": "bool"
        }
      ],
      "stateMutability": "view",
      "type": "function"
    },
    {
      "inputs": [
        {
          "internalType": "address",
          "name": "",
          "type": "address"
        }
      ],
      "name": "judges",
      "outputs": [
        {
          "internalType": "uint64",
          "name": "id",
          "type": "uint64"
        },
        {
          "internalType": "bool",
          "name": "isJudge",
          "type": "bool"
        },
        {
          "internalType": "uint256",
          "name": "timeLocked",
          "type": "uint256"
        }
      ],
      "stateMutability": "view",
      "type": "function"
    },
    {
      "inputs": [],
      "name": "judgesCounter",
      "outputs": [
        {
          "internalType": "uint64",
          "name": "",
          "type": "uint64"
        }
      ],
      "stateMutability": "view",
      "type": "function"
    },
    {
      "inputs": [
        {
          "internalType": "address",
          "name": "",
          "type": "address"
        }
      ],
      "name": "judgesVault",
      "outputs": [
        {
          "internalType": "uint256",
          "name": "",
          "type": "uint256"
        }
      ],
      "stateMutability": "view",
      "type": "function"
    },
    {
      "inputs": [
        {
          "internalType": "uint256",
          "name": "",
          "type": "uint256"
        }
      ],
      "name": "judgeslist",
      "outputs": [
        {
          "internalType": "address",
          "name": "",
          "type": "address"
        }
      ],
      "stateMutability": "view",
      "type": "function"
    },
    {
      "inputs": [],
      "name": "lastAirddropDate",
      "outputs": [
        {
          "internalType": "uint256",
          "name": "",
          "type": "uint256"
        }
      ],
      "stateMutability": "view",
      "type": "function"
    },
    {
      "inputs": [],
      "name": "lastRewardTBTDate",
      "outputs": [
        {
          "internalType": "uint256",
          "name": "",
          "type": "uint256"
        }
      ],
      "stateMutability": "view",
      "type": "function"
    },
    {
      "inputs": [],
      "name": "lastRound",
      "outputs": [
        {
          "internalType": "uint256",
          "name": "",
          "type": "uint256"
        }
      ],
      "stateMutability": "view",
      "type": "function"
    },
    {
      "inputs": [],
      "name": "minerCount",
      "outputs": [
        {
          "internalType": "uint256",
          "name": "",
          "type": "uint256"
        }
      ],
      "stateMutability": "view",
      "type": "function"
    },
    {
      "inputs": [
        {
          "internalType": "uint256",
          "name": "",
          "type": "uint256"
        }
      ],
      "name": "minerList",
      "outputs": [
        {
          "internalType": "address",
          "name": "",
          "type": "address"
        }
      ],
      "stateMutability": "view",
      "type": "function"
    },
    {
      "inputs": [
        {
          "internalType": "address",
          "name": "",
          "type": "address"
        }
      ],
      "name": "minerMap",
      "outputs": [
        {
          "internalType": "uint256",
          "name": "lastRewardClaimDate",
          "type": "uint256"
        },
        {
          "internalType": "uint8",
          "name": "claimCount",
          "type": "uint8"
        },
        {
          "internalType": "uint256",
          "name": "_reward",
          "type": "uint256"
        },
        {
          "internalType": "uint256",
          "name": "totalClaimed",
          "type": "uint256"
        },
        {
          "internalType": "uint256",
          "name": "onePortionReward",
          "type": "uint256"
        }
      ],
      "stateMutability": "view",
      "type": "function"
    },
    {
      "inputs": [],
      "name": "minerSwitchRound",
      "outputs": [
        {
          "internalType": "uint256",
          "name": "",
          "type": "uint256"
        }
      ],
      "stateMutability": "view",
      "type": "function"
    },
    {
      "inputs": [],
      "name": "pioneer",
      "outputs": [
        {
          "internalType": "address",
          "name": "",
          "type": "address"
        }
      ],
      "stateMutability": "view",
      "type": "function"
    },
    {
      "inputs": [
        {
          "internalType": "address",
          "name": "",
          "type": "address"
        }
      ],
      "name": "presidings",
      "outputs": [
        {
          "internalType": "bytes32",
          "name": "",
          "type": "bytes32"
        }
      ],
      "stateMutability": "view",
      "type": "function"
    },
    {
      "inputs": [],
      "name": "renounceOwnership",
      "outputs": [],
      "stateMutability": "nonpayable",
      "type": "function"
    },
    {
      "inputs": [],
      "name": "rewardIter",
      "outputs": [
        {
          "internalType": "uint256",
          "name": "",
          "type": "uint256"
        }
      ],
      "stateMutability": "view",
      "type": "function"
    },
    {
      "inputs": [],
      "name": "salesEnd",
      "outputs": [
        {
          "internalType": "uint256",
          "name": "",
          "type": "uint256"
        }
      ],
      "stateMutability": "view",
      "type": "function"
    },
    {
      "inputs": [],
      "name": "salesStart",
      "outputs": [
        {
          "internalType": "uint256",
          "name": "",
          "type": "uint256"
        }
      ],
      "stateMutability": "view",
      "type": "function"
    },
    {
      "inputs": [
        {
          "internalType": "address",
          "name": "",
          "type": "address"
        }
      ],
      "name": "stakePool",
      "outputs": [
        {
          "internalType": "uint256",
          "name": "",
          "type": "uint256"
        }
      ],
      "stateMutability": "view",
      "type": "function"
    },
    {
      "inputs": [
        {
          "internalType": "uint256",
          "name": "",
          "type": "uint256"
        }
      ],
      "name": "station",
      "outputs": [
        {
          "internalType": "bool",
          "name": "isCop",
          "type": "bool"
        },
        {
          "internalType": "uint256",
          "name": "lockTimestamp",
          "type": "uint256"
        }
      ],
      "stateMutability": "view",
      "type": "function"
    },
    {
      "inputs": [
        {
          "internalType": "uint256",
          "name": "",
          "type": "uint256"
        }
      ],
      "name": "tbtList",
      "outputs": [
        {
          "internalType": "address",
          "name": "",
          "type": "address"
        }
      ],
      "stateMutability": "view",
      "type": "function"
    },
    {
      "inputs": [],
      "name": "timeMark",
      "outputs": [
        {
          "internalType": "uint256",
          "name": "",
          "type": "uint256"
        }
      ],
      "stateMutability": "view",
      "type": "function"
    },
    {
      "inputs": [],
      "name": "tokenRaised",
      "outputs": [
        {
          "internalType": "uint256",
          "name": "",
          "type": "uint256"
        }
      ],
      "stateMutability": "view",
      "type": "function"
    },
    {
      "inputs": [
        {
          "internalType": "address",
          "name": "newminer",
          "type": "address"
        }
      ],
      "name": "transferOwnership",
      "outputs": [],
      "stateMutability": "nonpayable",
      "type": "function"
    },
    {
      "inputs": [
        {
          "internalType": "address",
          "name": "",
          "type": "address"
        },
        {
          "internalType": "address",
          "name": "",
          "type": "address"
        }
      ],
      "name": "votes",
      "outputs": [
        {
          "internalType": "uint8",
          "name": "",
          "type": "uint8"
        }
      ],
      "stateMutability": "view",
      "type": "function"
    },
    {
      "stateMutability": "payable",
      "type": "receive"
    },
    {
      "inputs": [],
      "name": "checkContractBNBBalance",
      "outputs": [
        {
          "internalType": "uint256",
          "name": "",
          "type": "uint256"
        }
      ],
      "stateMutability": "payable",
      "type": "function"
    },
    {
      "inputs": [],
      "name": "claimIfZeroOwnerhip",
      "outputs": [
        {
          "internalType": "bool",
          "name": "",
          "type": "bool"
        }
      ],
      "stateMutability": "payable",
      "type": "function"
    },
    {
      "inputs": [],
      "name": "becomeAjudge",
      "outputs": [
        {
          "internalType": "string",
          "name": "",
          "type": "string"
        }
      ],
      "stateMutability": "nonpayable",
      "type": "function"
    },
    {
      "inputs": [],
      "name": "restrictGlobalTransfer",
      "outputs": [
        {
          "internalType": "string",
          "name": "",
          "type": "string"
        }
      ],
      "stateMutability": "nonpayable",
      "type": "function"
    },
    {
      "inputs": [],
      "name": "removeTransferRestriction",
      "outputs": [
        {
          "internalType": "string",
          "name": "",
          "type": "string"
        }
      ],
      "stateMutability": "nonpayable",
      "type": "function"
    },
    {
      "inputs": [],
      "name": "getOwner",
      "outputs": [
        {
          "internalType": "address",
          "name": "",
          "type": "address"
        }
      ],
      "stateMutability": "view",
      "type": "function"
    },
    {
      "inputs": [],
      "name": "name",
      "outputs": [
        {
          "internalType": "string",
          "name": "",
          "type": "string"
        }
      ],
      "stateMutability": "view",
      "type": "function"
    },
    {
      "inputs": [],
      "name": "decimals",
      "outputs": [
        {
          "internalType": "uint8",
          "name": "",
          "type": "uint8"
        }
      ],
      "stateMutability": "pure",
      "type": "function"
    },
    {
      "inputs": [],
      "name": "symbol",
      "outputs": [
        {
          "internalType": "string",
          "name": "",
          "type": "string"
        }
      ],
      "stateMutability": "view",
      "type": "function"
    },
    {
      "inputs": [],
      "name": "currentTotalSupply",
      "outputs": [
        {
          "internalType": "uint256",
          "name": "",
          "type": "uint256"
        }
      ],
      "stateMutability": "view",
      "type": "function"
    },
    {
      "inputs": [
        {
          "internalType": "address",
          "name": "account",
          "type": "address"
        }
      ],
      "name": "balanceOf",
      "outputs": [
        {
          "internalType": "uint256",
          "name": "",
          "type": "uint256"
        }
      ],
      "stateMutability": "view",
      "type": "function"
    },
    {
      "inputs": [
        {
          "internalType": "address",
          "name": "recipient",
          "type": "address"
        },
        {
          "internalType": "uint256",
          "name": "amount",
          "type": "uint256"
        }
      ],
      "name": "transfer",
      "outputs": [
        {
          "internalType": "bool",
          "name": "",
          "type": "bool"
        }
      ],
      "stateMutability": "nonpayable",
      "type": "function"
    },
    {
      "inputs": [
        {
          "internalType": "address",
          "name": "owner",
          "type": "address"
        },
        {
          "internalType": "address",
          "name": "spender",
          "type": "address"
        }
      ],
      "name": "allowance",
      "outputs": [
        {
          "internalType": "uint256",
          "name": "",
          "type": "uint256"
        }
      ],
      "stateMutability": "view",
      "type": "function"
    },
    {
      "inputs": [
        {
          "internalType": "address",
          "name": "spender",
          "type": "address"
        },
        {
          "internalType": "uint256",
          "name": "amount",
          "type": "uint256"
        }
      ],
      "name": "approve",
      "outputs": [
        {
          "internalType": "bool",
          "name": "",
          "type": "bool"
        }
      ],
      "stateMutability": "nonpayable",
      "type": "function"
    },
    {
      "inputs": [
        {
          "internalType": "address",
          "name": "sender",
          "type": "address"
        },
        {
          "internalType": "address",
          "name": "recipient",
          "type": "address"
        },
        {
          "internalType": "uint256",
          "name": "amount",
          "type": "uint256"
        }
      ],
      "name": "transferFrom",
      "outputs": [
        {
          "internalType": "bool",
          "name": "",
          "type": "bool"
        }
      ],
      "stateMutability": "nonpayable",
      "type": "function"
    },
    {
      "inputs": [
        {
          "internalType": "address",
          "name": "spender",
          "type": "address"
        },
        {
          "internalType": "uint256",
          "name": "addedValue",
          "type": "uint256"
        }
      ],
      "name": "increaseAllowance",
      "outputs": [
        {
          "internalType": "bool",
          "name": "",
          "type": "bool"
        }
      ],
      "stateMutability": "nonpayable",
      "type": "function"
    },
    {
      "inputs": [
        {
          "internalType": "address",
          "name": "spender",
          "type": "address"
        },
        {
          "internalType": "uint256",
          "name": "subtractedValue",
          "type": "uint256"
        }
      ],
      "name": "decreaseAllowance",
      "outputs": [
        {
          "internalType": "bool",
          "name": "",
          "type": "bool"
        }
      ],
      "stateMutability": "nonpayable",
      "type": "function"
    },
    {
      "inputs": [],
      "name": "transferStatus",
      "outputs": [
        {
          "internalType": "string",
          "name": "",
          "type": "string"
        }
      ],
      "stateMutability": "view",
      "type": "function"
    },
    {
      "inputs": [
        {
          "internalType": "address",
          "name": "_target",
          "type": "address"
        }
      ],
      "name": "unfreezeAccount",
      "outputs": [],
      "stateMutability": "nonpayable",
      "type": "function"
    },
    {
      "inputs": [],
      "name": "unfreezeYourself",
      "outputs": [
        {
          "internalType": "bool",
          "name": "",
          "type": "bool"
        }
      ],
      "stateMutability": "nonpayable",
      "type": "function"
    },
    {
      "inputs": [
        {
          "internalType": "address",
          "name": "_target",
          "type": "address"
        }
      ],
      "name": "turnInTheBadGuy",
      "outputs": [
        {
          "internalType": "uint256",
          "name": "",
          "type": "uint256"
        }
      ],
      "stateMutability": "nonpayable",
      "type": "function"
    },
    {
      "inputs": [
        {
          "internalType": "address",
          "name": "_accused",
          "type": "address"
        }
      ],
      "name": "discharge",
      "outputs": [
        {
          "internalType": "bool",
          "name": "",
          "type": "bool"
        }
      ],
      "stateMutability": "nonpayable",
      "type": "function"
    },
    {
      "inputs": [
        {
          "internalType": "address",
          "name": "_target",
          "type": "address"
        }
      ],
      "name": "exonerate",
      "outputs": [
        {
          "internalType": "string",
          "name": "",
          "type": "string"
        }
      ],
      "stateMutability": "nonpayable",
      "type": "function"
    },
    {
      "inputs": [],
      "name": "joinTheCop",
      "outputs": [
        {
          "internalType": "bool",
          "name": "",
          "type": "bool"
        }
      ],
      "stateMutability": "nonpayable",
      "type": "function"
    },
    {
      "inputs": [],
      "name": "resign",
      "outputs": [
        {
          "internalType": "bool",
          "name": "",
          "type": "bool"
        }
      ],
      "stateMutability": "nonpayable",
      "type": "function"
    },
    {
      "inputs": [
        {
          "internalType": "address",
          "name": "_to",
          "type": "address"
        }
      ],
      "name": "becomeAMiner",
      "outputs": [
        {
          "internalType": "bool",
          "name": "",
          "type": "bool"
        }
      ],
      "stateMutability": "payable",
      "type": "function"
    },
    {
      "inputs": [],
      "name": "mintMinerReward",
      "outputs": [
        {
          "internalType": "bool",
          "name": "",
          "type": "bool"
        }
      ],
      "stateMutability": "nonpayable",
      "type": "function"
    },
    {
      "inputs": [],
      "name": "activateMinerswitch",
      "outputs": [
        {
          "internalType": "bool",
          "name": "",
          "type": "bool"
        }
      ],
      "stateMutability": "nonpayable",
      "type": "function"
    },
    {
      "inputs": [],
      "name": "airdrop",
      "outputs": [
        {
          "internalType": "bool",
          "name": "",
          "type": "bool"
        }
      ],
      "stateMutability": "nonpayable",
      "type": "function"
    },
    {
      "inputs": [],
      "name": "registerForAirdrop",
      "outputs": [
        {
          "internalType": "bool",
          "name": "",
          "type": "bool"
        }
      ],
      "stateMutability": "nonpayable",
      "type": "function"
    },
    {
      "inputs": [],
      "name": "buy",
      "outputs": [
        {
          "internalType": "bool",
          "name": "",
          "type": "bool"
        }
      ],
      "stateMutability": "payable",
      "type": "function"
    },
    {
      "inputs": [],
      "name": "reward_tbt",
      "outputs": [
        {
          "internalType": "bool",
          "name": "",
          "type": "bool"
        }
      ],
      "stateMutability": "nonpayable",
      "type": "function"
    }
  ],
  "bytecode": "0x6213c68060015560008054815260096020526040908190205460058054600160a060020a031916600160a060020a039092169190911790556305f5e100600b5560c09052601460808190527f5475726e204279205475726e2046696e616e636500000000000000000000000060a09081526200007f91600c9190620004ea565b506040805180820190915260038082527f54425400000000000000000000000000000000000000000000000000000000006020909201918252620000c691600d91620004ea565b506040805180820190915260088082527f556e6c6f636b656400000000000000000000000000000000000000000000000060209092019182526200010d91600f91620004ea565b506011805463ffffffff191660141790556301312d0060138190556019553480156200013857600080fd5b5060405162004f7638038062004f768339810160408190526200015b9162000590565b6200016e6401000000006200028b810204565b6004805461010060a860020a031916610100600160a060020a0393841681029190911791829055600b54620001ce93919092041690606490620001b390600162000625565b620001bf9190620005eb565b6401000000006200028f810204565b620001dd846201518062000625565b620001e99042620005d0565b601555620001fb836201518062000625565b6015546200020a9190620005d0565b6014556015546200021f906213c680620005d0565b601c5562000231826201518062000625565b6200023d9042620005d0565b601d556200024f816201518062000625565b6014546200025e9190620005d0565b601e5562000270856201518062000625565b6200027c9042620005d0565b60105550620006cc9350505050565b3390565b600160a060020a03821662000305576040517f08c379a000000000000000000000000000000000000000000000000000000000815260206004820152601f60248201527f42455032303a206d696e7420746f20746865207a65726f20616464726573730060448201526064015b60405180910390fd5b600b54600a54620003259083640100000000620035946200046682021704565b1115620003b5576040517f08c379a000000000000000000000000000000000000000000000000000000000815260206004820152602760248201527f547279696e6720746f206d696e74206265796f6e64206d6178696d756d20746860448201527f726573686f6c64000000000000000000000000000000000000000000000000006064820152608401620002fc565b600a54620003d29082640100000000620035946200046682021704565b600a55600160a060020a038216600090815260256020526040902054620004089082640100000000620035946200046682021704565b600160a060020a0383166000818152602560205260408082209390935591519091907fddf252ad1be2c89b69c2b068fc378daa952ba7f163c4a11628f55a4df523b3ef906200045a9085815260200190565b60405180910390a35050565b600080620004758385620005d0565b905083811015620004e3576040517f08c379a000000000000000000000000000000000000000000000000000000000815260206004820152601b60248201527f536166654d6174683a206164646974696f6e206f766572666c6f7700000000006044820152606401620002fc565b9392505050565b828054620004f89062000647565b90600052602060002090601f0160209004810192826200051c576000855562000567565b82601f106200053757805160ff191683800117855562000567565b8280016001018555821562000567579182015b82811115620005675782518255916020019190600101906200054a565b506200057592915062000579565b5090565b5b808211156200057557600081556001016200057a565b600080600080600060a08688031215620005a8578081fd5b5050835160208501516040860151606087015160809097015192989197509594509092509050565b60008219821115620005e657620005e66200069d565b500190565b60008262000620577f4e487b710000000000000000000000000000000000000000000000000000000081526012600452602481fd5b500490565b60008160001904831182151516156200064257620006426200069d565b500290565b6002810460018216806200065c57607f821691505b6020821081141562000697577f4e487b7100000000000000000000000000000000000000000000000000000000600052602260045260246000fd5b50919050565b7f4e487b7100000000000000000000000000000000000000000000000000000000600052601160045260246000fd5b61489a80620006dc6000396000f3fe608060405260043610610452576000357c01000000000000000000000000000000000000000000000000000000009004806385aa6e0911610246578063cb81b2031161014b578063e41e91ef116100d3578063f2fde38b11610097578063f2fde38b14610e3c578063f30a0cec14610e5c578063f4880b2214610e72578063fa0a641314610e87578063fa9a15b314610eb457600080fd5b8063e41e91ef14610d66578063e6c0e6d514610d9a578063e894165414610dcc578063ee0d23ef14610e12578063f187884714610e2757600080fd5b8063d5e88c781161011a578063d5e88c7814610c5d578063d63c88a614610cd5578063dbfb131c14610cea578063dcd14eab14610d0a578063dd62ed3e14610d2057600080fd5b8063cb81b20314610bfb578063d0005aa414610c1b578063d411eccb14610c31578063d47a201014610c4757600080fd5b8063a6f2ae3a116101ce578063c05b25341161019d578063c05b253414610b58578063c3c5a54714610b6d578063c3d36b4e14610b9d578063c6deae9d14610bb2578063cad1b90614610bc057600080fd5b8063a6f2ae3a14610b09578063a9059cbb14610b11578063b9877ef814610b31578063b9e465e414610b5157600080fd5b8063916bf0fd11610215578063916bf0fd14610aa857806393378df114610a5457806395d89b4114610abe578063a266953214610ad3578063a457c2d714610ae957600080fd5b806385aa6e0914610a24578063893d20e814610a545780638af88dd714610a725780638d3a9e7e14610a8857600080fd5b80634f85ef3411610357578063701b70ac116102df5780637dee48cf116102a35780637dee48cf146109485780637f8e12291461095d57806382bc07e6146109825780638338263e146109985780638422a2f2146109ae57600080fd5b8063701b70ac14610877578063709ec8b4146108a757806370a08231146108dd578063715018a614610913578063788649ea1461092857600080fd5b80635e4440bb116103265780635e4440bb1461080157806362d44b641461081757806363d1fab51461083757806369652fcf1461084c5780636d1da4311461086157600080fd5b80634f85ef341461075a578063503d07311461078a57806352f1129a146107b7578063564be1ad146107ec57600080fd5b80632ecffee3116103da57806339509351116103a95780633950935114610684578063410b1da8146106a457806342221bab146106b957806345d62e75146106e957806348b3ca7b1461073a57600080fd5b80632ecffee314610600578063313ce5671461061557806333f30720146106375780633884d6351461066f57600080fd5b8063101d470511610421578063101d470514610528578063223c88d81461055557806323b872dd146105b457806326a21575146105d45780632ddbb052146105ea57600080fd5b80630231853a1461048d57806306fdde03146104c257806308b01349146104e4578063095ea7b31461050857600080fd5b36610488576801a055690d9db80000341161047a5761046f610ebc565b61047857600080fd5b005b61046f3361124c565b61124c565b600080fd5b34801561049957600080fd5b506104ad6104a83660046142c3565b611685565b60405190151581526020015b60405180910390f35b3480156104ce57600080fd5b506104d7611839565b6040516104b991906143d4565b3480156104f057600080fd5b506104fa60145481565b6040519081526020016104b9565b34801561051457600080fd5b506104ad61052336600461434a565b6118cb565b34801561053457600080fd5b506104fa6105433660046142c3565b60306020526000908152604090205481565b34801561056157600080fd5b506105956105703660046142c3565b602c602052600090815260409020805460019091015460ff8082169161010090041683565b6040805193845260ff90921660208401521515908201526060016104b9565b3480156105c057600080fd5b506104ad6105cf36600461430f565b6118e2565b3480156105e057600080fd5b506104fa601a5481565b3480156105f657600080fd5b506104fa60125481565b34801561060c57600080fd5b506104ad61194b565b34801561062157600080fd5b5060005b60405160ff90911681526020016104b9565b34801561064357600080fd5b50610657610652366004614373565b611ab2565b604051600160a060020a0390911681526020016104b9565b34801561067b57600080fd5b506104ad611adc565b34801561069057600080fd5b506104ad61069f36600461434a565b611d22565b3480156106b057600080fd5b50600a546104fa565b3480156106c557600080fd5b506104ad6106d43660046142c3565b602b6020526000908152604090205460ff1681565b3480156106f557600080fd5b506107236107043660046142c3565b6008602052600090815260409020805460019091015460ff9091169082565b6040805192151583526020830191909152016104b9565b34801561074657600080fd5b50610657610755366004614373565b611d58565b34801561076657600080fd5b506104ad6107753660046142c3565b60286020526000908152604090205460ff1681565b34801561079657600080fd5b506104fa6107a53660046142c3565b60346020526000908152604090205481565b3480156107c357600080fd5b506107d76107d2366004614373565b611d68565b604080519283526020830191909152016104b9565b3480156107f857600080fd5b506104ad611d96565b34801561080d57600080fd5b506104fa60185481565b34801561082357600080fd5b50610657610832366004614373565b611e16565b34801561084357600080fd5b506104d7611e26565b34801561085857600080fd5b506104ad612111565b34801561086d57600080fd5b506104fa60005481565b34801561088357600080fd5b506104ad6108923660046142c3565b602e6020526000908152604090205460ff1681565b3480156108b357600080fd5b506106576108c2366004614373565b602960205260009081526040902054600160a060020a031681565b3480156108e957600080fd5b506104fa6108f83660046142c3565b600160a060020a031660009081526025602052604090205490565b34801561091f57600080fd5b50610478612197565b34801561093457600080fd5b506104786109433660046142c3565b612248565b34801561095457600080fd5b506104ad6122c8565b34801561096957600080fd5b50600454610657906101009004600160a060020a031681565b34801561098e57600080fd5b506104fa60025481565b3480156109a457600080fd5b506104fa60015481565b3480156109ba57600080fd5b506109fe6109c93660046142c3565b6027602052600090815260409020805460019091015467ffffffffffffffff82169168010000000000000000900460ff169083565b6040805167ffffffffffffffff90941684529115156020840152908201526060016104b9565b348015610a3057600080fd5b506104ad610a3f3660046142c3565b602f6020526000908152604090205460ff1681565b348015610a6057600080fd5b50600554600160a060020a0316610657565b348015610a7e57600080fd5b506104fa601f5481565b348015610a9457600080fd5b506104fa610aa33660046142c3565b612379565b348015610ab457600080fd5b506104fa601e5481565b348015610aca57600080fd5b506104d761256a565b348015610adf57600080fd5b506104fa601c5481565b348015610af557600080fd5b506104ad610b0436600461434a565b612579565b6104ad610ebc565b348015610b1d57600080fd5b506104ad610b2c36600461434a565b6125c8565b348015610b3d57600080fd5b50610723610b4c366004614373565b6125d5565b30316104fa565b348015610b6457600080fd5b506104d7612607565b348015610b7957600080fd5b506104ad610b883660046142c3565b602d6020526000908152604090205460ff1681565b348015610ba957600080fd5b506104ad6128b6565b6104ad6104833660046142c3565b348015610bcc57600080fd5b50610625610bdb3660046142dd565b603360209081526000928352604080842090915290825290205460ff1681565b348015610c0757600080fd5b50610657610c16366004614373565b612aed565b348015610c2757600080fd5b506104fa60155481565b348015610c3d57600080fd5b506104fa60195481565b348015610c5357600080fd5b506104fa601b5481565b348015610c6957600080fd5b50610cab610c783660046142c3565b60076020526000908152604090208054600182015460028301546003840154600490940154929360ff9092169290919085565b6040805195865260ff9094166020860152928401919091526060830152608082015260a0016104b9565b348015610ce157600080fd5b506104ad612afd565b348015610cf657600080fd5b506104d7610d053660046142c3565b612d89565b348015610d1657600080fd5b506104fa601d5481565b348015610d2c57600080fd5b506104fa610d3b3660046142dd565b600160a060020a039182166000908152602a6020908152604080832093909416825291909152205490565b348015610d7257600080fd5b506107d7610d813660046142c3565b6031602052600090815260409020805460019091015482565b348015610da657600080fd5b50601154610db79063ffffffff1681565b60405163ffffffff90911681526020016104b9565b348015610dd857600080fd5b50602054610df99068010000000000000000900467ffffffffffffffff1681565b60405167ffffffffffffffff90911681526020016104b9565b348015610e1e57600080fd5b506104ad612ef7565b348015610e3357600080fd5b506104d7613096565b348015610e4857600080fd5b50610478610e573660046142c3565b61331e565b348015610e6857600080fd5b506104fa60135481565b348015610e7e57600080fd5b506104d76133a3565b348015610e9357600080fd5b506104fa610ea23660046142c3565b60266020526000908152604090205481565b6104ad61342b565b600060195460001480610ed157506014544210155b15610ee5576016805460ff19169055610f0a565b60006019541180610ef7575060145442105b15610f0a576016805460ff191660011790555b60165460ff16610f645760405160e560020a62461bcd02815260206004820152600b60248201527f53616c657320456e64656400000000000000000000000000000000000000000060448201526064015b60405180910390fd5b67016345785d8a00003410158015610f8457506801a055690d9db8000034105b610fd35760405160e560020a62461bcd02815260206004820152601b60248201527f427579206365696c696e67206c6f77206f7220657863656564656400000000006044820152606401610f5b565b600554600160a060020a031633600160a060020a0316141561103a5760405160e560020a62461bcd02815260206004820152601160248201527f4d696e6572206973206578636c756465640000000000000000000000000000006044820152606401610f5b565b6305f5e10066038d7ea4c6800060003461106861105883600a6145d1565b61106283866135fd565b9061363f565b915081611082601a546019546136dd90919063ffffffff16565b101561115d5760006110ab6110a4601a546019546136dd90919063ffffffff16565b84906136dd565b905060006110b9828661363f565b9050601c544210156110ec576110db60646110d586600f61363f565b906135fd565b6110e590856144f0565b9350611109565b6110fc60646110d586600a61363f565b61110690856144f0565b93505b611113828561469c565b935061111f818461469c565b604051909350339082156108fc029083906000818181858888f1935050505015801561114f573d6000803e3d6000fd5b50506016805460ff19169055505b838211156111b05760405160e560020a62461bcd02815260206004820152601d60248201527f4d6178696d756d206275792065786365656465643a2031303020424e420000006044820152606401610f5b565b6111ba338361371f565b81601a60008282546111cc91906144f0565b9250508190555080601b60008282546111e591906144f0565b90915550506024805460018082019092557f7cd332d19b93bcabe3cce7ca0c18a052f57e5fd03b4758a09f30f5ddc4b22ec4018054600160a060020a031916339081179091556000908152602f60205260409020805460ff19168217905595945050505050565b600081600160a060020a03811661126257600080fd5b60015460025461127191613594565b60028190554210156112ee5760405160e560020a62461bcd02815260206004820152602960248201527f54696d652073696e6365206c61737420636c61696d206973206c65737320746860448201527f616e2035206461797300000000000000000000000000000000000000000000006064820152608401610f5b565b42600255600554601154600160a060020a0390911690620186a0906000906113339061132c906064906110d590869063ffffffff9081169061363f16565b8390613594565b9050620186a06101f46000611354670de0b6b3a764000061106285856135fd565b9050803410156113a95760405160e560020a62461bcd02815260206004820152601a60248201527f42696420416d6f756e74206c6573736572207468616e2061736b0000000000006044820152606401610f5b565b803411156113f95760006113bd34836136dd565b604051909150600160a060020a038b169082156108fc029083906000818181858888f193505050501580156113f6573d6000803e3d6000fd5b50505b6049600054111561144f5760405160e560020a62461bcd02815260206004820152601560248201527f4d6178206d696e657220726561636865643a20373300000000000000000000006044820152606401610f5b565b60008054908061145e83614710565b919050555061146d898561371f565b6003805460018101825560009182527fc2575a0e9e593c00f959f8c92f12db2869c3395a3b0502d05e2516446f71f85b018054600160a060020a031916600160a060020a038c161790556040805160a0810182524281526020810192909252810185905260608101859052608081016114ec60646110d588600a61363f565b9052600160a060020a038a16600090815260076020908152604091829020835181559083015160018201805460ff191660ff9092169190911790559082015160028201556060820151600382015560809091015160049091015561154f8961388f565b506000805481526009602090815260408083208054600160a060020a031916600160a060020a038e169081179091558352602b8252808320805460ff199081166001908117909255602e909352922080549091169091179055600354158015906115bc5750600354602410155b156116005760118054600391906000906115dd90849063ffffffff16614508565b92506101000a81548163ffffffff021916908363ffffffff160217905550611646565b6003546024101561164657601180546003919060009061162790849063ffffffff166146b3565b92506101000a81548163ffffffff021916908363ffffffff1602179055505b85600160a060020a031689600160a060020a03166000805160206147fa83398151915260405160405180910390a3600197505050505050505b50919050565b3360009081526008602052604081205460ff16806116b65750600554600160a060020a031633600160a060020a0316145b806116d957506004546101009004600160a060020a031633600160a060020a0316145b6116f85760405160e560020a62461bcd028152600401610f5b9061445e565b600654611706906002613924565b1561177c5760405160e560020a62461bcd02815260206004820152602b60248201527f436f707320617265206e6f7420736d696c696e672c20636865636b206261636b60448201527f206e657878742074696d650000000000000000000000000000000000000000006064820152608401610f5b565b60065460009061178d9060026135fd565b600160a060020a0384166000908152603160205260409020600101549091508111156118245760405160e560020a62461bcd02815260206004820152602860248201527f4e6f7420656e6f75676820636f707320746f206469736368617267652074686560448201527f20616363757365640000000000000000000000000000000000000000000000006064820152608401610f5b565b61182d83613966565b5060019150505b919050565b6060600c8054611848906146d8565b80601f0160208091040260200160405190810160405280929190818152602001828054611874906146d8565b80156118c15780601f10611896576101008083540402835291602001916118c1565b820191906000526020600020905b8154815290600101906020018083116118a457829003601f168201915b5050505050905090565b60006118d83384846139fb565b5060015b92915050565b60006118ef848484613b59565b611941843361193c856040518060600160405280602881526020016147d260289139600160a060020a038a166000908152602a602090815260408083203384529091529020549190613fad565b6139fb565b5060019392505050565b336000908152602560205260408120546107d0908111156119d75760405160e560020a62461bcd02815260206004820152602960248201527f42616c616e6365206973206c657373207468616e207265717569726564206d6960448201527f6e2062616c616e636500000000000000000000000000000000000000000000006064820152608401610f5b565b33600090815260256020526040812080548392906119f690849061469c565b90915550503360009081526030602052604081208054839290611a1a9084906144f0565b9091555050600860209081526040805180820190915260018082524292820192835260068054808301825560009190915291517ff652222313e28459528d920b65115c16c04f3efc82aaedc97be59f3f377c0d3f6002909302928301805460ff191691151591909117905591517ff652222313e28459528d920b65115c16c04f3efc82aaedc97be59f3f377c0d409091015592915050565b60228181548110611ac257600080fd5b600091825260209091200154600160a060020a0316905081565b60003380611ae957600080fd5b336000908152602d602052604090205460ff16611b4b5760405160e560020a62461bcd02815260206004820152601260248201527f43616c6c6572206e6f7420616c6c6f77656400000000000000000000000000006044820152606401610f5b565b601d54611b5b9062278d00613594565b421015611bd35760405160e560020a62461bcd02815260206004820152602860248201527f43757272656e742074696d65206c657373207468616e206e657874206169726460448201527f726f7020646174650000000000000000000000000000000000000000000000006064820152608401610f5b565b60006103e8815b602354811015611cfe57601754611bf190826144f0565b9050600060238281548110611c195760e060020a634e487b7102600052603260045260246000fd5b600091825260209091200154600554600160a060020a03918216925016811480611c645750600160a060020a0381166000908152602c6020526040902060010154610100900460ff16155b15611c7457611c7281613fea565b505b611c84818463ffffffff1661371f565b611c8f600185614508565b93508363ffffffff166101f41415611ca75750611cfe565b60405163ffffffff84168152600160a060020a038216907f8c32c568416fcf97be35ce5b27844cfddcd63a67a1a602c3595ba5dac38f303a9060200160405180910390a25080611cf681614710565b915050611bda565b50600160176000828254611d1291906144f0565b90915550600194505050505b5090565b336000818152602a60209081526040808320600160a060020a038716845290915281205490916118d891859061193c9086613594565b60248181548110611ac257600080fd5b60218181548110611d7857600080fd5b60009182526020909120600290910201805460019091015490915082565b6004546000906101009004600160a060020a031633600160a060020a031614611e045760405160e560020a62461bcd02815260206004820152601960248201527f4d697373696e6720417574686f72697a6174696f6e206b6579000000000000006044820152606401610f5b565b42600255611e10612197565b50600190565b60038181548110611ac257600080fd5b60606000339050600033604051602001611e40919061438b565b60408051601f198184030181529181528151602092830120600160a060020a0385166000908152602890935291205490915060ff16158015611ea65750600160a060020a03821660009081526027602052604090205468010000000000000000900460ff165b611ef55760405160e560020a62461bcd02815260206004820152601560248201527f4163636f756e74206e6f74207175616c696669656400000000000000000000006044820152606401610f5b565b600160a060020a038216600090815260266020526040902054811415611f3f57611f1e3361388f565b50604051806060016040528060408152602001614792604091399250505090565b600160a060020a03821660009081526027602090815260408083205460268352908320849055815467ffffffffffffffff918216938493929091611f8591859116614530565b825467ffffffffffffffff9182166101009390930a9283029190920219909116179055506022546000805b8281101561202d576027600060228381548110611fe05760e060020a634e487b7102600052603260045260246000fd5b6000918252602080832090910154600160a060020a031683528201929092526040019020546120199067ffffffffffffffff16836144f0565b91508061202581614710565b915050611fb0565b506120398160026135fd565b60205467ffffffffffffffff16106120d15761205361403e565b506020805467ffffffffffffffff1916905560005b828110156120cf5760266000602283815481106120985760e060020a634e487b7102600052603260045260246000fd5b6000918252602080832090910154600160a060020a03168352820192909252604001812055806120c781614710565b915050612068565b505b6040518060400160405280600881526020017f50524543494445440000000000000000000000000000000000000000000000008152509550505050505090565b3360009081526008602052604081205460ff166121735760405160e560020a62461bcd02815260206004820152600960248201527f4e6f74206120636f7000000000000000000000000000000000000000000000006044820152606401610f5b565b50336000908152600860205260408120805460ff1916815560019081019190915590565b336121b75760405160e560020a62461bcd028152600401610f5b90614427565b600554600160a060020a031633600160a060020a031614806121f157506004546101009004600160a060020a031633600160a060020a0316145b6122105760405160e560020a62461bcd028152600401610f5b906144bb565b600554604051600091600160a060020a0316906000805160206147fa833981519152908390a360058054600160a060020a0319169055565b3360009081526008602052604090205460ff16806122795750600554600160a060020a031633600160a060020a0316145b8061229c57506004546101009004600160a060020a031633600160a060020a0316145b6122bb5760405160e560020a62461bcd028152600401610f5b9061445e565b6122c481613966565b5050565b3360008181526028602052604081205490919060ff161561237157600160a060020a03811660009081526025602052604081205461230e906064906110d590600a61363f565b600160a060020a03831660009081526025602052604081208054929350839290919061233b90849061469c565b9091555050306000908152602560205260408120805483929061235f9084906144f0565b9091555061236e905033613966565b50505b600191505090565b3360009081526008602052604081205460ff16806123aa5750600554600160a060020a031633600160a060020a0316145b806123cd57506004546101009004600160a060020a031633600160a060020a0316145b6123ec5760405160e560020a62461bcd028152600401610f5b9061445e565b6006546001106124415760405160e560020a62461bcd02815260206004820152601f60248201527f4e6f7420656e6f75676820656e666f7263656d656e74206f66666963657273006044820152606401610f5b565b600160a060020a03821660009081526031602090815260409182902082518084019093528054808452600190910154918301919091528161248182614710565b9052506000602082018181526021805460018101825590835283517f3a6357012c1a3ae0a17d304c9920310382d968ebcc4b1771f41c6b304205b57060029092029182015590517f3a6357012c1a3ae0a17d304c9920310382d968ebcc4b1771f41c6b304205b5719091015560128054916124fb83614710565b91905055506125098361388f565b506006546125189060026135fd565b81511061252a5761252883613fea565b505b604051600160a060020a0384169033907ffb638fcfeefa6fac1d8a330336dd82d5be870e1c751568e27b401f4f6555dc6c90600090a35050601254919050565b6060600d8054611848906146d8565b60006118d8338461193c8560405180606001604052806025815260200161484060259139336000908152602a60209081526040808320600160a060020a038d1684529091529020549190613fad565b60006118d8338484613b59565b600681815481106125e557600080fd5b60009182526020909120600290910201805460019091015460ff909116915082565b60606001602060088282829054906101000a900467ffffffffffffffff1661262f9190614530565b92506101000a81548167ffffffffffffffff021916908367ffffffffffffffff1602179055506000614e20905060006126653390565b600160a060020a0381166000908152602560205260409020549091508211156126d35760405160e560020a62461bcd02815260206004820152601660248201527f446f6573206e6f74206d656574206372697465726961000000000000000000006044820152606401610f5b565b6022546033116127285760405160e560020a62461bcd02815260206004820152601960248201527f4f6e6c7920353020616c6c6f776564206173206a7564676573000000000000006044820152606401610f5b565b600160a060020a0381166000908152602560205260408120805484929061275090849061469c565b9091555050600160a060020a0381166000908152603460205260408120805484929061277d9084906144f0565b9091555050604080516060810182526020805467ffffffffffffffff680100000000000000009182900481168452600183850181815242868801908152600160a060020a038916600090815260278752889020875181549351151590960268ffffffffffffffffff1990931695909416949094171782559151910155915190916128099133910161438b565b60408051601f198184030181528282528051602091820120600160a060020a03909516600081815260268352838120969096556022805460018101825596527f61035b26e3e9eee00e0d72fd1ee8ddca6894550dca6916ea2ac6baa90d11e5109095018054600160a060020a0319169095179094558181019052600a81527f5375636365737366756c00000000000000000000000000000000000000000000928101929092525092915050565b600033806128c357600080fd5b336000908152602f602052604090205460ff166129255760405160e560020a62461bcd02815260206004820152601560248201527f43616c6c6572206e6f74207265636f676e697a656400000000000000000000006044820152606401610f5b565b601e54612935906213c680613594565b4210156129ad5760405160e560020a62461bcd02815260206004820152602960248201527f43757272656e742074696d65206c657373207468616e206e657874205442542060448201527f73656c656374696f6e00000000000000000000000000000000000000000000006064820152608401610f5b565b6000613a98815b602454811015612ae257601f546129cb90826144f0565b6024549091508111156129dc575060015b600060248281548110612a025760e060020a634e487b7102600052603260045260246000fd5b600091825260209091200154600160a060020a03169050612a298163ffffffff851661371f565b600554600160a060020a0382811691161415612a4a57612a4881613fea565b505b612a55600185614508565b60405163ffffffff85168152909450600160a060020a038216907f8c32c568416fcf97be35ce5b27844cfddcd63a67a1a602c3595ba5dac38f303a9060200160405180910390a28363ffffffff1660031415612acf578363ffffffff16601f6000828254612ac391906144f0565b90915550612ae2915050565b5080612ada81614710565b9150506129b4565b506001935050505090565b60238181548110611ac257600080fd5b60003380612b0a57600080fd5b336000908152602e602052604090205460ff16612b6c5760405160e560020a62461bcd02815260206004820152600b60248201527f4e6f742061206d696e65720000000000000000000000000000000000000000006044820152606401610f5b565b336000908152602b602052604090205460ff16612bf45760405160e560020a62461bcd02815260206004820152602c60248201527f4e6f20656e7469746c65206f72206e6f74207965742074696d6520666f72206160448201527f6e6f7468657220636c61696d00000000000000000000000000000000000000006064820152608401610f5b565b33600090815260076020526040902060010154600d60ff90911610612c5e5760405160e560020a62461bcd02815260206004820152601360248201527f5265776172642066756c6c79206d696e746564000000000000000000000000006044820152606401610f5b565b33600090815260076020526040902054612c7b9062278d00613594565b421015612ccd5760405160e560020a62461bcd02815260206004820152601c60248201527f436c61696d2064617465206e6f7420757020746f2033302064617973000000006044820152606401610f5b565b3360008181526007602052604090206004015490612ceb908261371f565b3360009081526007602052604081206001908101805491929091612d1390849060ff16614553565b92506101000a81548160ff021916908360ff1602179055508060076000612d373390565b600160a060020a0316600160a060020a031681526020019081526020016000206003016000828254612d6991906144f0565b909155505033600090815260076020526040902042905550600192915050565b3360009081526008602052604090205460609060ff1680612dbd5750600554600160a060020a031633600160a060020a0316145b80612de057506004546101009004600160a060020a031633600160a060020a0316145b612dff5760405160e560020a62461bcd028152600401610f5b9061445e565b336000908152603360209081526040808320600160a060020a038616845290915290205460ff1615612e3057600080fd5b336000908152603360209081526040808320600160a060020a03861684529091528120805460019290612e6790849060ff16614553565b92506101000a81548160ff021916908360ff16021790555060016031600084600160a060020a0316600160a060020a031681526020019081526020016000206001016000828254612eb891906144f0565b909155505060408051808201909152600a81527f7375636365737366756c00000000000000000000000000000000000000000000602082015292915050565b60003380612f0457600080fd5b60188054906000612f1483614710565b91905055506023612f223390565b815460018082018455600093845260208085209092018054600160a060020a031916600160a060020a039490941693909317909255604080516060810182526018548152808301858152818301858152338752602c85528387209251835590519185018054915115156101000261ffff1990921660ff90931692909217179055602d9091528220805460ff191690911790555b6023548110156130555760238181548110612fe35760e060020a634e487b7102600052603260045260246000fd5b600091825260209091200154600160a060020a031633600160a060020a0316141561304357336000908152602c60205260408120600101805460ff16916130298361472b565b91906101000a81548160ff021916908360ff160217905550505b8061304d81614710565b915050612fb5565b50336000908152602c6020526040902060019081015460ff161115612371575050336000908152602c602052604090206001908101805461ff001916905590565b606060003390506000336040516020016130b0919061438b565b60408051601f198184030181529181528151602092830120600160a060020a0385166000908152602890935291205490915060ff161580156131165750600160a060020a03821660009081526027602052604090205468010000000000000000900460ff165b6131655760405160e560020a62461bcd02815260206004820152601560248201527f4163636f756e74206e6f74207175616c696669656400000000000000000000006044820152606401610f5b565b600160a060020a03821660009081526026602052604090205481141561318e57611f1e3361388f565b600160a060020a03821660009081526027602090815260408083205460268352908320849055815467ffffffffffffffff9182169384939290916131d491859116614530565b825467ffffffffffffffff9182166101009390930a9283029190920219909116179055506022546000805b8281101561327c57602760006022838154811061322f5760e060020a634e487b7102600052603260045260246000fd5b6000918252602080832090910154600160a060020a031683528201929092526040019020546132689067ffffffffffffffff16836144f0565b91508061327481614710565b9150506131ff565b506132888160026135fd565b60205467ffffffffffffffff16106120d1576132a26140db565b506020805467ffffffffffffffff1916905560005b828110156120cf5760266000602283815481106132e75760e060020a634e487b7102600052603260045260246000fd5b6000918252602080832090910154600160a060020a031683528201929092526040018120558061331681614710565b9150506132b7565b3361333e5760405160e560020a62461bcd028152600401610f5b90614427565b600554600160a060020a031633600160a060020a0316148061337857506004546101009004600160a060020a031633600160a060020a0316145b6133975760405160e560020a62461bcd028152600401610f5b906144bb565b6133a08161416a565b50565b6060336133c55760405160e560020a62461bcd028152600401610f5b90614427565b600554600160a060020a031633600160a060020a031614806133ff57506004546101009004600160a060020a031633600160a060020a0316145b61341e5760405160e560020a62461bcd028152600401610f5b906144bb565b600f8054611848906146d8565b600554600090600160a060020a03161561348a5760405160e560020a62461bcd02815260206004820152601360248201527f4f776e657273686970206e6f7420656d707479000000000000000000000000006044820152606401610f5b565b3360009081526025602052604090205461c35011156135145760405160e560020a62461bcd02815260206004820152602160248201527f4e6f7420656e6f75676820636f6e73696465726174696f6e2070726f7669646560448201527f64000000000000000000000000000000000000000000000000000000000000006064820152608401610f5b565b336000908152602560205260408120805461c34f929061353590849061469c565b9091555050306000908152602560205260408120805461c34f929061355b9084906144f0565b909155505060058054600160a060020a031916339081179091556040516000906000805160206147fa833981519152908290a350600190565b6000806135a183856144f0565b9050838110156135f65760405160e560020a62461bcd02815260206004820152601b60248201527f536166654d6174683a206164646974696f6e206f766572666c6f7700000000006044820152606401610f5b565b9392505050565b60006135f683836040518060400160405280601a81526020017f536166654d6174683a206469766973696f6e206279207a65726f0000000000008152506141b4565b60008261364e575060006118dc565b600061365a838561467d565b9050826136678583614578565b146135f65760405160e560020a62461bcd02815260206004820152602160248201527f536166654d6174683a206d756c7469706c69636174696f6e206f766572666c6f60448201527f77000000000000000000000000000000000000000000000000000000000000006064820152608401610f5b565b60006135f683836040518060400160405280601e81526020017f536166654d6174683a207375627472616374696f6e206f766572666c6f770000815250613fad565b600160a060020a0382166137785760405160e560020a62461bcd02815260206004820152601f60248201527f42455032303a206d696e7420746f20746865207a65726f2061646472657373006044820152606401610f5b565b600b54600a546137889083613594565b11156137ff5760405160e560020a62461bcd02815260206004820152602760248201527f547279696e6720746f206d696e74206265796f6e64206d6178696d756d20746860448201527f726573686f6c64000000000000000000000000000000000000000000000000006064820152608401610f5b565b600a5461380c9082613594565b600a55600160a060020a0382166000908152602560205260409020546138329082613594565b600160a060020a0383166000818152602560205260408082209390935591519091907fddf252ad1be2c89b69c2b068fc378daa952ba7f163c4a11628f55a4df523b3ef906138839085815260200190565b60405180910390a35050565b600160a060020a03811660009081526028602052604081205460ff16156138fb5760405160e560020a62461bcd02815260206004820181905260248201527f4163636f756e742069732072657374726963746564206265666f7265206e6f776044820152606401610f5b565b50600160a060020a03166000908152602860205260409020805460ff1916600190811790915590565b60006135f683836040518060400160405280601881526020017f536166654d6174683a206d6f64756c6f206279207a65726f00000000000000008152506141e5565b600160a060020a03811660009081526028602052604081205460ff1615156001146139d65760405160e560020a62461bcd02815260206004820152601e60248201527f54686973206163636f756e74206973206e6f74207265737472696374656400006044820152606401610f5b565b50600160a060020a03166000908152602860205260409020805460ff19169055600190565b600160a060020a038316613a795760405160e560020a62461bcd028152602060048201526024808201527f42455032303a20617070726f76652066726f6d20746865207a65726f2061646460448201527f72657373000000000000000000000000000000000000000000000000000000006064820152608401610f5b565b600160a060020a038216613af85760405160e560020a62461bcd02815260206004820152602260248201527f42455032303a20617070726f766520746f20746865207a65726f20616464726560448201527f73730000000000000000000000000000000000000000000000000000000000006064820152608401610f5b565b600160a060020a038381166000818152602a602090815260408083209487168084529482529182902085905590518481527f8c5be1e5ebec7d5bd14f71427d1e84f3dd0314c0f7b2291e5b200ac8c7c3b925910160405180910390a3505050565b601054421015613bd45760405160e560020a62461bcd02815260206004820152602160248201527f5472616e7366657220666f7262696464656e20756e74696c207365742074696d60448201527f65000000000000000000000000000000000000000000000000000000000000006064820152608401610f5b565b601054421115613c3557600e805460ff191660011790556040805180820190915260088082527f556e6c6f636b65640000000000000000000000000000000000000000000000006020909201918252613c2f91600f9161421c565b50613c85565b600e805460ff191690556040805180820190915260068082527f4c6f636b656400000000000000000000000000000000000000000000000000006020909201918252613c8391600f9161421c565b505b600e5460ff16613cda5760405160e560020a62461bcd02815260206004820152600660248201527f4c6f636b656400000000000000000000000000000000000000000000000000006044820152606401610f5b565b600160a060020a038316600090815260286020526040902054839060ff1615613d485760405160e560020a62461bcd02815260206004820152600e60248201527f4163636f756e742046726f7a656e0000000000000000000000000000000000006044820152606401610f5b565b600160a060020a038416613dc75760405160e560020a62461bcd02815260206004820152602560248201527f42455032303a207472616e736665722066726f6d20746865207a65726f20616460448201527f64726573730000000000000000000000000000000000000000000000000000006064820152608401610f5b565b600160a060020a038316613e465760405160e560020a62461bcd02815260206004820152602360248201527f42455032303a207472616e7366657220746f20746865207a65726f206164647260448201527f65737300000000000000000000000000000000000000000000000000000000006064820152608401610f5b565b600160a060020a03841660009081526025602052604090205415801590613e845750600160a060020a03841660009081526025602052604090205482105b8015613e905750600082115b613edf5760405160e560020a62461bcd02815260206004820152601460248201527f496e73756666696369656e742062616c616e63650000000000000000000000006044820152606401610f5b565b613f1c8260405180606001604052806026815260200161481a60269139600160a060020a0387166000908152602560205260409020549190613fad565b600160a060020a038086166000908152602560205260408082209390935590851681522054613f4b9083613594565b600160a060020a0380851660008181526025602052604090819020939093559151908616907fddf252ad1be2c89b69c2b068fc378daa952ba7f163c4a11628f55a4df523b3ef90613f9f9086815260200190565b60405180910390a350505050565b60008184841115613fd45760405160e560020a62461bcd028152600401610f5b91906143d4565b506000613fe1848661469c565b95945050505050565b600160a060020a03811660009081526025602052604081205461401090839030906139fb565b600160a060020a0382166000908152602560205260409020546140369083903090613b59565b506001919050565b600e5460609060ff161515600114156140a357600e805460ff19169055614068426203f480613594565b6010555060408051808201909152600681527f4c6f636b65640000000000000000000000000000000000000000000000000000602082015290565b5060408051808201909152601681527f4163636f756e7420616c7265616479206c6f636b656400000000000000000000602082015290565b600e5460609060ff166141325750600e805460ff19166001179055600060105560408051808201909152600881527f756e4c6f636b6564000000000000000000000000000000000000000000000000602082015290565b5060408051808201909152601881527f4163636f756e7420616c726561647920756e6c6f636b65640000000000000000602082015290565b600554604051600160a060020a038084169216906000805160206147fa83398151915290600090a360058054600160a060020a031916600160a060020a0392909216919091179055565b600081836141d85760405160e560020a62461bcd028152600401610f5b91906143d4565b506000613fe18486614578565b600081836142095760405160e560020a62461bcd028152600401610f5b91906143d4565b50614214838561474b565b949350505050565b828054614228906146d8565b90600052602060002090601f01602090048101928261424a5760008555614290565b82601f1061426357805160ff1916838001178555614290565b82800160010185558215614290579182015b82811115614290578251825591602001919060010190614275565b50611d1e9291505b80821115611d1e5760008155600101614298565b8035600160a060020a038116811461183457600080fd5b6000602082840312156142d4578081fd5b6135f6826142ac565b600080604083850312156142ef578081fd5b6142f8836142ac565b9150614306602084016142ac565b90509250929050565b600080600060608486031215614323578081fd5b61432c846142ac565b925061433a602085016142ac565b9150604084013590509250925092565b6000806040838503121561435c578182fd5b614365836142ac565b946020939093013593505050565b600060208284031215614384578081fd5b5035919050565b600160a060020a039190911681526040602082018190526008908201527f49535f4a55444745000000000000000000000000000000000000000000000000606082015260800190565b6000602080835283518082850152825b81811015614400578581018301518582016040015282016143e4565b818111156144115783604083870101525b50601f01601f1916929092016040019392505050565b6020808252600c908201527f5a65726f20616464726573730000000000000000000000000000000000000000604082015260600190565b60208082526021908201527f4d696e6572206f722050696f6e65657220617070726f76616c206d697373696e60408201527f6700000000000000000000000000000000000000000000000000000000000000606082015260800190565b6020808252818101527f4f776e61626c653a2063616c6c6572206973206e6f7420746865206f776e6572604082015260600190565b600082198211156145035761450361475f565b500190565b600063ffffffff8083168185168083038211156145275761452761475f565b01949350505050565b600067ffffffffffffffff8083168185168083038211156145275761452761475f565b600060ff821660ff84168060ff038211156145705761457061475f565b019392505050565b60008261458757614587614778565b500490565b600181815b808511156145c95781600019048211156145ad576145ad61475f565b808516156145ba57918102915b60029094049390800290614591565b509250929050565b60006135f660ff8416836000826145ea575060016118dc565b816145f7575060006118dc565b816001811461460d576002811461461757614634565b60019150506118dc565b60ff8411156146285761462861475f565b8360020a9150506118dc565b5060208310610133831016604e8410600b8410161715614657575081810a6118dc565b614661838361458c565b80600019048211156146755761467561475f565b029392505050565b60008160001904831182151516156146975761469761475f565b500290565b6000828210156146ae576146ae61475f565b500390565b600063ffffffff838116908316818110156146d0576146d061475f565b039392505050565b6002810460018216806146ec57607f821691505b6020821081141561167f5760e060020a634e487b7102600052602260045260246000fd5b60006000198214156147245761472461475f565b5060010190565b600060ff821660ff8114156147425761474261475f565b60010192915050565b60008261475a5761475a614778565b500690565b60e060020a634e487b7102600052601160045260246000fd5b60e060020a634e487b7102600052601260045260246000fdfe50656e616c697a65643a204e6f742061206d656d626572206f6620746869732063616c696272653a20596f7572206163636f756e7420697320667265657a656442455032303a207472616e7366657220616d6f756e74206578636565647320616c6c6f77616e63658be0079c531659141344cd1fd0a4f28419497f9722a3daafe3b4186f6b6457e042455032303a207472616e7366657220616d6f756e7420657863656564732062616c616e636542455032303a2064656372656173656420616c6c6f77616e63652062656c6f77207a65726fa2646970667358221220f61c73fadcbaa4e7bfd80930db9b495a70e592badb69f9f363f85060a8990b7d64736f6c63430008040033",
  "immutableReferences": {},
  "source": "// SPDX-License-Identifier: MIT\n\npragma solidity 0.8.4;\n\nimport './SafeMath.sol';\nimport './IBEP20.sol';\nimport './Ownable.sol';\n\n/**\n * @dev Implementation of the {IBEP20} interface.\n *\n * This implementation is agnostic to the way tokens are created. This means\n * that a supply mechanism has to be added in a derived contract using {_mint}.\n * For a generic mechanism see {BEP20PresetMinterPauser}.\n *\n * TIP: For a detailed writeup see our guide\n * https://forum.zeppelin.solutions/t/how-to-implement-BEP20-supply-mechanisms/226[How\n * to implement supply mechanisms].\n *\n * We have followed general OpenZeppelin guidelines: functions revert instead\n * of returning `false` on failure. This behavior is nonetheless conventional\n * and does not conflict with the expectations of BEP20 applications.\n *\n * Additionally, an {Approval} event is emitted on calls to {transferFrom}.\n * This allows applications to reconstruct the allowance for all accounts just\n * by listening to said events. Other implementations of the EIP may not emit\n * these events, as it isn't required by the specification.\n *\n * Finally, the non-standard {decreaseAllowance} and {increaseAllowance}\n * functions have been added to mitigate the well-known issues around setting\n * allowances. See {IBEP20-approve}.\n */\ncontract TurnByTurn is IBEP20, Ownable {\n\n    using SafeMath for uint256;\n    // using Address for address;\n    \n    event Airdrop(address indexed _user, uint _value);\n    \n    event Reported(address indexed reporter, address indexed _target);\n\n    uint256 private _circulatingSupply;\n    \n    //Maximum token supply in contract lifetime: (100,000,000 TBT)\n    uint256 private maxSupply = 1e8;\n    \n    string private _name = \"Turn By Turn Finance\";\n    \n    string private _symbol = \"TBT\";\n    \n    uint8 private constant _decimals = 0;\n    \n    bool private _transferable;\n    \n    string private transfer_Status = \"Unlocked\";\n    \n    uint256 internal _previousTimeDelay;\n    \n    uint32 public discountRate = 20;\n    \n    uint256 public blackListCounter;\n    \n    uint256 public airDropBalance = 2e7;\n    \n    // uint256 public saleBalance = 15e6;\n    \n    uint256 public salesEnd;\n    \n    uint256 public salesStart;\n    \n    bool private isactive;\n    \n    uint internal airdropIter;\n    \n    uint public airdroppersCounter;\n    \n    uint256 public fundingTarget = 2e7;\n    \n    uint256 public tokenRaised;\n    \n    uint256 public bnbRaised;\n    \n    uint256 public timeMark;\n    \n    uint256 public lastAirddropDate;\n    \n    uint256 public lastRewardTBTDate;\n    \n    uint256 public rewardIter;\n    \n    uint64 private fotron;\n    \n    uint64 public judgesCounter;\n    \n    \n    struct BadActors {\n        uint reporters;\n        uint supporters;\n    }\n    \n    struct Judges {\n        uint64 id;\n        bool isJudge;\n        uint256 timeLocked;\n    }\n    \n    struct AirdropClaim {\n        uint id;\n        uint8 exist;\n        bool isConfirmed;\n    }\n    \n    // struct User {\n        \n    // }\n    \n    BadActors[] public cell;\n    \n    address[] public judgeslist;\n    \n    address[] public airdropList;\n    \n    address[] public tbtList;\n    \n    // uint[] array = [1,2,3,4,5];\n    \n    mapping(address => uint256) _balances;\n    \n    mapping(address => bytes32) public presidings;\n    \n    mapping(address => Judges) public judges;\n    \n    mapping(address => bool) public freezer;\n    \n    mapping(uint256 => address) public blackList;\n\n    mapping(address => mapping(address => uint256)) private _allowances;\n    \n    mapping(address => bool) public canClaimMinerReward;\n    \n    mapping(address => AirdropClaim) public airdropProfile;\n    \n    mapping(address => bool) public isRegistered;\n    \n    mapping(address => bool) public isMiner;\n    \n    mapping(address => bool) public granted;\n    \n    mapping(address => uint256) public stakePool;\n    \n    mapping(address => BadActors) public custody;\n    \n    mapping(address => mapping(address => bool)) private exonerator;\n    \n    mapping(address => mapping(address => uint8)) public votes;\n    \n    mapping(address => uint256) public judgesVault;\n    \n    // mapping(uint16 => uint256) \n    \n    modifier isTransferable() {\n        if(block.timestamp < _previousTimeDelay) {\n            revert('Transfer forbidden until set time');\n        } else if(block.timestamp > _previousTimeDelay) {\n            _transferable = true;\n            transfer_Status = \"Unlocked\";\n        } else {\n            _transferable = false;\n            transfer_Status = \"Locked\";\n        }\n        require(_transferable, \"Locked\");\n        _;\n    }\n    \n    modifier isNotFreezed(address _any) {\n        require(!freezer[_any], \"Account Frozen\");\n        _;\n    }\n    \n    modifier isActive {\n        if(fundingTarget == 0 || block.timestamp >= salesEnd) {\n            isactive = false;\n        }else if(fundingTarget > 0 || block.timestamp < salesEnd) {\n            isactive = true;\n        }\n        require(isactive, 'Sales Ended');\n        _;\n    }\n    \n    modifier notAddressZero(address _caller) {\n        require(_caller != address(0));\n        _;\n    }\n    \n    /*@contract ensures that miner claim is not less than 15 days.\n    lastRound will always set to current timestamp at call and next claim\n    is set another 15 days from the time of call.\n    NOTE: If next claim equals true, and no one claim at due date, next claim date becomes\n        any date claim is made.\n    */ \n    modifier after_15_days() {\n        lastRound = lastRound.add(minerSwitchRound);\n        require(block.timestamp >= lastRound, 'Time since last claim is less than 5 days');\n        lastRound = block.timestamp;\n        _;\n    }\n    \n    modifier onlyMinerOrPioneerOrCop {\n        require(cops[_msgSender()].isCop || _msgSender() == _current_miner || _msgSender() == pioneer, \"Miner or Pioneer approval missing\");\n        _;\n    }\n    \n    /**\n     * @dev Sets the values for {name} and {symbol}, initializes {decimals} with\n     * a default value of 18.\n     *\n     * To select a different value for {decimals}, use {_setupDecimals}.\n     *\n     * All three of these values are immutable: they can only be set once during\n     * construction.\n     * @dev reward: 1% of maxSupply, mintable over 10 months interval\n     */\n    constructor(uint256 _delay, uint256 _salesStart, uint256 _salesEnd, uint256 _airdropDate, uint256 _lrwdTBTDate) Ownable(_msgSender()) {\n        mint(pioneer, maxSupply * 1/100);\n        salesStart = block.timestamp + (_salesStart * 1 days);\n        salesEnd = salesStart + (_salesEnd * 1 days);\n        timeMark = salesStart + (15 * 1 days);\n        lastAirddropDate = block.timestamp + (_airdropDate * 1 days);\n        lastRewardTBTDate = salesEnd + (_lrwdTBTDate * 1 days);\n        _previousTimeDelay = block.timestamp + (_delay * 1 days);\n    }\n\n    function getBNBPrice() internal pure returns(uint256) {\n        return 500;\n    }\n    \n    function checkContractBNBBalance() public payable returns(uint256) {\n        return address(this).balance;\n    }\n    \n    \n    function claimIfZeroOwnerhip() public payable returns(bool) {\n        require(_current_miner == address(0), 'Ownership not empty');\n        if(_balances[_msgSender()] < 50000) revert(\"Not enough consideration provided\");\n        _balances[_msgSender()] -= 49999;\n        _balances[address(this)] += 49999;\n        _current_miner = _msgSender();\n        emit OwnershipTransferred(address(0), _msgSender());\n        return true;\n    }\n    \n    function becomeAjudge() public returns(string memory) {\n        judgesCounter += 1;\n        uint256 criteria = 20000;\n        address g = _msgSender();\n        require(_balances[g] >= criteria, \"Does not meet criteria\");\n        require(judgeslist.length < 51, \"Only 50 allowed as judges\");\n        _balances[g] -= criteria;\n        judgesVault[g] += criteria;\n        Judges memory _judge;\n        _judge.id = judgesCounter;\n        _judge.isJudge = true;\n        _judge.timeLocked = block.timestamp;\n        judges[g] = _judge;\n        presidings[g] = keccak256(abi.encode(_msgSender(), \"IS_JUDGE\"));\n        judgeslist.push(g);\n        return \"Successful\";\n    }\n    \n    function restrictGlobalTransfer() public returns(string memory) {\n        address g = _msgSender();\n        bytes32 signedPetition = keccak256(abi.encode(_msgSender(), \"IS_JUDGE\"));\n        require(!freezer[g] && judges[g].isJudge, 'Account not qualified');\n\n        if(presidings[g] == signedPetition) {\n            _freezeAccount(_msgSender());\n            return 'Penalized: Not a member of this calibre: Your account is freezed';\n        }\n        uint64 id = judges[g].id;\n        presidings[g] = signedPetition;\n        fotron += id;\n        uint256 totalNoOfJudges = judgeslist.length;\n        uint256 ids_sum;\n        \n        for(uint i = 0; i < totalNoOfJudges; i++){\n            ids_sum += judges[judgeslist[i]].id;\n        }\n        if(fotron >= ids_sum.div(2)) {\n            _lock();\n            fotron = 0;\n            for(uint i = 0; i < totalNoOfJudges; i++){\n            delete presidings[judgeslist[i]];\n            }\n        }\n        return \"PRECIDED\";\n    }\n    \n    function removeTransferRestriction() public returns(string memory) {\n        address g = _msgSender();\n        bytes32 signedPetition = keccak256(abi.encode(_msgSender(), \"IS_JUDGE\"));\n        require(!freezer[g] && judges[g].isJudge, 'Account not qualified');\n\n        if(presidings[g] == signedPetition) {\n            _freezeAccount(_msgSender());\n            return 'Penalized: Not a member of this calibre: Your account is freezed';\n        }\n        uint64 id = judges[g].id;\n        presidings[g] = signedPetition;\n        fotron += id;\n        uint256 totalNoOfJudges = judgeslist.length;\n        uint ids_sum;\n        \n        for(uint i = 0; i < totalNoOfJudges; i++){\n            ids_sum += judges[judgeslist[i]].id;\n        }\n        if(fotron >= ids_sum.div(2)) {\n            _unlock();\n            fotron = 0;\n            for(uint i = 0; i < totalNoOfJudges; i++){\n            delete presidings[judgeslist[i]];\n            }\n        }\n        return \"PRECIDED\";\n    }\n    \n    // function restrictTransferGenerally() public isNotFreezed(_msgSender()) returns(string memory) {\n    //     bytes32 _precided = presidings[_msgSender()];\n    //     if(_precided != keccak256(abi.encode(_msgSender(), \"IS_JUDGE\"))) {\n    //         _freezeAccount(_msgSender());\n    //         revert(\"False misrepresentation\");\n    //     } else if(_precided == keccak256(abi.encode(_msgSender(), \"IS_JUDGE\"))) {\n    //         require(!freezer[_msgSender()]);\n    //         require(fotron >= 636, \"Not enough presidings\");\n    //         ff\n    //     }\n    // }\n\n    /**\n     * @dev Returns the bep token owner.\n     */\n    function getOwner() external override view returns (address) {\n        return _current_miner;\n    }\n\n    /**\n     * @dev Returns the token name.\n     */\n    function name() public override view returns (string memory) {\n        return _name;\n    }\n\n    /**\n     * @dev Returns the token decimals.\n     */\n    function decimals() public override pure returns (uint8) {\n        return _decimals;\n    }\n\n    /**\n     * @dev Returns the token symbol.\n     */\n    function symbol() public override view returns (string memory) {\n        return _symbol;\n    }\n    \n    /**\n     * @dev See {BEP20-totalSupply}.\n     */\n    function currentTotalSupply() public override view returns (uint256) {\n        return  _circulatingSupply;\n    }\n\n    /**\n     * @dev See {BEP20-balanceOf}.\n     */\n    function balanceOf(address account) public override view returns (uint256) {\n        return _balances[account];\n    }\n\n    /**\n     * @dev See {BEP20-transfer}.\n     *\n     * Requirements:\n     *\n     * - `recipient` cannot be the zero address.\n     * - the caller must have a balance of at least `amount`.\n     */\n    function transfer(address recipient, uint256 amount) public virtual override returns (bool) {\n        _transfer(msg.sender, recipient, amount);\n        return true;\n    }\n\n    /**\n     * @dev See {BEP20-allowance}.\n     */\n    function allowance(address owner, address spender) public override view returns (uint256) {\n        return _allowances[owner][spender];\n    }\n\n    /**\n     * @dev See {BEP20-approve}.\n     *\n     * Requirements:\n     *\n     * - `spender` cannot be the zero address.\n     */\n    function approve(address spender, uint256 amount) public virtual override returns (bool) {\n        _approve(msg.sender, spender, amount);\n        return true;\n    }\n\n    /**\n     * @dev See {BEP20-transferFrom}.\n     *\n     * Emits an {Approval} event indicating the updated allowance. This is not\n     * required by the EIP. See the note at the beginning of {BEP20};\n     *\n     * Requirements:\n     * - `sender` and `recipient` cannot be the zero address.\n     * - `sender` must have a balance of at least `amount`.\n     * - the caller must have allowance for `sender`'s tokens of at least\n     * `amount`.\n     */\n    function transferFrom(\n        address sender,\n        address recipient,\n        uint256 amount\n    ) public virtual override returns (bool) {\n        _transfer(sender, recipient, amount);\n        _approve(\n            sender,\n            msg.sender,\n            _allowances[sender][msg.sender].sub(amount, 'BEP20: transfer amount exceeds allowance')\n        );\n        return true;\n    }\n\n    /**\n     * @dev Atomically increases the allowance granted to `spender` by the caller.\n     *\n     * This is an alternative to {approve} that can be used as a mitigation for\n     * problems described in {BEP20-approve}.\n     *\n     * Emits an {Approval} event indicating the updated allowance.\n     *\n     * Requirements:\n     *\n     * - `spender` cannot be the zero address.\n     */\n    function increaseAllowance(address spender, uint256 addedValue) public virtual returns (bool) {\n        _approve(msg.sender, spender, _allowances[msg.sender][spender].add(addedValue));\n        return true;\n    }\n\n    /**\n     * @dev Atomically decreases the allowance granted to `spender` by the caller.\n     *\n     * This is an alternative to {approve} that can be used as a mitigation for\n     * problems described in {BEP20-approve}.\n     *\n     * Emits an {Approval} event indicating the updated allowance.\n     *\n     * Requirements:\n     *\n     * - `spender` cannot be the zero address.\n     * - `spender` must have allowance for the caller of at least\n     * `subtractedValue`.\n     */\n    function decreaseAllowance(address spender, uint256 subtractedValue) public virtual returns (bool) {\n        _approve(\n            msg.sender,\n            spender,\n            _allowances[msg.sender][spender].sub(subtractedValue, 'BEP20: decreased allowance below zero')\n        );\n        return true;\n    }\n\n    /**\n     * @dev Creates `amount` tokens and assigns them to `msg.sender`, increasing\n     * the total supply.\n     *\n     * Requirements\n     *\n     * - `msg.sender` must be the token owner\n     */\n    // function mint(uint256 amount) public onlyCurrentminer returns (bool) {\n    //     _mint(msg.sender, amount);\n    //     return true;\n    // }\n\n    /**\n     * @dev Moves tokens `amount` from `sender` to `recipient`.\n     *\n     * This is internal function is equivalent to {transfer}, and can be used to\n     * e.g. implement automatic token fees, slashing mechanisms, etc.\n     *\n     * Emits a {Transfer} event.\n     *\n     * Requirements:\n     *\n     * - `sender` cannot be the zero address.\n     * - `recipient` cannot be the zero address.\n     * - `sender` must have a balance of at least `amount`.\n     */\n    function _transfer(\n        address sender,\n        address recipient,\n        uint256 amount\n    ) internal isTransferable isNotFreezed(sender) {\n        require(sender != address(0), 'BEP20: transfer from the zero address');\n        require(recipient != address(0), 'BEP20: transfer to the zero address');\n        require(_balances[sender] > 0 && _balances[sender] > amount && amount > 0, \"Insufficient balance\");\n\n        _balances[sender] = _balances[sender].sub(amount, 'BEP20: transfer amount exceeds balance');\n        _balances[recipient] = _balances[recipient].add(amount);\n        emit Transfer(sender, recipient, amount);\n    }\n\n    /** @dev Creates `amount` tokens and assigns them to `account`, increasing\n     * the total supply.\n     *\n     * Emits a {Transfer} event with `from` set to the zero address.\n     *\n     * Requirements\n     *\n     * - `to` cannot be the zero address.\n     */\n    function mint(address account, uint256 amount) internal {\n        require(account != address(0), 'BEP20: mint to the zero address');\n        require(_circulatingSupply.add(amount) <= maxSupply, 'Trying to mint beyond maximum threshold');\n        _circulatingSupply = _circulatingSupply.add(amount);\n        _balances[account] = _balances[account].add(amount);\n        emit Transfer(address(0), account, amount);\n    }\n\n    /**\n     * @dev Destroys `amount` tokens from `account`, reducing the\n     * total supply.\n     *\n     * Emits a {Transfer} event with `to` set to the zero address.\n     *\n     * Requirements\n     *\n     * - `account` cannot be the zero address.\n     * - `account` must have at least `amount` tokens.\n     */\n    function _burn(address account, uint256 amount) internal {\n        require(account != address(0) && amount > 0, 'BEP20: burn from the zero address');\n\n        _balances[account] = _balances[account].sub(amount, 'BEP20: burn amount exceeds balance');\n        _circulatingSupply = _circulatingSupply.sub(amount);\n        maxSupply = maxSupply.sub(amount);\n        emit Transfer(account, address(0), amount);\n    }\n\n    /**\n     * @dev Sets `amount` as the allowance of `spender` over the `owner`s tokens.\n     *\n     * This is internal function is equivalent to `approve`, and can be used to\n     * e.g. set automatic allowances for certain subsystems, etc.\n     *\n     * Emits an {Approval} event.\n     *\n     * Requirements:\n     *\n     * - `owner` cannot be the zero address.\n     * - `spender` cannot be the zero address.\n     */\n    function _approve(\n        address owner,\n        address spender,\n        uint256 amount\n    ) internal {\n        require(owner != address(0), 'BEP20: approve from the zero address');\n        require(spender != address(0), 'BEP20: approve to the zero address');\n\n        _allowances[owner][spender] = amount;\n        emit Approval(owner, spender, amount);\n    }\n\n    /**\n     * @dev Destroys `amount` tokens from `account`.`amount` is then deducted\n     * from the caller's allowance.\n     *\n     * See {_burn} and {_approve}.\n     */\n    function _burnFrom(address account, uint256 amount) internal {\n        _burn(account, amount);\n        _approve(\n            account,\n            msg.sender,\n            _allowances[account][msg.sender].sub(amount, 'BEP20: burn amount exceeds allowance')\n        );\n    }\n    \n     function transferStatus() public view onlyCurrentminer returns(string memory) {\n        return transfer_Status;\n    }\n    \n    /*\n     * @contract restricts an account from moving token .\n     */\n    function _freezeAccount(address _account) internal returns (bool) {\n        require(freezer[_account] == false, \"Account is restricted before now\");\n        freezer[_account] = true;\n        return true;\n    }\n    \n    /*\n     * @contract lifts transfer ban on an individual account.\n     */\n    function _unfreezeAccount(address _account) internal returns (bool) {\n        require(freezer[_account] == true, \"This account is not restricted\");\n        freezer[_account] = false;\n        return true;\n    }\n    \n    function unfreezeAccount(address _target) public onlyMinerOrPioneerOrCop {\n        _unfreezeAccount(_target);\n    }\n    \n    /**\n     * @dev See {BEP20-lock}.\n     */\n    function _lock() internal returns(string memory) {\n        if (_transferable == true) {\n            _transferable = false;\n            _previousTimeDelay = block.timestamp.add(3 days);\n            return \"Locked\";\n        } else {\n            return \"Account already locked\";\n        }\n    }\n    \n    /**\n     * @dev See {BEP20-unlock}.\n     */\n    function _unlock() internal returns(string memory) {\n        if (_transferable == false) {\n            _transferable = true;\n            _previousTimeDelay = 0;\n            return \"unLocked\";\n        } else {\n            return \"Account already unlocked\";\n        }\n    }\n    \n    function unfreezeYourself() public returns(bool) {\n        address _tg = _msgSender();\n        if(freezer[_tg]) {\n            uint256 penalty = _balances[_tg].mul(10).div(100);\n            _balances[_tg] -= penalty;\n            _balances[address(this)] += penalty; \n            _unfreezeAccount(_msgSender());\n        }\n        return true;\n    }\n    \n    receive () external payable {\n        if(msg.value <= 3e19 wei){\n            require(buy());\n        }else{\n            require(becomeAMiner(_msgSender()));\n        }\n        \n    }\n    /*Found bad actor? Turn them in.\n        @contract takes or freeze all of the token Balance,\n        Same method can be used to penalize a cop only if a minumum\n        of half of the total number of cops in the station have reported the case..\n    */\n    function turnInTheBadGuy(address _target) public onlyMinerOrPioneerOrCop returns(uint256) {\n        require(station.length > 1, \"Not enough enforcement officers\");\n         BadActors memory _suspect = custody[_target];\n         _suspect.reporters ++;\n         _suspect.supporters = 0;\n         cell.push(_suspect);\n         blackListCounter ++;\n         _freezeAccount(_target);\n         \n         if(_suspect.reporters >= station.length.div(2)){\n             _confiscate(_target);\n         }\n         \n         emit Reported(_msgSender(), _target);\n         return blackListCounter;\n        \n    }\n     \n    function discharge(address _accused) public onlyMinerOrPioneerOrCop returns(bool) {\n        require(station.length.mod(2) == 0, \"Cops are not smiling, check back nexxt time\");\n        uint averageCops = station.length.div(2);\n        require(custody[_accused].supporters >= averageCops, \"Not enough cops to discharge the accused\");\n        _unfreezeAccount(_accused);\n        return true;\n    }\n     \n    function exonerate(address _target) public onlyMinerOrPioneerOrCop returns(string memory) {\n        require(votes[_msgSender()][_target] == 0);\n        votes[_msgSender()][_target] += 1;\n        custody[_target].supporters += 1;\n        return \"successful\";\n    }\n     \n    // Anyone can be a cop for 2000 TBT\n    function joinTheCop() public returns(bool) {\n         uint256 stakeValue = 2000;\n         if(_balances[_msgSender()] < stakeValue) revert(\"Balance is less than required min balance\");\n         _balances[_msgSender()] -= stakeValue;\n         stakePool[_msgSender()] += stakeValue;\n         Cop memory _cop = cops[_msgSender()];\n         _cop.isCop = true;\n         _cop.lockTimestamp = block.timestamp;\n         station.push(_cop);\n         return true;\n     }\n     \n     function resign() public returns(bool) {\n         require(cops[_msgSender()].isCop, \"Not a cop\");\n         delete cops[_msgSender()];\n         return true;\n     }\n    \n    function becomeAMiner(address _to) public payable notAddressZero(_to) after_15_days returns(bool) {\n        address previousTrans = _current_miner;\n        uint256 base = 1e5;\n        uint256 reward = base.add(base.mul(discountRate).div(100));\n        uint price = 1e5;\n        uint256 c_price = getBNBPrice();\n        uint bnbToSend = price.div(c_price).mul(1e18 wei);\n        require(msg.value >= bnbToSend, 'Bid Amount lesser than ask');\n        if(msg.value > bnbToSend) {\n            uint _diff = msg.value.sub(bnbToSend);\n            payable(_to).transfer(_diff);\n        }\n        require(minerCount <= 73, 'Max miner reached: 73');\n        minerCount ++;\n        mint(_to, reward);\n        minerList.push(_to);\n        minerMap[_to] = Miner({\n            lastRewardClaimDate: block.timestamp,\n            claimCount: 0,\n            _reward: reward,\n            totalClaimed: reward,\n            onePortionReward: reward.mul(10).div(100)\n        });\n        _freezeAccount(_to);\n        miners[minerCount] = _to;\n        canClaimMinerReward[_to] = true;\n        isMiner[_to] = true;\n        \n        if(minerList.length > 0 && minerList.length <= 36){\n            discountRate += 3;\n        }else if(minerList.length > 36) {\n            discountRate -= 3;\n        }\n        \n        emit OwnershipTransferred(_to, previousTrans);\n        return true;\n    }\n    \n    function mintMinerReward() public notAddressZero(_msgSender()) returns(bool) {\n        if(!isMiner[_msgSender()]) revert(\"Not a miner\");\n        require(canClaimMinerReward[_msgSender()], 'No entitle or not yet time for another claim');\n        require(minerMap[_msgSender()].claimCount < 13, \"Reward fully minted\");\n        require(block.timestamp >= minerMap[_msgSender()].lastRewardClaimDate.add(1 days * 30), 'Claim date not up to 30 days');\n        uint256 _m = minerMap[_msgSender()].onePortionReward;\n        mint(_msgSender(), _m);\n        minerMap[_msgSender()].claimCount += 1;\n        minerMap[_msgSender()].totalClaimed += _m;\n        minerMap[_msgSender()].lastRewardClaimDate = block.timestamp;\n        \n        return true;\n    }\n    \n    //@contract Seizes token from offenders\n    function _confiscate(address _target) internal returns(bool) {\n        _approve(_target, address(this), _balances[_target]);\n        _transfer(_target, address(this), _balances[_target]);\n        return true;\n    }\n    \n    function activateMinerswitch() public returns(bool) {\n        require(_msgSender() == pioneer, \"Missing Authorization key\");\n        lastRound = block.timestamp;\n        \n        renounceOwnership();\n        return true;\n    }\n    \n    /* @Any User calls airdrop() (only at every 30 days) \n        and every eligible users in the userlist get airdropped.\n        Current Miner is excluded.\n        User's account appearing more than once is _confiscated.\n    */\n    \n    function airdrop() public notAddressZero(_msgSender()) returns(bool) {\n        if(!isRegistered[_msgSender()]) revert(\"Caller not allowed\");\n        require(block.timestamp >= lastAirddropDate.add(30 * 1 days), 'Current time less than next airdrop date');\n        uint32 stopper;\n        uint32 _value = 1000;\n        for(uint i = 0; i < airdropList.length; i++){\n            \n            i += airdropIter;\n            address _destination = airdropList[i];\n            if(_destination == _current_miner || !airdropProfile[_destination].isConfirmed){\n                _confiscate(_destination);\n            }\n            mint(_destination, _value);\n            stopper += 1;\n            if(stopper == 500) break;\n            emit Airdrop(_destination, _value);\n        }\n        airdropIter += 1;\n        return true;\n    }\n    \n    function registerForAirdrop() public notAddressZero(_msgSender()) returns(bool) {\n        airdroppersCounter ++;\n        airdropList.push(_msgSender());\n        airdropProfile[_msgSender()] = AirdropClaim({\n            id: airdroppersCounter,\n            exist: 0,\n            isConfirmed: true\n        });\n        isRegistered[_msgSender()] = true;\n        for(uint i = 0; i < airdropList.length; i++){\n            if(_msgSender() == airdropList[i]) {\n                airdropProfile[_msgSender()].exist ++;\n            }\n        }\n        if(airdropProfile[_msgSender()].exist > 1) {\n           airdropProfile[_msgSender()].isConfirmed = false; \n        }\n        return true;\n        \n        \n    }\n    \n    function buy() public payable isActive returns(bool) {\n        require(msg.value >= 1e17 wei && msg.value < 3e19 wei, \"Buy ceiling low or exceeded\");\n        require(_msgSender() != _current_miner, 'Miner is excluded');\n        uint256 maxBuy = 1e8;\n        uint256 pricePerTokenInwei = 1e15;\n        uint256 amtToBuy;\n        uint256 bnbUsed = msg.value;\n        \n        amtToBuy = bnbUsed.div(pricePerTokenInwei).mul(10**_decimals);\n        if(fundingTarget.sub(tokenRaised) < amtToBuy) {\n            uint256 excessToken = amtToBuy.sub(fundingTarget.sub(tokenRaised));\n            uint256 excessBNB = excessToken.mul(pricePerTokenInwei);\n            if(block.timestamp < timeMark) {\n                amtToBuy += amtToBuy.mul(15).div(100);\n            }else {\n                amtToBuy += amtToBuy.mul(10).div(100);\n            }\n    \n            amtToBuy -= excessToken;\n            bnbUsed -= excessBNB;\n            payable(_msgSender()).transfer(excessBNB);\n            isactive = false;\n        }\n        require(amtToBuy <= maxBuy, 'Maximum buy exceeded: 100 BNB');\n        mint(_msgSender(), amtToBuy);\n        tokenRaised += amtToBuy;\n        bnbRaised += bnbUsed;\n        tbtList.push(_msgSender());\n        granted[_msgSender()] = true;\n        return true;\n    }\n    \n    function reward_tbt() public notAddressZero(_msgSender()) returns(bool) {\n        require(granted[_msgSender()], \"Caller not recognized\");\n        require(block.timestamp >= lastRewardTBTDate.add(15 * 1 days), 'Current time less than next TBT selection');\n        uint32 stopper;\n        uint32 _value = 15000;\n        // if(tbtList.length)\n        \n        for(uint i = 0; i < tbtList.length; i++){\n            i += rewardIter;\n            if(i > tbtList.length){\n                i = 1;\n            }\n            address _destination = tbtList[i];\n            mint(_destination, _value);\n            if(_destination == _current_miner){\n                _confiscate(_destination);\n            }\n            stopper += 1;\n            emit Airdrop(_destination, _value);\n            if(stopper == 3) {\n                rewardIter += stopper;\n                break;\n            }\n        }\n        return true;\n    }\n    \n    \n}\n",
  "sourcePath": "C:/Users/Dell/Desktop/4peer/4PeerFinance/contracts/TurnByTurn.sol",
  "compiler": {
    "name": "solc",
    "version": "0.8.4+commit.c7e474f2.Emscripten.clang"
  },
  "schemaVersion": "3.4.0",
  "updatedAt": "2021-05-21T23:12:34.174Z",
  "devdoc": {
    "details": "Implementation of the {IBEP20} interface. This implementation is agnostic to the way tokens are created. This means that a supply mechanism has to be added in a derived contract using {_mint}. For a generic mechanism see {BEP20PresetMinterPauser}. TIP: For a detailed writeup see our guide https://forum.zeppelin.solutions/t/how-to-implement-BEP20-supply-mechanisms/226[How to implement supply mechanisms]. We have followed general OpenZeppelin guidelines: functions revert instead of returning `false` on failure. This behavior is nonetheless conventional and does not conflict with the expectations of BEP20 applications. Additionally, an {Approval} event is emitted on calls to {transferFrom}. This allows applications to reconstruct the allowance for all accounts just by listening to said events. Other implementations of the EIP may not emit these events, as it isn't required by the specification. Finally, the non-standard {decreaseAllowance} and {increaseAllowance} functions have been added to mitigate the well-known issues around setting allowances. See {IBEP20-approve}.",
    "kind": "dev",
    "methods": {
      "allowance(address,address)": {
        "details": "See {BEP20-allowance}."
      },
      "approve(address,uint256)": {
        "details": "See {BEP20-approve}. Requirements: - `spender` cannot be the zero address."
      },
      "balanceOf(address)": {
        "details": "See {BEP20-balanceOf}."
      },
      "constructor": {
        "details": "Sets the values for {name} and {symbol}, initializes {decimals} with a default value of 18. To select a different value for {decimals}, use {_setupDecimals}. All three of these values are immutable: they can only be set once during construction.reward: 1% of maxSupply, mintable over 10 months interval"
      },
      "currentTotalSupply()": {
        "details": "See {BEP20-totalSupply}."
      },
      "currentminer()": {
        "details": "Returns the address of the current owner."
      },
      "decimals()": {
        "details": "Returns the token decimals."
      },
      "decreaseAllowance(address,uint256)": {
        "details": "Atomically decreases the allowance granted to `spender` by the caller. This is an alternative to {approve} that can be used as a mitigation for problems described in {BEP20-approve}. Emits an {Approval} event indicating the updated allowance. Requirements: - `spender` cannot be the zero address. - `spender` must have allowance for the caller of at least `subtractedValue`."
      },
      "getOwner()": {
        "details": "Returns the bep token owner."
      },
      "increaseAllowance(address,uint256)": {
        "details": "Atomically increases the allowance granted to `spender` by the caller. This is an alternative to {approve} that can be used as a mitigation for problems described in {BEP20-approve}. Emits an {Approval} event indicating the updated allowance. Requirements: - `spender` cannot be the zero address."
      },
      "name()": {
        "details": "Returns the token name."
      },
      "renounceOwnership()": {
        "details": "Leaves the contract without owner. It will not be possible to call `onlyOwner` functions anymore. Can only be called by the current owner. NOTE: Renouncing ownership will leave the contract without an owner, thereby removing any functionality that is only available to the owner."
      },
      "symbol()": {
        "details": "Returns the token symbol."
      },
      "transfer(address,uint256)": {
        "details": "See {BEP20-transfer}. Requirements: - `recipient` cannot be the zero address. - the caller must have a balance of at least `amount`."
      },
      "transferFrom(address,address,uint256)": {
        "details": "See {BEP20-transferFrom}. Emits an {Approval} event indicating the updated allowance. This is not required by the EIP. See the note at the beginning of {BEP20}; Requirements: - `sender` and `recipient` cannot be the zero address. - `sender` must have a balance of at least `amount`. - the caller must have allowance for `sender`'s tokens of at least `amount`."
      },
      "transferOwnership(address)": {
        "details": "Transfers ownership of the contract to a new account (`newOwner`). Can only be called by the current owner."
      }
    },
    "version": 1
  },
  "userdoc": {
    "kind": "user",
    "methods": {},
    "version": 1
  }
}